{
  "contractName": "Loan",
  "abi": [
    {
      "inputs": [
        {
          "internalType": "address payable",
          "name": "_borrower",
          "type": "address"
        },
        {
          "internalType": "address",
          "name": "_token",
          "type": "address"
        },
        {
          "internalType": "uint256",
          "name": "_amountRequested",
          "type": "uint256"
        }
      ],
      "stateMutability": "nonpayable",
      "type": "constructor"
    },
    {
      "anonymous": false,
      "inputs": [
        {
          "indexed": false,
          "internalType": "address",
          "name": "addr",
          "type": "address"
        },
        {
          "indexed": false,
          "internalType": "uint256",
          "name": "amount",
          "type": "uint256"
        }
      ],
      "name": "BorrowerRepaid",
      "type": "event"
    },
    {
      "anonymous": false,
      "inputs": [
        {
          "indexed": false,
          "internalType": "address",
          "name": "addr",
          "type": "address"
        },
        {
          "indexed": false,
          "internalType": "uint256",
          "name": "amount",
          "type": "uint256"
        }
      ],
      "name": "BorrowerWithdrew",
      "type": "event"
    },
    {
      "anonymous": false,
      "inputs": [
        {
          "indexed": false,
          "internalType": "address",
          "name": "addr",
          "type": "address"
        },
        {
          "indexed": false,
          "internalType": "uint256",
          "name": "amount",
          "type": "uint256"
        }
      ],
      "name": "LenderWithrew",
      "type": "event"
    },
    {
      "anonymous": false,
      "inputs": [
        {
          "indexed": false,
          "internalType": "address",
          "name": "addr",
          "type": "address"
        },
        {
          "indexed": false,
          "internalType": "uint256",
          "name": "amount",
          "type": "uint256"
        }
      ],
      "name": "LentToLoan",
      "type": "event"
    },
    {
      "anonymous": false,
      "inputs": [],
      "name": "LoanFunded",
      "type": "event"
    },
    {
      "anonymous": false,
      "inputs": [],
      "name": "LoanRepaid",
      "type": "event"
    },
    {
      "inputs": [],
      "name": "amountBorrowerHasWithdraw",
      "outputs": [
        {
          "internalType": "uint256",
          "name": "",
          "type": "uint256"
        }
      ],
      "stateMutability": "view",
      "type": "function",
      "constant": true
    },
    {
      "inputs": [],
      "name": "amountLenderHasWithdraw",
      "outputs": [
        {
          "internalType": "uint256",
          "name": "",
          "type": "uint256"
        }
      ],
      "stateMutability": "view",
      "type": "function",
      "constant": true
    },
    {
      "inputs": [],
      "name": "amountRaised",
      "outputs": [
        {
          "internalType": "uint256",
          "name": "",
          "type": "uint256"
        }
      ],
      "stateMutability": "view",
      "type": "function",
      "constant": true
    },
    {
      "inputs": [],
      "name": "amountRepaid",
      "outputs": [
        {
          "internalType": "uint256",
          "name": "",
          "type": "uint256"
        }
      ],
      "stateMutability": "view",
      "type": "function",
      "constant": true
    },
    {
      "inputs": [],
      "name": "amountRequested",
      "outputs": [
        {
          "internalType": "uint256",
          "name": "",
          "type": "uint256"
        }
      ],
      "stateMutability": "view",
      "type": "function",
      "constant": true
    },
    {
      "inputs": [],
      "name": "borrower",
      "outputs": [
        {
          "internalType": "address",
          "name": "",
          "type": "address"
        }
      ],
      "stateMutability": "view",
      "type": "function",
      "constant": true
    },
    {
      "inputs": [],
      "name": "lender",
      "outputs": [
        {
          "internalType": "address",
          "name": "",
          "type": "address"
        }
      ],
      "stateMutability": "view",
      "type": "function",
      "constant": true
    },
    {
      "inputs": [],
      "name": "loanContract",
      "outputs": [
        {
          "internalType": "address",
          "name": "",
          "type": "address"
        }
      ],
      "stateMutability": "view",
      "type": "function",
      "constant": true
    },
    {
      "inputs": [
        {
          "internalType": "uint256",
          "name": "amount",
          "type": "uint256"
        }
      ],
      "name": "lend",
      "outputs": [],
      "stateMutability": "payable",
      "type": "function",
      "payable": true
    },
    {
      "inputs": [],
      "name": "borrowerWithdraw",
      "outputs": [],
      "stateMutability": "nonpayable",
      "type": "function"
    },
    {
      "inputs": [
        {
          "internalType": "uint256",
          "name": "amount",
          "type": "uint256"
        }
      ],
      "name": "borrowerRepay",
      "outputs": [],
      "stateMutability": "payable",
      "type": "function",
      "payable": true
    },
    {
      "inputs": [],
      "name": "lenderWithdraw",
      "outputs": [],
      "stateMutability": "nonpayable",
      "type": "function"
    },
    {
      "inputs": [],
      "name": "amountLeftToFund",
      "outputs": [
        {
          "internalType": "uint256",
          "name": "",
          "type": "uint256"
        }
      ],
      "stateMutability": "view",
      "type": "function",
      "constant": true
    },
    {
      "inputs": [],
      "name": "amountLeftToRepay",
      "outputs": [
        {
          "internalType": "uint256",
          "name": "",
          "type": "uint256"
        }
      ],
      "stateMutability": "view",
      "type": "function",
      "constant": true
    }
  ],
  "bytecode": "0x6080604052600060055560006006556000600755600060085560006009553480156200002a57600080fd5b5060405162001797380380620017978339818101604052810190620000509190620001d4565b600160008190555082600160006101000a81548173ffffffffffffffffffffffffffffffffffffffff021916908373ffffffffffffffffffffffffffffffffffffffff16021790555081600460006101000a81548173ffffffffffffffffffffffffffffffffffffffff021916908373ffffffffffffffffffffffffffffffffffffffff1602179055508060058190555050505062000230565b600080fd5b600073ffffffffffffffffffffffffffffffffffffffff82169050919050565b60006200011c82620000ef565b9050919050565b6200012e816200010f565b81146200013a57600080fd5b50565b6000815190506200014e8162000123565b92915050565b60006200016182620000ef565b9050919050565b620001738162000154565b81146200017f57600080fd5b50565b600081519050620001938162000168565b92915050565b6000819050919050565b620001ae8162000199565b8114620001ba57600080fd5b50565b600081519050620001ce81620001a3565b92915050565b600080600060608486031215620001f057620001ef620000ea565b5b600062000200868287016200013d565b9350506020620002138682870162000182565b92505060406200022686828701620001bd565b9150509250925092565b61155780620002406000396000f3fe6080604052600436106100dd5760003560e01c8063952a4adc1161007f578063c628d3f811610059578063c628d3f81461026d578063ee86afd814610298578063f14f6e17146102c3578063fb1abda5146102da576100dd565b8063952a4adc146101fb578063a6aa57ce14610226578063bcead63e14610242576100dd565b80635edf0c9e116100bb5780635edf0c9e1461014f578063765c4f401461017a5780637b3e5e7b146101a55780637df1f1b9146101d0576100dd565b8063253f284b146100e2578063281380e81461010d5780635cdb982914610138575b600080fd5b3480156100ee57600080fd5b506100f76102f6565b6040516101049190610dc9565b60405180910390f35b34801561011957600080fd5b5061012261031c565b60405161012f9190610dfd565b60405180910390f35b34801561014457600080fd5b5061014d610333565b005b34801561015b57600080fd5b506101646105ae565b6040516101719190610dfd565b60405180910390f35b34801561018657600080fd5b5061018f6105c5565b60405161019c9190610dfd565b60405180910390f35b3480156101b157600080fd5b506101ba6105cb565b6040516101c79190610dfd565b60405180910390f35b3480156101dc57600080fd5b506101e56105d1565b6040516101f29190610dc9565b60405180910390f35b34801561020757600080fd5b506102106105f7565b60405161021d9190610dfd565b60405180910390f35b610240600480360381019061023b9190610e49565b6105fd565b005b34801561024e57600080fd5b506102576108eb565b6040516102649190610dc9565b60405180910390f35b34801561027957600080fd5b50610282610911565b60405161028f9190610dfd565b60405180910390f35b3480156102a457600080fd5b506102ad610917565b6040516102ba9190610dfd565b60405180910390f35b3480156102cf57600080fd5b506102d861091d565b005b6102f460048036038101906102ef9190610e49565b610b5f565b005b600360009054906101000a900473ffffffffffffffffffffffffffffffffffffffff1681565b600060065460055461032e9190610ea5565b905090565b60026000541415610379576040517f08c379a000000000000000000000000000000000000000000000000000000000815260040161037090610f36565b60405180910390fd5b6002600081905550600160009054906101000a900473ffffffffffffffffffffffffffffffffffffffff1673ffffffffffffffffffffffffffffffffffffffff163373ffffffffffffffffffffffffffffffffffffffff1614610411576040517f08c379a000000000000000000000000000000000000000000000000000000000815260040161040890610fa2565b60405180910390fd5b600060065411610456576040517f08c379a000000000000000000000000000000000000000000000000000000000815260040161044d90611034565b60405180910390fd5b6006546009541061049c576040517f08c379a0000000000000000000000000000000000000000000000000000000008152600401610493906110c6565b60405180910390fd5b600654600960008282546104b091906110e6565b92505081905550600460009054906101000a900473ffffffffffffffffffffffffffffffffffffffff1673ffffffffffffffffffffffffffffffffffffffff1663a9059cbb336006546040518363ffffffff1660e01b815260040161051692919061113c565b602060405180830381600087803b15801561053057600080fd5b505af1158015610544573d6000803e3d6000fd5b505050506040513d601f19601f82011682018060405250810190610568919061119d565b507f2dc63558fcb644e43c404fb71c2bb9005b9ee3b361d19c603821f86ded7a5bd43360065460405161059c92919061113c565b60405180910390a16001600081905550565b60006007546005546105c09190610ea5565b905090565b60085481565b60065481565b600160009054906101000a900473ffffffffffffffffffffffffffffffffffffffff1681565b60095481565b60026000541415610643576040517f08c379a000000000000000000000000000000000000000000000000000000000815260040161063a90610f36565b60405180910390fd5b6002600081905550600160009054906101000a900473ffffffffffffffffffffffffffffffffffffffff1673ffffffffffffffffffffffffffffffffffffffff163373ffffffffffffffffffffffffffffffffffffffff1614156106dc576040517f08c379a00000000000000000000000000000000000000000000000000000000081526004016106d39061123c565b60405180910390fd5b6106e461031c565b811115610726576040517f08c379a000000000000000000000000000000000000000000000000000000000815260040161071d906112ce565b60405180910390fd5b61072e61031c565b811461076f576040517f08c379a000000000000000000000000000000000000000000000000000000000815260040161076690611360565b60405180910390fd5b806006600082825461078191906110e6565b9250508190555033600260006101000a81548173ffffffffffffffffffffffffffffffffffffffff021916908373ffffffffffffffffffffffffffffffffffffffff160217905550600460009054906101000a900473ffffffffffffffffffffffffffffffffffffffff1673ffffffffffffffffffffffffffffffffffffffff166323b872dd3330846040518463ffffffff1660e01b815260040161082893929190611380565b602060405180830381600087803b15801561084257600080fd5b505af1158015610856573d6000803e3d6000fd5b505050506040513d601f19601f8201168201806040525081019061087a919061119d565b507f47047d86227821f4ba4162b47a4e21f3751a6898df27767881baae61a5df54b933826040516108ac92919061113c565b60405180910390a17f3351ae6756a83898700959ab1a672004e55a70dd6e74a45a80835316af9c76a460405160405180910390a1600160008190555050565b600260009054906101000a900473ffffffffffffffffffffffffffffffffffffffff1681565b60055481565b60075481565b60026000541415610963576040517f08c379a000000000000000000000000000000000000000000000000000000000815260040161095a90610f36565b60405180910390fd5b6002600081905550600260009054906101000a900473ffffffffffffffffffffffffffffffffffffffff1673ffffffffffffffffffffffffffffffffffffffff163373ffffffffffffffffffffffffffffffffffffffff16146109fb576040517f08c379a00000000000000000000000000000000000000000000000000000000081526004016109f290611403565b60405180910390fd5b6000600854600754610a0d9190610ea5565b905060008111610a52576040517f08c379a0000000000000000000000000000000000000000000000000000000008152600401610a4990611495565b60405180910390fd5b600460009054906101000a900473ffffffffffffffffffffffffffffffffffffffff1673ffffffffffffffffffffffffffffffffffffffff1663a9059cbb33836040518363ffffffff1660e01b8152600401610aaf92919061113c565b602060405180830381600087803b158015610ac957600080fd5b505af1158015610add573d6000803e3d6000fd5b505050506040513d601f19601f82011682018060405250810190610b01919061119d565b508060086000828254610b1491906110e6565b925050819055507fcca86a4943c89f9dda8baf5628a479d6d5b8f13575ce6fd180076fe6458d4b7a3382604051610b4c92919061113c565b60405180910390a1506001600081905550565b60026000541415610ba5576040517f08c379a0000000000000000000000000000000000000000000000000000000008152600401610b9c90610f36565b60405180910390fd5b6002600081905550600160009054906101000a900473ffffffffffffffffffffffffffffffffffffffff1673ffffffffffffffffffffffffffffffffffffffff163373ffffffffffffffffffffffffffffffffffffffff1614610c3d576040517f08c379a0000000000000000000000000000000000000000000000000000000008152600401610c3490611501565b60405180910390fd5b8060076000828254610c4f91906110e6565b92505081905550600460009054906101000a900473ffffffffffffffffffffffffffffffffffffffff1673ffffffffffffffffffffffffffffffffffffffff166323b872dd3330846040518463ffffffff1660e01b8152600401610cb593929190611380565b602060405180830381600087803b158015610ccf57600080fd5b505af1158015610ce3573d6000803e3d6000fd5b505050506040513d601f19601f82011682018060405250810190610d07919061119d565b507ffa13b775726afb945417ae4455f2c2d682da8145bcf41f4b6bba4fd5414b90e73382604051610d3992919061113c565b60405180910390a16000610d4b6105ae565b11610d7d577f1062e18f9d21decf38f145fc9b437cd2c70e09252a729f9830b75ffdaaf3789460405160405180910390a15b600160008190555050565b600073ffffffffffffffffffffffffffffffffffffffff82169050919050565b6000610db382610d88565b9050919050565b610dc381610da8565b82525050565b6000602082019050610dde6000830184610dba565b92915050565b6000819050919050565b610df781610de4565b82525050565b6000602082019050610e126000830184610dee565b92915050565b600080fd5b610e2681610de4565b8114610e3157600080fd5b50565b600081359050610e4381610e1d565b92915050565b600060208284031215610e5f57610e5e610e18565b5b6000610e6d84828501610e34565b91505092915050565b7f4e487b7100000000000000000000000000000000000000000000000000000000600052601160045260246000fd5b6000610eb082610de4565b9150610ebb83610de4565b925082821015610ece57610ecd610e76565b5b828203905092915050565b600082825260208201905092915050565b7f5265656e7472616e637947756172643a207265656e7472616e742063616c6c00600082015250565b6000610f20601f83610ed9565b9150610f2b82610eea565b602082019050919050565b60006020820190508181036000830152610f4f81610f13565b9050919050565b7f4f6e6c792074686520626f72726f7765722063616e2077697468647261770000600082015250565b6000610f8c601e83610ed9565b9150610f9782610f56565b602082019050919050565b60006020820190508181036000830152610fbb81610f7f565b9050919050565b7f416d6f756e7420726169736564206d757374206265206772656174657220746860008201527f616e203000000000000000000000000000000000000000000000000000000000602082015250565b600061101e602483610ed9565b915061102982610fc2565b604082019050919050565b6000602082019050818103600083015261104d81611011565b9050919050565b7f43616e2774207769746864726177206d6f7265207468616e2074686520616d6f60008201527f756e742072616973656400000000000000000000000000000000000000000000602082015250565b60006110b0602a83610ed9565b91506110bb82611054565b604082019050919050565b600060208201905081810360008301526110df816110a3565b9050919050565b60006110f182610de4565b91506110fc83610de4565b9250827fffffffffffffffffffffffffffffffffffffffffffffffffffffffffffffffff0382111561113157611130610e76565b5b828201905092915050565b60006040820190506111516000830185610dba565b61115e6020830184610dee565b9392505050565b60008115159050919050565b61117a81611165565b811461118557600080fd5b50565b60008151905061119781611171565b92915050565b6000602082840312156111b3576111b2610e18565b5b60006111c184828501611188565b91505092915050565b7f426f72726f7765722063616e2774206c656e6420746f207468656972206f776e60008201527f206c6f616e000000000000000000000000000000000000000000000000000000602082015250565b6000611226602583610ed9565b9150611231826111ca565b604082019050919050565b6000602082019050818103600083015261125581611219565b9050919050565b7f4c656e6420616d6f756e74206578636565647320616d6f756e74206c6566742060008201527f746f2066756e6400000000000000000000000000000000000000000000000000602082015250565b60006112b8602783610ed9565b91506112c38261125c565b604082019050919050565b600060208201905081810360008301526112e7816112ab565b9050919050565b7f4c656e6420616d6f756e74206d75636820657175616c20616d6f756e74206c6560008201527f667420746f2066756e6400000000000000000000000000000000000000000000602082015250565b600061134a602a83610ed9565b9150611355826112ee565b604082019050919050565b600060208201905081810360008301526113798161133d565b9050919050565b60006060820190506113956000830186610dba565b6113a26020830185610dba565b6113af6040830184610dee565b949350505050565b7f4f6e6c7920746865206c656e6465722063616e20776974686472617700000000600082015250565b60006113ed601c83610ed9565b91506113f8826113b7565b602082019050919050565b6000602082019050818103600083015261141c816113e0565b9050919050565b7f416d6f756e7420746f207769746864726177206d75737420626520677265617460008201527f6572207468616e20300000000000000000000000000000000000000000000000602082015250565b600061147f602983610ed9565b915061148a82611423565b604082019050919050565b600060208201905081810360008301526114ae81611472565b9050919050565b7f4f6e6c792074686520626f72726f7765722063616e2072657061790000000000600082015250565b60006114eb601b83610ed9565b91506114f6826114b5565b602082019050919050565b6000602082019050818103600083015261151a816114de565b905091905056fea2646970667358221220b11271989c949eef294f4dccf1e16d41bd0b0db146523b012fdf27186396575364736f6c63430008090033",
  "immutableReferences": {},
  "source": "// SPDX-License-Identifier: Apache-2.0\npragma solidity >=0.7.0 <0.9.0;\n\nimport \"@openzeppelin/contracts/token/ERC20/ERC20.sol\";\nimport \"@openzeppelin/contracts/utils/math/SafeMath.sol\";\nimport \"@openzeppelin/contracts/utils/Address.sol\";\nimport \"@openzeppelin/contracts/security/ReentrancyGuard.sol\";\n\ncontract Loan is ReentrancyGuard {\n    using SafeMath for uint;\n    using Address for address payable;\n\n    bytes4 private constant SELECTOR = bytes4(keccak256(bytes('transfer(address,uint256)')));\n    \n    address public borrower; // Assuming 1 borrower for now\n    address public lender; // Assuming 1 lender for now TODO support multiple lenders\n    address public loanContract;\n    address token; // The address of the token to use (eg cUSD = 0x874069Fa1Eb16D44d622F2e0Ca25eeA172369bC1)\n    // Loan level amounts\n    uint public amountRequested = 0;\n    uint public amountRaised = 0;\n    uint public amountRepaid = 0;\n    \n    // Individual level amount - will need to update with multiple lenders and borrowers\n    uint public amountLenderHasWithdraw = 0;\n    uint public amountBorrowerHasWithdraw = 0;\n    \n    //Events\n    event LentToLoan(address addr, uint amount);\n    event LoanFunded();\n    event BorrowerWithdrew(address addr, uint amount);\n    event BorrowerRepaid(address addr, uint amount);\n    event LoanRepaid();\n    event LenderWithrew(address addr, uint amount);\n\n    /**\n     * Set a single borrower, which ERC20 token the loan will be denominated in, and the amount requested\n     **/\n    constructor(\n        address payable _borrower,\n        address _token,\n        uint256 _amountRequested\n    ) {\n        borrower = _borrower;\n        token = _token;\n        amountRequested = _amountRequested;\n    }\n    \n    /**\n     * Lender transfers ERC20 token to the contract, we store how much they lent\n     **/\n    function lend(uint amount) payable public nonReentrant {\n        require(msg.sender != borrower, \"Borrower can't lend to their own loan\");\n        require(amount <= amountLeftToFund(), \"Lend amount exceeds amount left to fund\");\n        \n        // For 1 lender we require the amount to exactly equal the requested amount, we can remove this when we have multiple lenders\n        require(amount == amountLeftToFund(), \"Lend amount much equal amount left to fund\");\n        \n        amountRaised += amount;\n        lender = msg.sender;\n        \n        // TODO evaluate if this method is safe\n        ERC20(token).transferFrom(msg.sender, address(this), amount);\n        emit LentToLoan(msg.sender, amount);\n        \n        // TODO for multiple lenders we need to check if it's fully funded, for now we know it is\n        emit LoanFunded();\n    }\n    \n    function borrowerWithdraw() public nonReentrant {\n         // Only borrowers can withdraw, and only in the funded state\n        require(msg.sender == borrower, \"Only the borrower can withdraw\");\n        require(amountRaised > 0, \"Amount raised must be greater than 0\");\n        \n        // TODO for multiple borrowers we have to keep track of each one\n        require(amountBorrowerHasWithdraw < amountRaised, \"Can't withdraw more than the amount raised\");\n        \n        amountBorrowerHasWithdraw += amountRaised;\n        ERC20(token).transfer(msg.sender, amountRaised);\n        emit BorrowerWithdrew(msg.sender, amountRaised);\n    }\n    \n    function borrowerRepay(uint amount) payable public nonReentrant {\n        require(msg.sender == borrower, \"Only the borrower can repay\");\n        \n        amountRepaid += amount;\n        ERC20(token).transferFrom(msg.sender, address(this), amount);\n        emit BorrowerRepaid(msg.sender, amount);\n        if (amountLeftToRepay() <= 0) {\n            emit LoanRepaid();\n        }\n    }\n    \n    function lenderWithdraw() public nonReentrant {\n        require(msg.sender == lender, \"Only the lender can withdraw\");\n        uint amountToWithdraw = amountRepaid - amountLenderHasWithdraw;\n        require(amountToWithdraw > 0, \"Amount to withdraw must be greater than 0\");\n        \n        ERC20(token).transfer(msg.sender, amountToWithdraw);\n        \n        amountLenderHasWithdraw += amountToWithdraw;\n        emit LenderWithrew(msg.sender, amountToWithdraw);\n    }\n    \n    /* Useful constant functions */\n    \n    function amountLeftToFund() public view returns (uint) {\n        return amountRequested - amountRaised;\n    }\n    \n    function amountLeftToRepay() public view returns (uint) {\n        return amountRequested - amountRepaid;\n    }\n}",
  "sourcePath": "/Users/jsaur/projects/tmp/lova/truffle/contracts/Loan.sol",
  "compiler": {
    "name": "solc",
    "version": "0.8.9+commit.e5eed63a.Emscripten.clang"
  },
  "schemaVersion": "3.4.3",
  "updatedAt": "2021-10-12T14:35:31.704Z",
  "networkType": "ethereum",
  "devdoc": {
    "kind": "dev",
    "methods": {},
    "version": 1
  },
  "userdoc": {
    "kind": "user",
    "methods": {
      "constructor": {
        "notice": "Set a single borrower, which ERC20 token the loan will be denominated in, and the amount requested*"
      },
      "lend(uint256)": {
        "notice": "Lender transfers ERC20 token to the contract, we store how much they lent*"
      }
    },
    "version": 1
  }
}