{
  "contractName": "Lova",
  "abi": [
    {
      "inputs": [],
      "stateMutability": "nonpayable",
      "type": "constructor"
    },
    {
      "anonymous": false,
      "inputs": [
        {
          "indexed": true,
          "internalType": "address",
          "name": "account",
          "type": "address"
        },
        {
          "indexed": true,
          "internalType": "address",
          "name": "operator",
          "type": "address"
        },
        {
          "indexed": false,
          "internalType": "bool",
          "name": "approved",
          "type": "bool"
        }
      ],
      "name": "ApprovalForAll",
      "type": "event"
    },
    {
      "anonymous": false,
      "inputs": [
        {
          "indexed": false,
          "internalType": "uint256",
          "name": "loanId",
          "type": "uint256"
        },
        {
          "indexed": false,
          "internalType": "uint256",
          "name": "amount",
          "type": "uint256"
        }
      ],
      "name": "BorrowerRepaid",
      "type": "event"
    },
    {
      "anonymous": false,
      "inputs": [
        {
          "indexed": false,
          "internalType": "uint256",
          "name": "loanId",
          "type": "uint256"
        },
        {
          "indexed": false,
          "internalType": "uint256",
          "name": "amount",
          "type": "uint256"
        }
      ],
      "name": "BorrowerWithdrew",
      "type": "event"
    },
    {
      "anonymous": false,
      "inputs": [
        {
          "indexed": false,
          "internalType": "uint256",
          "name": "loanId",
          "type": "uint256"
        },
        {
          "indexed": false,
          "internalType": "address",
          "name": "addr",
          "type": "address"
        },
        {
          "indexed": false,
          "internalType": "uint256",
          "name": "amount",
          "type": "uint256"
        }
      ],
      "name": "LenderWithdrew",
      "type": "event"
    },
    {
      "anonymous": false,
      "inputs": [
        {
          "indexed": false,
          "internalType": "uint256",
          "name": "loanId",
          "type": "uint256"
        },
        {
          "indexed": false,
          "internalType": "address",
          "name": "addr",
          "type": "address"
        },
        {
          "indexed": false,
          "internalType": "uint256",
          "name": "amount",
          "type": "uint256"
        }
      ],
      "name": "LentToLoan",
      "type": "event"
    },
    {
      "anonymous": false,
      "inputs": [
        {
          "indexed": false,
          "internalType": "uint256",
          "name": "loanId",
          "type": "uint256"
        }
      ],
      "name": "LoanFunded",
      "type": "event"
    },
    {
      "anonymous": false,
      "inputs": [
        {
          "indexed": false,
          "internalType": "uint256",
          "name": "loanId",
          "type": "uint256"
        }
      ],
      "name": "LoanRepaid",
      "type": "event"
    },
    {
      "anonymous": false,
      "inputs": [
        {
          "indexed": false,
          "internalType": "uint256",
          "name": "loanId",
          "type": "uint256"
        },
        {
          "indexed": false,
          "internalType": "address",
          "name": "addr",
          "type": "address"
        },
        {
          "indexed": false,
          "internalType": "uint256",
          "name": "amount",
          "type": "uint256"
        }
      ],
      "name": "LoanRequested",
      "type": "event"
    },
    {
      "anonymous": false,
      "inputs": [
        {
          "indexed": true,
          "internalType": "address",
          "name": "previousOwner",
          "type": "address"
        },
        {
          "indexed": true,
          "internalType": "address",
          "name": "newOwner",
          "type": "address"
        }
      ],
      "name": "OwnershipTransferred",
      "type": "event"
    },
    {
      "anonymous": false,
      "inputs": [
        {
          "indexed": true,
          "internalType": "address",
          "name": "operator",
          "type": "address"
        },
        {
          "indexed": true,
          "internalType": "address",
          "name": "from",
          "type": "address"
        },
        {
          "indexed": true,
          "internalType": "address",
          "name": "to",
          "type": "address"
        },
        {
          "indexed": false,
          "internalType": "uint256[]",
          "name": "ids",
          "type": "uint256[]"
        },
        {
          "indexed": false,
          "internalType": "uint256[]",
          "name": "values",
          "type": "uint256[]"
        }
      ],
      "name": "TransferBatch",
      "type": "event"
    },
    {
      "anonymous": false,
      "inputs": [
        {
          "indexed": true,
          "internalType": "address",
          "name": "operator",
          "type": "address"
        },
        {
          "indexed": true,
          "internalType": "address",
          "name": "from",
          "type": "address"
        },
        {
          "indexed": true,
          "internalType": "address",
          "name": "to",
          "type": "address"
        },
        {
          "indexed": false,
          "internalType": "uint256",
          "name": "id",
          "type": "uint256"
        },
        {
          "indexed": false,
          "internalType": "uint256",
          "name": "value",
          "type": "uint256"
        }
      ],
      "name": "TransferSingle",
      "type": "event"
    },
    {
      "anonymous": false,
      "inputs": [
        {
          "indexed": false,
          "internalType": "string",
          "name": "value",
          "type": "string"
        },
        {
          "indexed": true,
          "internalType": "uint256",
          "name": "id",
          "type": "uint256"
        }
      ],
      "name": "URI",
      "type": "event"
    },
    {
      "inputs": [
        {
          "internalType": "address",
          "name": "account",
          "type": "address"
        },
        {
          "internalType": "uint256",
          "name": "id",
          "type": "uint256"
        }
      ],
      "name": "balanceOf",
      "outputs": [
        {
          "internalType": "uint256",
          "name": "",
          "type": "uint256"
        }
      ],
      "stateMutability": "view",
      "type": "function",
      "constant": true
    },
    {
      "inputs": [
        {
          "internalType": "address[]",
          "name": "accounts",
          "type": "address[]"
        },
        {
          "internalType": "uint256[]",
          "name": "ids",
          "type": "uint256[]"
        }
      ],
      "name": "balanceOfBatch",
      "outputs": [
        {
          "internalType": "uint256[]",
          "name": "",
          "type": "uint256[]"
        }
      ],
      "stateMutability": "view",
      "type": "function",
      "constant": true
    },
    {
      "inputs": [
        {
          "internalType": "address",
          "name": "account",
          "type": "address"
        },
        {
          "internalType": "address",
          "name": "operator",
          "type": "address"
        }
      ],
      "name": "isApprovedForAll",
      "outputs": [
        {
          "internalType": "bool",
          "name": "",
          "type": "bool"
        }
      ],
      "stateMutability": "view",
      "type": "function",
      "constant": true
    },
    {
      "inputs": [
        {
          "internalType": "address",
          "name": "",
          "type": "address"
        },
        {
          "internalType": "address",
          "name": "",
          "type": "address"
        },
        {
          "internalType": "uint256[]",
          "name": "",
          "type": "uint256[]"
        },
        {
          "internalType": "uint256[]",
          "name": "",
          "type": "uint256[]"
        },
        {
          "internalType": "bytes",
          "name": "",
          "type": "bytes"
        }
      ],
      "name": "onERC1155BatchReceived",
      "outputs": [
        {
          "internalType": "bytes4",
          "name": "",
          "type": "bytes4"
        }
      ],
      "stateMutability": "nonpayable",
      "type": "function"
    },
    {
      "inputs": [
        {
          "internalType": "address",
          "name": "",
          "type": "address"
        },
        {
          "internalType": "address",
          "name": "",
          "type": "address"
        },
        {
          "internalType": "uint256",
          "name": "",
          "type": "uint256"
        },
        {
          "internalType": "uint256",
          "name": "",
          "type": "uint256"
        },
        {
          "internalType": "bytes",
          "name": "",
          "type": "bytes"
        }
      ],
      "name": "onERC1155Received",
      "outputs": [
        {
          "internalType": "bytes4",
          "name": "",
          "type": "bytes4"
        }
      ],
      "stateMutability": "nonpayable",
      "type": "function"
    },
    {
      "inputs": [],
      "name": "owner",
      "outputs": [
        {
          "internalType": "address",
          "name": "",
          "type": "address"
        }
      ],
      "stateMutability": "view",
      "type": "function",
      "constant": true
    },
    {
      "inputs": [],
      "name": "renounceOwnership",
      "outputs": [],
      "stateMutability": "nonpayable",
      "type": "function"
    },
    {
      "inputs": [
        {
          "internalType": "address",
          "name": "from",
          "type": "address"
        },
        {
          "internalType": "address",
          "name": "to",
          "type": "address"
        },
        {
          "internalType": "uint256[]",
          "name": "ids",
          "type": "uint256[]"
        },
        {
          "internalType": "uint256[]",
          "name": "amounts",
          "type": "uint256[]"
        },
        {
          "internalType": "bytes",
          "name": "data",
          "type": "bytes"
        }
      ],
      "name": "safeBatchTransferFrom",
      "outputs": [],
      "stateMutability": "nonpayable",
      "type": "function"
    },
    {
      "inputs": [
        {
          "internalType": "address",
          "name": "from",
          "type": "address"
        },
        {
          "internalType": "address",
          "name": "to",
          "type": "address"
        },
        {
          "internalType": "uint256",
          "name": "id",
          "type": "uint256"
        },
        {
          "internalType": "uint256",
          "name": "amount",
          "type": "uint256"
        },
        {
          "internalType": "bytes",
          "name": "data",
          "type": "bytes"
        }
      ],
      "name": "safeTransferFrom",
      "outputs": [],
      "stateMutability": "nonpayable",
      "type": "function"
    },
    {
      "inputs": [
        {
          "internalType": "address",
          "name": "operator",
          "type": "address"
        },
        {
          "internalType": "bool",
          "name": "approved",
          "type": "bool"
        }
      ],
      "name": "setApprovalForAll",
      "outputs": [],
      "stateMutability": "nonpayable",
      "type": "function"
    },
    {
      "inputs": [
        {
          "internalType": "address",
          "name": "newOwner",
          "type": "address"
        }
      ],
      "name": "transferOwnership",
      "outputs": [],
      "stateMutability": "nonpayable",
      "type": "function"
    },
    {
      "inputs": [
        {
          "internalType": "uint256",
          "name": "",
          "type": "uint256"
        }
      ],
      "name": "uri",
      "outputs": [
        {
          "internalType": "string",
          "name": "",
          "type": "string"
        }
      ],
      "stateMutability": "view",
      "type": "function",
      "constant": true
    },
    {
      "inputs": [
        {
          "internalType": "bytes4",
          "name": "interfaceId",
          "type": "bytes4"
        }
      ],
      "name": "supportsInterface",
      "outputs": [
        {
          "internalType": "bool",
          "name": "",
          "type": "bool"
        }
      ],
      "stateMutability": "view",
      "type": "function",
      "constant": true
    },
    {
      "inputs": [
        {
          "internalType": "address",
          "name": "borrower",
          "type": "address"
        },
        {
          "internalType": "address",
          "name": "token",
          "type": "address"
        },
        {
          "internalType": "uint256",
          "name": "amountRequested",
          "type": "uint256"
        },
        {
          "internalType": "uint256",
          "name": "numShares",
          "type": "uint256"
        }
      ],
      "name": "mint",
      "outputs": [],
      "stateMutability": "nonpayable",
      "type": "function"
    },
    {
      "inputs": [
        {
          "internalType": "uint256",
          "name": "loanId",
          "type": "uint256"
        },
        {
          "internalType": "uint256",
          "name": "numShares",
          "type": "uint256"
        }
      ],
      "name": "lend",
      "outputs": [],
      "stateMutability": "payable",
      "type": "function",
      "payable": true
    },
    {
      "inputs": [
        {
          "internalType": "uint256",
          "name": "loanId",
          "type": "uint256"
        }
      ],
      "name": "borrow",
      "outputs": [],
      "stateMutability": "nonpayable",
      "type": "function"
    },
    {
      "inputs": [
        {
          "internalType": "uint256",
          "name": "loanId",
          "type": "uint256"
        },
        {
          "internalType": "uint256",
          "name": "amount",
          "type": "uint256"
        }
      ],
      "name": "repay",
      "outputs": [],
      "stateMutability": "payable",
      "type": "function",
      "payable": true
    },
    {
      "inputs": [
        {
          "internalType": "address",
          "name": "account",
          "type": "address"
        },
        {
          "internalType": "uint256",
          "name": "loanId",
          "type": "uint256"
        },
        {
          "internalType": "uint256",
          "name": "numShares",
          "type": "uint256"
        }
      ],
      "name": "burn",
      "outputs": [],
      "stateMutability": "nonpayable",
      "type": "function"
    },
    {
      "inputs": [
        {
          "internalType": "uint256",
          "name": "loanId",
          "type": "uint256"
        }
      ],
      "name": "sharesLeft",
      "outputs": [
        {
          "internalType": "uint256",
          "name": "",
          "type": "uint256"
        }
      ],
      "stateMutability": "view",
      "type": "function",
      "constant": true
    },
    {
      "inputs": [
        {
          "internalType": "uint256",
          "name": "loanId",
          "type": "uint256"
        }
      ],
      "name": "loanInfo",
      "outputs": [
        {
          "components": [
            {
              "internalType": "address",
              "name": "borrower",
              "type": "address"
            },
            {
              "internalType": "address",
              "name": "token",
              "type": "address"
            },
            {
              "internalType": "uint256",
              "name": "numShares",
              "type": "uint256"
            },
            {
              "internalType": "uint256",
              "name": "sharePrice",
              "type": "uint256"
            },
            {
              "internalType": "uint256",
              "name": "amountRepaid",
              "type": "uint256"
            },
            {
              "internalType": "enum Lova.State",
              "name": "currentState",
              "type": "uint8"
            }
          ],
          "internalType": "struct Lova.LoanInfo",
          "name": "",
          "type": "tuple"
        }
      ],
      "stateMutability": "view",
      "type": "function",
      "constant": true
    }
  ],
  "bytecode": "0x60806040523480156200001157600080fd5b506040518060400160405280600481526020017f4c4f56410000000000000000000000000000000000000000000000000000000081525062000059816200008060201b60201c565b506200007a6200006e6200009c60201b60201c565b620000a460201b60201c565b6200027f565b8060029080519060200190620000989291906200016a565b5050565b600033905090565b6000600360009054906101000a900473ffffffffffffffffffffffffffffffffffffffff16905081600360006101000a81548173ffffffffffffffffffffffffffffffffffffffff021916908373ffffffffffffffffffffffffffffffffffffffff1602179055508173ffffffffffffffffffffffffffffffffffffffff168173ffffffffffffffffffffffffffffffffffffffff167f8be0079c531659141344cd1fd0a4f28419497f9722a3daafe3b4186f6b6457e060405160405180910390a35050565b828054620001789062000249565b90600052602060002090601f0160209004810192826200019c5760008555620001e8565b82601f10620001b757805160ff1916838001178555620001e8565b82800160010185558215620001e8579182015b82811115620001e7578251825591602001919060010190620001ca565b5b509050620001f79190620001fb565b5090565b5b8082111562000216576000816000905550600101620001fc565b5090565b7f4e487b7100000000000000000000000000000000000000000000000000000000600052602260045260246000fd5b600060028204905060018216806200026257607f821691505b602082108114156200027957620002786200021a565b5b50919050565b6150c2806200028f6000396000f3fe60806040526004361061011e5760003560e01c8063b3f1c93d116100a0578063e985e9c511610064578063e985e9c5146103ec578063f23a6e6114610429578063f242432a14610466578063f2fde38b1461048f578063f5298aca146104b85761011e565b8063b3f1c93d14610304578063bc197c811461032d578063c5ebeaec1461036a578063c611809314610393578063d8aed145146103d05761011e565b8063715018a6116100e7578063715018a6146102405780638349d6be146102575780638da5cb5b146102945780639110df85146102bf578063a22cb465146102db5761011e565b8062fdd58e1461012357806301ffc9a7146101605780630e89341c1461019d5780632eb2c2d6146101da5780634e1273f414610203575b600080fd5b34801561012f57600080fd5b5061014a60048036038101906101459190613016565b6104e1565b6040516101579190613065565b60405180910390f35b34801561016c57600080fd5b50610187600480360381019061018291906130d8565b6105aa565b6040516101949190613120565b60405180910390f35b3480156101a957600080fd5b506101c460048036038101906101bf919061313b565b6105bc565b6040516101d19190613201565b60405180910390f35b3480156101e657600080fd5b5061020160048036038101906101fc9190613420565b610650565b005b34801561020f57600080fd5b5061022a600480360381019061022591906135b2565b6106f1565b60405161023791906136e8565b60405180910390f35b34801561024c57600080fd5b5061025561080a565b005b34801561026357600080fd5b5061027e6004803603810190610279919061313b565b610892565b60405161028b919061380b565b60405180910390f35b3480156102a057600080fd5b506102a96109c4565b6040516102b69190613835565b60405180910390f35b6102d960048036038101906102d49190613850565b6109ee565b005b3480156102e757600080fd5b5061030260048036038101906102fd91906138bc565b610e45565b005b34801561031057600080fd5b5061032b600480360381019061032691906138fc565b610fc6565b005b34801561033957600080fd5b50610354600480360381019061034f9190613420565b61127f565b6040516103619190613972565b60405180910390f35b34801561037657600080fd5b50610391600480360381019061038c919061313b565b611294565b005b34801561039f57600080fd5b506103ba60048036038101906103b5919061313b565b61153e565b6040516103c79190613065565b60405180910390f35b6103ea60048036038101906103e59190613850565b6115d1565b005b3480156103f857600080fd5b50610413600480360381019061040e919061398d565b611964565b6040516104209190613120565b60405180910390f35b34801561043557600080fd5b50610450600480360381019061044b91906139cd565b6119f8565b60405161045d9190613972565b60405180910390f35b34801561047257600080fd5b5061048d600480360381019061048891906139cd565b611a0d565b005b34801561049b57600080fd5b506104b660048036038101906104b19190613a64565b611aae565b005b3480156104c457600080fd5b506104df60048036038101906104da9190613a91565b611ba6565b005b60008073ffffffffffffffffffffffffffffffffffffffff168373ffffffffffffffffffffffffffffffffffffffff161415610552576040517f08c379a000000000000000000000000000000000000000000000000000000000815260040161054990613b56565b60405180910390fd5b60008083815260200190815260200160002060008473ffffffffffffffffffffffffffffffffffffffff1673ffffffffffffffffffffffffffffffffffffffff16815260200190815260200160002054905092915050565b60006105b582611e96565b9050919050565b6060600280546105cb90613ba5565b80601f01602080910402602001604051908101604052809291908181526020018280546105f790613ba5565b80156106445780601f1061061957610100808354040283529160200191610644565b820191906000526020600020905b81548152906001019060200180831161062757829003601f168201915b50505050509050919050565b610658611f10565b73ffffffffffffffffffffffffffffffffffffffff168573ffffffffffffffffffffffffffffffffffffffff16148061069e575061069d85610698611f10565b611964565b5b6106dd576040517f08c379a00000000000000000000000000000000000000000000000000000000081526004016106d490613c49565b60405180910390fd5b6106ea8585858585611f18565b5050505050565b60608151835114610737576040517f08c379a000000000000000000000000000000000000000000000000000000000815260040161072e90613cdb565b60405180910390fd5b6000835167ffffffffffffffff81111561075457610753613228565b5b6040519080825280602002602001820160405280156107825781602001602082028036833780820191505090505b50905060005b84518110156107ff576107cf8582815181106107a7576107a6613cfb565b5b60200260200101518583815181106107c2576107c1613cfb565b5b60200260200101516104e1565b8282815181106107e2576107e1613cfb565b5b602002602001018181525050806107f890613d59565b9050610788565b508091505092915050565b610812611f10565b73ffffffffffffffffffffffffffffffffffffffff166108306109c4565b73ffffffffffffffffffffffffffffffffffffffff1614610886576040517f08c379a000000000000000000000000000000000000000000000000000000000815260040161087d90613dee565b60405180910390fd5b610890600061222c565b565b61089a612efa565b600560008381526020019081526020016000206040518060c00160405290816000820160009054906101000a900473ffffffffffffffffffffffffffffffffffffffff1673ffffffffffffffffffffffffffffffffffffffff1673ffffffffffffffffffffffffffffffffffffffff1681526020016001820160009054906101000a900473ffffffffffffffffffffffffffffffffffffffff1673ffffffffffffffffffffffffffffffffffffffff1673ffffffffffffffffffffffffffffffffffffffff1681526020016002820154815260200160038201548152602001600482015481526020016005820160009054906101000a900460ff1660038111156109a7576109a6613719565b5b60038111156109b9576109b8613719565b5b815250509050919050565b6000600360009054906101000a900473ffffffffffffffffffffffffffffffffffffffff16905090565b60008111610a31576040517f08c379a0000000000000000000000000000000000000000000000000000000008152600401610a2890613e5a565b60405180910390fd5b6005600083815260200190815260200160002060000160009054906101000a900473ffffffffffffffffffffffffffffffffffffffff1673ffffffffffffffffffffffffffffffffffffffff163373ffffffffffffffffffffffffffffffffffffffff161415610ad6576040517f08c379a0000000000000000000000000000000000000000000000000000000008152600401610acd90613eec565b60405180910390fd5b803073ffffffffffffffffffffffffffffffffffffffff1663c6118093846040518263ffffffff1660e01b8152600401610b109190613065565b60206040518083038186803b158015610b2857600080fd5b505afa158015610b3c573d6000803e3d6000fd5b505050506040513d601f19601f82011682018060405250810190610b609190613f21565b1115610ba1576040517f08c379a0000000000000000000000000000000000000000000000000000000008152600401610b9890613f9a565b60405180910390fd5b6000600560008481526020019081526020016000206003015482610bc59190613fba565b90507f83215a4718f53a9d7de03edb5b9abd9c4b7322f77af07a7fd53a07496ae86283833383604051610bfa93929190614014565b60405180910390a1813073ffffffffffffffffffffffffffffffffffffffff1663c6118093856040518263ffffffff1660e01b8152600401610c3c9190613065565b60206040518083038186803b158015610c5457600080fd5b505afa158015610c68573d6000803e3d6000fd5b505050506040513d601f19601f82011682018060405250810190610c8c9190613f21565b1415610d095760016005600085815260200190815260200160002060050160006101000a81548160ff02191690836003811115610ccc57610ccb613719565b5b02179055507f9e71d2fb732e68272b7e74ecfd14638673c1d77e19a5d390a3ffff054d57c44b83604051610d009190613065565b60405180910390a15b6005600084815260200190815260200160002060010160009054906101000a900473ffffffffffffffffffffffffffffffffffffffff1673ffffffffffffffffffffffffffffffffffffffff166323b872dd3330846040518463ffffffff1660e01b8152600401610d7c9392919061404b565b602060405180830381600087803b158015610d9657600080fd5b505af1158015610daa573d6000803e3d6000fd5b505050506040513d601f19601f82011682018060405250810190610dce9190614097565b503073ffffffffffffffffffffffffffffffffffffffff1663f242432a303386866040518563ffffffff1660e01b8152600401610e0e94939291906140fb565b600060405180830381600087803b158015610e2857600080fd5b505af1158015610e3c573d6000803e3d6000fd5b50505050505050565b8173ffffffffffffffffffffffffffffffffffffffff16610e64611f10565b73ffffffffffffffffffffffffffffffffffffffff161415610ebb576040517f08c379a0000000000000000000000000000000000000000000000000000000008152600401610eb2906141c5565b60405180910390fd5b8060016000610ec8611f10565b73ffffffffffffffffffffffffffffffffffffffff1673ffffffffffffffffffffffffffffffffffffffff16815260200190815260200160002060008473ffffffffffffffffffffffffffffffffffffffff1673ffffffffffffffffffffffffffffffffffffffff16815260200190815260200160002060006101000a81548160ff0219169083151502179055508173ffffffffffffffffffffffffffffffffffffffff16610f75611f10565b73ffffffffffffffffffffffffffffffffffffffff167f17307eab39ab6107e8899845ad3d59bd9653f200f220920489ca2b5937696c3183604051610fba9190613120565b60405180910390a35050565b60008211611009576040517f08c379a000000000000000000000000000000000000000000000000000000000815260040161100090614257565b60405180910390fd5b6000811161104c576040517f08c379a0000000000000000000000000000000000000000000000000000000008152600401611043906142e9565b60405180910390fd5b6000818361105a9190614338565b1461109a576040517f08c379a0000000000000000000000000000000000000000000000000000000008152600401611091906143db565b60405180910390fd5b60006110a660046122f2565b9050600082846110b691906143fb565b90506040518060c001604052808773ffffffffffffffffffffffffffffffffffffffff1681526020018673ffffffffffffffffffffffffffffffffffffffff168152602001848152602001828152602001600081526020016000600381111561112257611121613719565b5b8152506005600084815260200190815260200160002060008201518160000160006101000a81548173ffffffffffffffffffffffffffffffffffffffff021916908373ffffffffffffffffffffffffffffffffffffffff16021790555060208201518160010160006101000a81548173ffffffffffffffffffffffffffffffffffffffff021916908373ffffffffffffffffffffffffffffffffffffffff16021790555060408201518160020155606082015181600301556080820151816004015560a08201518160050160006101000a81548160ff0219169083600381111561120f5761120e613719565b5b02179055509050506112216004612300565b7f97e04be2fd6414727fe9d0400464568f4384aa8b06264119565ca8f6cc2a4b7a82878660405161125493929190614014565b60405180910390a161127730838560405180602001604052806000815250612316565b505050505050565b600063bc197c8160e01b905095945050505050565b6005600082815260200190815260200160002060000160009054906101000a900473ffffffffffffffffffffffffffffffffffffffff1673ffffffffffffffffffffffffffffffffffffffff163373ffffffffffffffffffffffffffffffffffffffff1614611338576040517f08c379a000000000000000000000000000000000000000000000000000000000815260040161132f9061449e565b60405180910390fd5b6001600381111561134c5761134b613719565b5b6005600083815260200190815260200160002060050160009054906101000a900460ff16600381111561138257611381613719565b5b146113c2576040517f08c379a00000000000000000000000000000000000000000000000000000000081526004016113b99061450a565b60405180910390fd5b60026005600083815260200190815260200160002060050160006101000a81548160ff021916908360038111156113fc576113fb613719565b5b021790555060006005600083815260200190815260200160002060030154600560008481526020019081526020016000206002015461143b9190613fba565b90506005600083815260200190815260200160002060010160009054906101000a900473ffffffffffffffffffffffffffffffffffffffff1673ffffffffffffffffffffffffffffffffffffffff1663a9059cbb33836040518363ffffffff1660e01b81526004016114ae92919061452a565b602060405180830381600087803b1580156114c857600080fd5b505af11580156114dc573d6000803e3d6000fd5b505050506040513d601f19601f820116820180604052508101906115009190614097565b507f585f6e67bd2585f64dfedfcf4ea96a3483968e4e31d48dfe43ff7baecd5592af8282604051611532929190614553565b60405180910390a15050565b60003073ffffffffffffffffffffffffffffffffffffffff1662fdd58e30846040518363ffffffff1660e01b815260040161157a92919061452a565b60206040518083038186803b15801561159257600080fd5b505afa1580156115a6573d6000803e3d6000fd5b505050506040513d601f19601f820116820180604052508101906115ca9190613f21565b9050919050565b60006005600084815260200190815260200160002060030154600560008581526020019081526020016000206002015461160b9190613fba565b90506005600084815260200190815260200160002060000160009054906101000a900473ffffffffffffffffffffffffffffffffffffffff1673ffffffffffffffffffffffffffffffffffffffff163373ffffffffffffffffffffffffffffffffffffffff16146116b1576040517f08c379a00000000000000000000000000000000000000000000000000000000081526004016116a8906145c8565b60405180910390fd5b600260038111156116c5576116c4613719565b5b6005600085815260200190815260200160002060050160009054906101000a900460ff1660038111156116fb576116fa613719565b5b1461173b576040517f08c379a000000000000000000000000000000000000000000000000000000000815260040161173290614634565b60405180910390fd5b8160056000858152602001908152602001600020600401548261175e9190614654565b101561179f576040517f08c379a0000000000000000000000000000000000000000000000000000000008152600401611796906146fa565b60405180910390fd5b816005600085815260200190815260200160002060040160008282546117c5919061471a565b925050819055507f8f9d4ba78b01fd18eb0318f3ffd6c6ff9d47516ad4cf873cc5c34131bfba916e83836040516117fd929190614553565b60405180910390a1806005600085815260200190815260200160002060040154106118995760036005600085815260200190815260200160002060050160006101000a81548160ff0219169083600381111561185c5761185b613719565b5b02179055507f9a7851747cd7ffb3fe0a32caf3da48b31f27cebe131267051640f8b72fc47186836040516118909190613065565b60405180910390a15b6005600084815260200190815260200160002060010160009054906101000a900473ffffffffffffffffffffffffffffffffffffffff1673ffffffffffffffffffffffffffffffffffffffff166323b872dd3330856040518463ffffffff1660e01b815260040161190c9392919061404b565b602060405180830381600087803b15801561192657600080fd5b505af115801561193a573d6000803e3d6000fd5b505050506040513d601f19601f8201168201806040525081019061195e9190614097565b50505050565b6000600160008473ffffffffffffffffffffffffffffffffffffffff1673ffffffffffffffffffffffffffffffffffffffff16815260200190815260200160002060008373ffffffffffffffffffffffffffffffffffffffff1673ffffffffffffffffffffffffffffffffffffffff16815260200190815260200160002060009054906101000a900460ff16905092915050565b600063f23a6e6160e01b905095945050505050565b611a15611f10565b73ffffffffffffffffffffffffffffffffffffffff168573ffffffffffffffffffffffffffffffffffffffff161480611a5b5750611a5a85611a55611f10565b611964565b5b611a9a576040517f08c379a0000000000000000000000000000000000000000000000000000000008152600401611a91906147e2565b60405180910390fd5b611aa785858585856124ac565b5050505050565b611ab6611f10565b73ffffffffffffffffffffffffffffffffffffffff16611ad46109c4565b73ffffffffffffffffffffffffffffffffffffffff1614611b2a576040517f08c379a0000000000000000000000000000000000000000000000000000000008152600401611b2190613dee565b60405180910390fd5b600073ffffffffffffffffffffffffffffffffffffffff168173ffffffffffffffffffffffffffffffffffffffff161415611b9a576040517f08c379a0000000000000000000000000000000000000000000000000000000008152600401611b9190614874565b60405180910390fd5b611ba38161222c565b50565b8273ffffffffffffffffffffffffffffffffffffffff163373ffffffffffffffffffffffffffffffffffffffff161480611bed5750611bec83611be7611f10565b611964565b5b611c2c576040517f08c379a0000000000000000000000000000000000000000000000000000000008152600401611c23906147e2565b60405180910390fd5b60026003811115611c4057611c3f613719565b5b6005600084815260200190815260200160002060050160009054906101000a900460ff166003811115611c7657611c75613719565b5b1480611cc85750600380811115611c9057611c8f613719565b5b6005600084815260200190815260200160002060050160009054906101000a900460ff166003811115611cc657611cc5613719565b5b145b611d07576040517f08c379a0000000000000000000000000000000000000000000000000000000008152600401611cfe90614906565b60405180910390fd5b6000816005600085815260200190815260200160002060030154611d2b9190613fba565b90506005600084815260200190815260200160002060040154811115611d86576040517f08c379a0000000000000000000000000000000000000000000000000000000008152600401611d7d90614998565b60405180910390fd5b7f3cb476d405b930f5d4ed0e35fe4bf7542b62eba4df83466c0198e854cd36b093833383604051611db993929190614014565b60405180910390a1611dcc84848461272e565b6005600084815260200190815260200160002060010160009054906101000a900473ffffffffffffffffffffffffffffffffffffffff1673ffffffffffffffffffffffffffffffffffffffff1663a9059cbb33836040518363ffffffff1660e01b8152600401611e3d92919061452a565b602060405180830381600087803b158015611e5757600080fd5b505af1158015611e6b573d6000803e3d6000fd5b505050506040513d601f19601f82011682018060405250810190611e8f9190614097565b5050505050565b60007f4e2312e0000000000000000000000000000000000000000000000000000000007bffffffffffffffffffffffffffffffffffffffffffffffffffffffff1916827bffffffffffffffffffffffffffffffffffffffffffffffffffffffff19161480611f095750611f088261294b565b5b9050919050565b600033905090565b8151835114611f5c576040517f08c379a0000000000000000000000000000000000000000000000000000000008152600401611f5390614a2a565b60405180910390fd5b600073ffffffffffffffffffffffffffffffffffffffff168473ffffffffffffffffffffffffffffffffffffffff161415611fcc576040517f08c379a0000000000000000000000000000000000000000000000000000000008152600401611fc390614abc565b60405180910390fd5b6000611fd6611f10565b9050611fe6818787878787612a2d565b60005b845181101561219757600085828151811061200757612006613cfb565b5b60200260200101519050600085838151811061202657612025613cfb565b5b60200260200101519050600080600084815260200190815260200160002060008b73ffffffffffffffffffffffffffffffffffffffff1673ffffffffffffffffffffffffffffffffffffffff168152602001908152602001600020549050818110156120c7576040517f08c379a00000000000000000000000000000000000000000000000000000000081526004016120be90614b4e565b60405180910390fd5b81810360008085815260200190815260200160002060008c73ffffffffffffffffffffffffffffffffffffffff1673ffffffffffffffffffffffffffffffffffffffff168152602001908152602001600020819055508160008085815260200190815260200160002060008b73ffffffffffffffffffffffffffffffffffffffff1673ffffffffffffffffffffffffffffffffffffffff168152602001908152602001600020600082825461217c919061471a565b925050819055505050508061219090613d59565b9050611fe9565b508473ffffffffffffffffffffffffffffffffffffffff168673ffffffffffffffffffffffffffffffffffffffff168273ffffffffffffffffffffffffffffffffffffffff167f4a39dc06d4c0dbc64b70af90fd698a233a518aa5d07e595d983b8c0526c8f7fb878760405161220e929190614b6e565b60405180910390a4612224818787878787612a35565b505050505050565b6000600360009054906101000a900473ffffffffffffffffffffffffffffffffffffffff16905081600360006101000a81548173ffffffffffffffffffffffffffffffffffffffff021916908373ffffffffffffffffffffffffffffffffffffffff1602179055508173ffffffffffffffffffffffffffffffffffffffff168173ffffffffffffffffffffffffffffffffffffffff167f8be0079c531659141344cd1fd0a4f28419497f9722a3daafe3b4186f6b6457e060405160405180910390a35050565b600081600001549050919050565b6001816000016000828254019250508190555050565b600073ffffffffffffffffffffffffffffffffffffffff168473ffffffffffffffffffffffffffffffffffffffff161415612386576040517f08c379a000000000000000000000000000000000000000000000000000000000815260040161237d90614c17565b60405180910390fd5b6000612390611f10565b90506123b1816000876123a288612c1c565b6123ab88612c1c565b87612a2d565b8260008086815260200190815260200160002060008773ffffffffffffffffffffffffffffffffffffffff1673ffffffffffffffffffffffffffffffffffffffff1681526020019081526020016000206000828254612410919061471a565b925050819055508473ffffffffffffffffffffffffffffffffffffffff16600073ffffffffffffffffffffffffffffffffffffffff168273ffffffffffffffffffffffffffffffffffffffff167fc3d58168c5ae7397731d063d5bbf3d657854427343f4c083240f7aacaa2d0f62878760405161248e929190614553565b60405180910390a46124a581600087878787612c96565b5050505050565b600073ffffffffffffffffffffffffffffffffffffffff168473ffffffffffffffffffffffffffffffffffffffff16141561251c576040517f08c379a000000000000000000000000000000000000000000000000000000000815260040161251390614abc565b60405180910390fd5b6000612526611f10565b905061254681878761253788612c1c565b61254088612c1c565b87612a2d565b600080600086815260200190815260200160002060008873ffffffffffffffffffffffffffffffffffffffff1673ffffffffffffffffffffffffffffffffffffffff168152602001908152602001600020549050838110156125dd576040517f08c379a00000000000000000000000000000000000000000000000000000000081526004016125d490614b4e565b60405180910390fd5b83810360008087815260200190815260200160002060008973ffffffffffffffffffffffffffffffffffffffff1673ffffffffffffffffffffffffffffffffffffffff168152602001908152602001600020819055508360008087815260200190815260200160002060008873ffffffffffffffffffffffffffffffffffffffff1673ffffffffffffffffffffffffffffffffffffffff1681526020019081526020016000206000828254612692919061471a565b925050819055508573ffffffffffffffffffffffffffffffffffffffff168773ffffffffffffffffffffffffffffffffffffffff168373ffffffffffffffffffffffffffffffffffffffff167fc3d58168c5ae7397731d063d5bbf3d657854427343f4c083240f7aacaa2d0f62888860405161270f929190614553565b60405180910390a4612725828888888888612c96565b50505050505050565b600073ffffffffffffffffffffffffffffffffffffffff168373ffffffffffffffffffffffffffffffffffffffff16141561279e576040517f08c379a000000000000000000000000000000000000000000000000000000000815260040161279590614ca9565b60405180910390fd5b60006127a8611f10565b90506127d8818560006127ba87612c1c565b6127c387612c1c565b60405180602001604052806000815250612a2d565b600080600085815260200190815260200160002060008673ffffffffffffffffffffffffffffffffffffffff1673ffffffffffffffffffffffffffffffffffffffff1681526020019081526020016000205490508281101561286f576040517f08c379a000000000000000000000000000000000000000000000000000000000815260040161286690614d3b565b60405180910390fd5b82810360008086815260200190815260200160002060008773ffffffffffffffffffffffffffffffffffffffff1673ffffffffffffffffffffffffffffffffffffffff16815260200190815260200160002081905550600073ffffffffffffffffffffffffffffffffffffffff168573ffffffffffffffffffffffffffffffffffffffff168373ffffffffffffffffffffffffffffffffffffffff167fc3d58168c5ae7397731d063d5bbf3d657854427343f4c083240f7aacaa2d0f62878760405161293c929190614553565b60405180910390a45050505050565b60007fd9b67a26000000000000000000000000000000000000000000000000000000007bffffffffffffffffffffffffffffffffffffffffffffffffffffffff1916827bffffffffffffffffffffffffffffffffffffffffffffffffffffffff19161480612a1657507f0e89341c000000000000000000000000000000000000000000000000000000007bffffffffffffffffffffffffffffffffffffffffffffffffffffffff1916827bffffffffffffffffffffffffffffffffffffffffffffffffffffffff1916145b80612a265750612a2582612e7d565b5b9050919050565b505050505050565b612a548473ffffffffffffffffffffffffffffffffffffffff16612ee7565b15612c14578373ffffffffffffffffffffffffffffffffffffffff1663bc197c8187878686866040518663ffffffff1660e01b8152600401612a9a959493929190614d9f565b602060405180830381600087803b158015612ab457600080fd5b505af1925050508015612ae557506040513d601f19601f82011682018060405250810190612ae29190614e1c565b60015b612b8b57612af1614e56565b806308c379a01415612b4e5750612b06614e78565b80612b115750612b50565b806040517f08c379a0000000000000000000000000000000000000000000000000000000008152600401612b459190613201565b60405180910390fd5b505b6040517f08c379a0000000000000000000000000000000000000000000000000000000008152600401612b8290614f80565b60405180910390fd5b63bc197c8160e01b7bffffffffffffffffffffffffffffffffffffffffffffffffffffffff1916817bffffffffffffffffffffffffffffffffffffffffffffffffffffffff191614612c12576040517f08c379a0000000000000000000000000000000000000000000000000000000008152600401612c0990615012565b60405180910390fd5b505b505050505050565b60606000600167ffffffffffffffff811115612c3b57612c3a613228565b5b604051908082528060200260200182016040528015612c695781602001602082028036833780820191505090505b5090508281600081518110612c8157612c80613cfb565b5b60200260200101818152505080915050919050565b612cb58473ffffffffffffffffffffffffffffffffffffffff16612ee7565b15612e75578373ffffffffffffffffffffffffffffffffffffffff1663f23a6e6187878686866040518663ffffffff1660e01b8152600401612cfb959493929190615032565b602060405180830381600087803b158015612d1557600080fd5b505af1925050508015612d4657506040513d601f19601f82011682018060405250810190612d439190614e1c565b60015b612dec57612d52614e56565b806308c379a01415612daf5750612d67614e78565b80612d725750612db1565b806040517f08c379a0000000000000000000000000000000000000000000000000000000008152600401612da69190613201565b60405180910390fd5b505b6040517f08c379a0000000000000000000000000000000000000000000000000000000008152600401612de390614f80565b60405180910390fd5b63f23a6e6160e01b7bffffffffffffffffffffffffffffffffffffffffffffffffffffffff1916817bffffffffffffffffffffffffffffffffffffffffffffffffffffffff191614612e73576040517f08c379a0000000000000000000000000000000000000000000000000000000008152600401612e6a90615012565b60405180910390fd5b505b505050505050565b60007f01ffc9a7000000000000000000000000000000000000000000000000000000007bffffffffffffffffffffffffffffffffffffffffffffffffffffffff1916827bffffffffffffffffffffffffffffffffffffffffffffffffffffffff1916149050919050565b600080823b905060008111915050919050565b6040518060c00160405280600073ffffffffffffffffffffffffffffffffffffffff168152602001600073ffffffffffffffffffffffffffffffffffffffff16815260200160008152602001600081526020016000815260200160006003811115612f6857612f67613719565b5b81525090565b6000604051905090565b600080fd5b600080fd5b600073ffffffffffffffffffffffffffffffffffffffff82169050919050565b6000612fad82612f82565b9050919050565b612fbd81612fa2565b8114612fc857600080fd5b50565b600081359050612fda81612fb4565b92915050565b6000819050919050565b612ff381612fe0565b8114612ffe57600080fd5b50565b60008135905061301081612fea565b92915050565b6000806040838503121561302d5761302c612f78565b5b600061303b85828601612fcb565b925050602061304c85828601613001565b9150509250929050565b61305f81612fe0565b82525050565b600060208201905061307a6000830184613056565b92915050565b60007fffffffff0000000000000000000000000000000000000000000000000000000082169050919050565b6130b581613080565b81146130c057600080fd5b50565b6000813590506130d2816130ac565b92915050565b6000602082840312156130ee576130ed612f78565b5b60006130fc848285016130c3565b91505092915050565b60008115159050919050565b61311a81613105565b82525050565b60006020820190506131356000830184613111565b92915050565b60006020828403121561315157613150612f78565b5b600061315f84828501613001565b91505092915050565b600081519050919050565b600082825260208201905092915050565b60005b838110156131a2578082015181840152602081019050613187565b838111156131b1576000848401525b50505050565b6000601f19601f8301169050919050565b60006131d382613168565b6131dd8185613173565b93506131ed818560208601613184565b6131f6816131b7565b840191505092915050565b6000602082019050818103600083015261321b81846131c8565b905092915050565b600080fd5b7f4e487b7100000000000000000000000000000000000000000000000000000000600052604160045260246000fd5b613260826131b7565b810181811067ffffffffffffffff8211171561327f5761327e613228565b5b80604052505050565b6000613292612f6e565b905061329e8282613257565b919050565b600067ffffffffffffffff8211156132be576132bd613228565b5b602082029050602081019050919050565b600080fd5b60006132e76132e2846132a3565b613288565b9050808382526020820190506020840283018581111561330a576133096132cf565b5b835b81811015613333578061331f8882613001565b84526020840193505060208101905061330c565b5050509392505050565b600082601f83011261335257613351613223565b5b81356133628482602086016132d4565b91505092915050565b600080fd5b600067ffffffffffffffff82111561338b5761338a613228565b5b613394826131b7565b9050602081019050919050565b82818337600083830152505050565b60006133c36133be84613370565b613288565b9050828152602081018484840111156133df576133de61336b565b5b6133ea8482856133a1565b509392505050565b600082601f83011261340757613406613223565b5b81356134178482602086016133b0565b91505092915050565b600080600080600060a0868803121561343c5761343b612f78565b5b600061344a88828901612fcb565b955050602061345b88828901612fcb565b945050604086013567ffffffffffffffff81111561347c5761347b612f7d565b5b6134888882890161333d565b935050606086013567ffffffffffffffff8111156134a9576134a8612f7d565b5b6134b58882890161333d565b925050608086013567ffffffffffffffff8111156134d6576134d5612f7d565b5b6134e2888289016133f2565b9150509295509295909350565b600067ffffffffffffffff82111561350a57613509613228565b5b602082029050602081019050919050565b600061352e613529846134ef565b613288565b90508083825260208201905060208402830185811115613551576135506132cf565b5b835b8181101561357a57806135668882612fcb565b845260208401935050602081019050613553565b5050509392505050565b600082601f83011261359957613598613223565b5b81356135a984826020860161351b565b91505092915050565b600080604083850312156135c9576135c8612f78565b5b600083013567ffffffffffffffff8111156135e7576135e6612f7d565b5b6135f385828601613584565b925050602083013567ffffffffffffffff81111561361457613613612f7d565b5b6136208582860161333d565b9150509250929050565b600081519050919050565b600082825260208201905092915050565b6000819050602082019050919050565b61365f81612fe0565b82525050565b60006136718383613656565b60208301905092915050565b6000602082019050919050565b60006136958261362a565b61369f8185613635565b93506136aa83613646565b8060005b838110156136db5781516136c28882613665565b97506136cd8361367d565b9250506001810190506136ae565b5085935050505092915050565b60006020820190508181036000830152613702818461368a565b905092915050565b61371381612fa2565b82525050565b7f4e487b7100000000000000000000000000000000000000000000000000000000600052602160045260246000fd5b6004811061375957613758613719565b5b50565b600081905061376a82613748565b919050565b600061377a8261375c565b9050919050565b61378a8161376f565b82525050565b60c0820160008201516137a6600085018261370a565b5060208201516137b9602085018261370a565b5060408201516137cc6040850182613656565b5060608201516137df6060850182613656565b5060808201516137f26080850182613656565b5060a082015161380560a0850182613781565b50505050565b600060c0820190506138206000830184613790565b92915050565b61382f81612fa2565b82525050565b600060208201905061384a6000830184613826565b92915050565b6000806040838503121561386757613866612f78565b5b600061387585828601613001565b925050602061388685828601613001565b9150509250929050565b61389981613105565b81146138a457600080fd5b50565b6000813590506138b681613890565b92915050565b600080604083850312156138d3576138d2612f78565b5b60006138e185828601612fcb565b92505060206138f2858286016138a7565b9150509250929050565b6000806000806080858703121561391657613915612f78565b5b600061392487828801612fcb565b945050602061393587828801612fcb565b935050604061394687828801613001565b925050606061395787828801613001565b91505092959194509250565b61396c81613080565b82525050565b60006020820190506139876000830184613963565b92915050565b600080604083850312156139a4576139a3612f78565b5b60006139b285828601612fcb565b92505060206139c385828601612fcb565b9150509250929050565b600080600080600060a086880312156139e9576139e8612f78565b5b60006139f788828901612fcb565b9550506020613a0888828901612fcb565b9450506040613a1988828901613001565b9350506060613a2a88828901613001565b925050608086013567ffffffffffffffff811115613a4b57613a4a612f7d565b5b613a57888289016133f2565b9150509295509295909350565b600060208284031215613a7a57613a79612f78565b5b6000613a8884828501612fcb565b91505092915050565b600080600060608486031215613aaa57613aa9612f78565b5b6000613ab886828701612fcb565b9350506020613ac986828701613001565b9250506040613ada86828701613001565b9150509250925092565b7f455243313135353a2062616c616e636520717565727920666f7220746865207a60008201527f65726f2061646472657373000000000000000000000000000000000000000000602082015250565b6000613b40602b83613173565b9150613b4b82613ae4565b604082019050919050565b60006020820190508181036000830152613b6f81613b33565b9050919050565b7f4e487b7100000000000000000000000000000000000000000000000000000000600052602260045260246000fd5b60006002820490506001821680613bbd57607f821691505b60208210811415613bd157613bd0613b76565b5b50919050565b7f455243313135353a207472616e736665722063616c6c6572206973206e6f742060008201527f6f776e6572206e6f7220617070726f7665640000000000000000000000000000602082015250565b6000613c33603283613173565b9150613c3e82613bd7565b604082019050919050565b60006020820190508181036000830152613c6281613c26565b9050919050565b7f455243313135353a206163636f756e747320616e6420696473206c656e67746860008201527f206d69736d617463680000000000000000000000000000000000000000000000602082015250565b6000613cc5602983613173565b9150613cd082613c69565b604082019050919050565b60006020820190508181036000830152613cf481613cb8565b9050919050565b7f4e487b7100000000000000000000000000000000000000000000000000000000600052603260045260246000fd5b7f4e487b7100000000000000000000000000000000000000000000000000000000600052601160045260246000fd5b6000613d6482612fe0565b91507fffffffffffffffffffffffffffffffffffffffffffffffffffffffffffffffff821415613d9757613d96613d2a565b5b600182019050919050565b7f4f776e61626c653a2063616c6c6572206973206e6f7420746865206f776e6572600082015250565b6000613dd8602083613173565b9150613de382613da2565b602082019050919050565b60006020820190508181036000830152613e0781613dcb565b9050919050565b7f4d757374206c656e64206d6f7265207468616e20300000000000000000000000600082015250565b6000613e44601583613173565b9150613e4f82613e0e565b602082019050919050565b60006020820190508181036000830152613e7381613e37565b9050919050565b7f426f72726f7765722063616e2774206c656e6420746f207468656972206f776e60008201527f206c6f616e000000000000000000000000000000000000000000000000000000602082015250565b6000613ed6602583613173565b9150613ee182613e7a565b604082019050919050565b60006020820190508181036000830152613f0581613ec9565b9050919050565b600081519050613f1b81612fea565b92915050565b600060208284031215613f3757613f36612f78565b5b6000613f4584828501613f0c565b91505092915050565b7f4e6f7420656e6f75676820736861726573206c65667400000000000000000000600082015250565b6000613f84601683613173565b9150613f8f82613f4e565b602082019050919050565b60006020820190508181036000830152613fb381613f77565b9050919050565b6000613fc582612fe0565b9150613fd083612fe0565b9250817fffffffffffffffffffffffffffffffffffffffffffffffffffffffffffffffff048311821515161561400957614008613d2a565b5b828202905092915050565b60006060820190506140296000830186613056565b6140366020830185613826565b6140436040830184613056565b949350505050565b60006060820190506140606000830186613826565b61406d6020830185613826565b61407a6040830184613056565b949350505050565b60008151905061409181613890565b92915050565b6000602082840312156140ad576140ac612f78565b5b60006140bb84828501614082565b91505092915050565b600082825260208201905092915050565b50565b60006140e56000836140c4565b91506140f0826140d5565b600082019050919050565b600060a0820190506141106000830187613826565b61411d6020830186613826565b61412a6040830185613056565b6141376060830184613056565b8181036080830152614148816140d8565b905095945050505050565b7f455243313135353a2073657474696e6720617070726f76616c2073746174757360008201527f20666f722073656c660000000000000000000000000000000000000000000000602082015250565b60006141af602983613173565b91506141ba82614153565b604082019050919050565b600060208201905081810360008301526141de816141a2565b9050919050565b7f416d6f756e7420726571756573746564206d757374206265206772656174657260008201527f207468616e203000000000000000000000000000000000000000000000000000602082015250565b6000614241602783613173565b915061424c826141e5565b604082019050919050565b6000602082019050818103600083015261427081614234565b9050919050565b7f4e756d20736861726573206d7573742062652067726561746572207468616e2060008201527f3000000000000000000000000000000000000000000000000000000000000000602082015250565b60006142d3602183613173565b91506142de82614277565b604082019050919050565b60006020820190508181036000830152614302816142c6565b9050919050565b7f4e487b7100000000000000000000000000000000000000000000000000000000600052601260045260246000fd5b600061434382612fe0565b915061434e83612fe0565b92508261435e5761435d614309565b5b828206905092915050565b7f416d6f756e7420726571756573746564206d757374206265206469766973696260008201527f6c65206279206e756d626572206f662073686172657300000000000000000000602082015250565b60006143c5603683613173565b91506143d082614369565b604082019050919050565b600060208201905081810360008301526143f4816143b8565b9050919050565b600061440682612fe0565b915061441183612fe0565b92508261442157614420614309565b5b828204905092915050565b7f4f6e6c792074686520626f72726f7765722063616e207769746864726177207460008201527f686569722072657175657374656420616d6f756e740000000000000000000000602082015250565b6000614488603583613173565b91506144938261442c565b604082019050919050565b600060208201905081810360008301526144b78161447b565b9050919050565b7f43616e206f6e6c7920626f72726f7720696e2066756e64656420737461746500600082015250565b60006144f4601f83613173565b91506144ff826144be565b602082019050919050565b60006020820190508181036000830152614523816144e7565b9050919050565b600060408201905061453f6000830185613826565b61454c6020830184613056565b9392505050565b60006040820190506145686000830185613056565b6145756020830184613056565b9392505050565b7f4f6e6c792074686520626f72726f7765722063616e2072657061790000000000600082015250565b60006145b2601b83613173565b91506145bd8261457c565b602082019050919050565b600060208201905081810360008301526145e1816145a5565b9050919050565b7f43616e206f6e6c7920726570617920696e207265706179696e67207374617465600082015250565b600061461e602083613173565b9150614629826145e8565b602082019050919050565b6000602082019050818103600083015261464d81614611565b9050919050565b600061465f82612fe0565b915061466a83612fe0565b92508282101561467d5761467c613d2a565b5b828203905092915050565b7f43616e2774207265706179206d6f7265207468616e206c6f616e20616d6f756e60008201527f7400000000000000000000000000000000000000000000000000000000000000602082015250565b60006146e4602183613173565b91506146ef82614688565b604082019050919050565b60006020820190508181036000830152614713816146d7565b9050919050565b600061472582612fe0565b915061473083612fe0565b9250827fffffffffffffffffffffffffffffffffffffffffffffffffffffffffffffffff0382111561476557614764613d2a565b5b828201905092915050565b7f455243313135353a2063616c6c6572206973206e6f74206f776e6572206e6f7260008201527f20617070726f7665640000000000000000000000000000000000000000000000602082015250565b60006147cc602983613173565b91506147d782614770565b604082019050919050565b600060208201905081810360008301526147fb816147bf565b9050919050565b7f4f776e61626c653a206e6577206f776e657220697320746865207a65726f206160008201527f6464726573730000000000000000000000000000000000000000000000000000602082015250565b600061485e602683613173565b915061486982614802565b604082019050919050565b6000602082019050818103600083015261488d81614851565b9050919050565b7f43616e206f6e6c79206275726e20696e207265706179696e67206f722072657060008201527f6169642073746174657300000000000000000000000000000000000000000000602082015250565b60006148f0602a83613173565b91506148fb82614894565b604082019050919050565b6000602082019050818103600083015261491f816148e3565b9050919050565b7f43616e2774207769746864726177206d6f7265207468616e20616d6f756e742060008201527f7265706169640000000000000000000000000000000000000000000000000000602082015250565b6000614982602683613173565b915061498d82614926565b604082019050919050565b600060208201905081810360008301526149b181614975565b9050919050565b7f455243313135353a2069647320616e6420616d6f756e7473206c656e6774682060008201527f6d69736d61746368000000000000000000000000000000000000000000000000602082015250565b6000614a14602883613173565b9150614a1f826149b8565b604082019050919050565b60006020820190508181036000830152614a4381614a07565b9050919050565b7f455243313135353a207472616e7366657220746f20746865207a65726f20616460008201527f6472657373000000000000000000000000000000000000000000000000000000602082015250565b6000614aa6602583613173565b9150614ab182614a4a565b604082019050919050565b60006020820190508181036000830152614ad581614a99565b9050919050565b7f455243313135353a20696e73756666696369656e742062616c616e636520666f60008201527f72207472616e7366657200000000000000000000000000000000000000000000602082015250565b6000614b38602a83613173565b9150614b4382614adc565b604082019050919050565b60006020820190508181036000830152614b6781614b2b565b9050919050565b60006040820190508181036000830152614b88818561368a565b90508181036020830152614b9c818461368a565b90509392505050565b7f455243313135353a206d696e7420746f20746865207a65726f2061646472657360008201527f7300000000000000000000000000000000000000000000000000000000000000602082015250565b6000614c01602183613173565b9150614c0c82614ba5565b604082019050919050565b60006020820190508181036000830152614c3081614bf4565b9050919050565b7f455243313135353a206275726e2066726f6d20746865207a65726f206164647260008201527f6573730000000000000000000000000000000000000000000000000000000000602082015250565b6000614c93602383613173565b9150614c9e82614c37565b604082019050919050565b60006020820190508181036000830152614cc281614c86565b9050919050565b7f455243313135353a206275726e20616d6f756e7420657863656564732062616c60008201527f616e636500000000000000000000000000000000000000000000000000000000602082015250565b6000614d25602483613173565b9150614d3082614cc9565b604082019050919050565b60006020820190508181036000830152614d5481614d18565b9050919050565b600081519050919050565b6000614d7182614d5b565b614d7b81856140c4565b9350614d8b818560208601613184565b614d94816131b7565b840191505092915050565b600060a082019050614db46000830188613826565b614dc16020830187613826565b8181036040830152614dd3818661368a565b90508181036060830152614de7818561368a565b90508181036080830152614dfb8184614d66565b90509695505050505050565b600081519050614e16816130ac565b92915050565b600060208284031215614e3257614e31612f78565b5b6000614e4084828501614e07565b91505092915050565b60008160e01c9050919050565b600060033d1115614e755760046000803e614e72600051614e49565b90505b90565b600060443d1015614e8857614f0b565b614e90612f6e565b60043d036004823e80513d602482011167ffffffffffffffff82111715614eb8575050614f0b565b808201805167ffffffffffffffff811115614ed65750505050614f0b565b80602083010160043d038501811115614ef3575050505050614f0b565b614f0282602001850186613257565b82955050505050505b90565b7f455243313135353a207472616e7366657220746f206e6f6e204552433131353560008201527f526563656976657220696d706c656d656e746572000000000000000000000000602082015250565b6000614f6a603483613173565b9150614f7582614f0e565b604082019050919050565b60006020820190508181036000830152614f9981614f5d565b9050919050565b7f455243313135353a204552433131353552656365697665722072656a6563746560008201527f6420746f6b656e73000000000000000000000000000000000000000000000000602082015250565b6000614ffc602883613173565b915061500782614fa0565b604082019050919050565b6000602082019050818103600083015261502b81614fef565b9050919050565b600060a0820190506150476000830188613826565b6150546020830187613826565b6150616040830186613056565b61506e6060830185613056565b81810360808301526150808184614d66565b9050969550505050505056fea2646970667358221220e2e9f688f195ee4f9f9fd6ebd9183d73cabe4fd2181563de7ff3c605885df4dc64736f6c63430008090033",
  "immutableReferences": {},
  "source": "// SPDX-License-Identifier: Apache-2.0\npragma solidity >=0.7.0 <0.9.0;\n\nimport \"@openzeppelin/contracts/token/ERC1155/ERC1155.sol\";\nimport \"@openzeppelin/contracts/token/ERC1155/utils/ERC1155Receiver.sol\";\nimport \"@openzeppelin/contracts/token/ERC1155/utils/ERC1155Holder.sol\";\nimport \"@openzeppelin/contracts/token/ERC20/ERC20.sol\";\nimport \"@openzeppelin/contracts/access/Ownable.sol\";\nimport \"@openzeppelin/contracts/utils/Counters.sol\";\n\n/**\n * Lova is a crowd-funding marketplace for 0% interest microloans \n * We use ERC1155 since we have lots of loans which are each unique and are comprised on non-unique shares\n * ERC721 wouldn't work as it only allows one owner of each loan while we need to support multiple lenders per loan\n * \n * TODO could introduce the EXPIRED state if the loan doesn't fundraise in a set amount of time - this would allow the lenders to withdraw\n * TODO think about meta-transactions where the account sending and paying for execution may not be the actual sender\n * TODO could implement batch versions of all functions\n */\ncontract Lova is ERC1155, ERC1155Receiver, ERC1155Holder, Ownable {\n    using Counters for Counters.Counter;\n\n    // Variables\n    Counters.Counter private _loanIdCounter;\n    mapping(uint256 => LoanInfo) _loanInfo;\n    enum State {RAISING, FUNDED, REPAYING, REPAID} // TODO could add expired in raising and/or defaulted\n    struct LoanInfo {\n        address borrower;\n        address token;\n        uint256 numShares;\n        uint256 sharePrice;\n        uint256 amountRepaid;\n        State currentState;\n    }\n    \n    // Events\n    event LoanRequested(uint256 loanId, address addr, uint256 amount);\n    event LentToLoan(uint256 loanId, address addr, uint256 amount);\n    event LoanFunded(uint256 loanId);\n    event BorrowerWithdrew(uint256 loanId, uint256 amount);\n    event BorrowerRepaid(uint256 loanId, uint256 amount);\n    event LoanRepaid(uint256 loanId);\n    event LenderWithdrew(uint256 loanId, address addr, uint256 amount);\n    \n    // Functions\n    constructor() ERC1155(\"LOVA\") {}\n    \n    // TODO not 100% sure if this is right\n    function supportsInterface(bytes4 interfaceId) public view virtual override(ERC1155, ERC1155Receiver) returns (bool) {\n        return super.supportsInterface(interfaceId);\n    }\n\n    /**\n     * Called by the borrower to \"mint\" a new loan for a requested amount. All loan shares are initially owned by the contract.\n     * TODO we could hard-code a share price instead of having the borrower supply they're own numShares\n     * TODO ensure token address is a real ERC-20 token, or white-list approved tokens\n     * TODO currently hard-coding the data field to \"\", perhaps there's something more interesting to do\n     */\n    function mint(address borrower, address token, uint256 amountRequested, uint256 numShares)\n        public\n    {\n        // Checks \n        require(amountRequested > 0, \"Amount requested must be greater than 0\");\n        require(numShares > 0, \"Num shares must be greater than 0\");\n        require(amountRequested % numShares == 0, \"Amount requested must be divisible by number of shares\");\n        \n        // Effects\n        uint256 curLoanId = _loanIdCounter.current();\n        uint256 sharePrice = amountRequested / numShares;\n        _loanInfo[curLoanId] = LoanInfo({\n            borrower: borrower,\n            token: token,\n            numShares: numShares,\n            sharePrice: sharePrice,\n            currentState: State.RAISING,\n            amountRepaid: 0\n        });\n        _loanIdCounter.increment();\n        emit LoanRequested(curLoanId, borrower, amountRequested);\n        \n        // Interactions\n        _mint(address(this), curLoanId, numShares, \"\");\n    }\n    \n    /**\n     * Lender transfers ERC20 token to the contract for a specific loan, they recieve loan shares\n     * TODO it may be confusing to specify numShares, since the lender doesn't automatically know how much they're lending\n     * TODO may need to add nonReentrant\n     **/\n    function lend(uint256 loanId, uint256 numShares) payable public  {\n        // Checks\n        require(numShares > 0, \"Must lend more than 0\");\n        require(msg.sender != _loanInfo[loanId].borrower, \"Borrower can't lend to their own loan\");\n        require(this.sharesLeft(loanId) <= numShares, \"Not enough shares left\");\n        \n        // Effects\n        uint256 lendAmount = numShares * _loanInfo[loanId].sharePrice;\n        emit LentToLoan(loanId, msg.sender, lendAmount);\n        if (this.sharesLeft(loanId) == numShares) {\n            _loanInfo[loanId].currentState = State.FUNDED;\n            emit LoanFunded(loanId);\n        }\n        \n        // Interactions\n        ERC20(_loanInfo[loanId].token).transferFrom(msg.sender, address(this), lendAmount);\n        this.safeTransferFrom(address(this), msg.sender, loanId, numShares, \"\");\n    }\n    \n    /**\n     * After the loan is funded, the borrower withdraws their loan amount\n     * Note: theorectically we could do this tranfer automatically on raise, but its common practice for the sender to withdraw themselves\n     */\n    function borrow(uint256 loanId) public {\n        // Checks\n        require(msg.sender == _loanInfo[loanId].borrower, \"Only the borrower can withdraw their requested amount\");\n        require(_loanInfo[loanId].currentState == State.FUNDED, \"Can only borrow in funded state\");\n        \n        // Effects\n        _loanInfo[loanId].currentState = State.REPAYING;\n        uint256 loanAmount = _loanInfo[loanId].numShares * _loanInfo[loanId].sharePrice;\n        \n        // Interactions\n        ERC20(_loanInfo[loanId].token).transfer(msg.sender, loanAmount);\n        emit BorrowerWithdrew(loanId, loanAmount);\n    }\n    \n    /**\n     * The borrwer repays the loan, they can call this multiple times until the loan is fully repaid\n     */\n    function repay(uint256 loanId, uint256 amount) payable public {\n        // Checks\n        uint256 loanAmount = _loanInfo[loanId].numShares * _loanInfo[loanId].sharePrice;\n        require(msg.sender == _loanInfo[loanId].borrower, \"Only the borrower can repay\");\n        require(_loanInfo[loanId].currentState == State.REPAYING, \"Can only repay in repaying state\");\n        require(loanAmount - _loanInfo[loanId].amountRepaid >= amount, \"Can't repay more than loan amount\");\n        \n        // Effects\n        _loanInfo[loanId].amountRepaid += amount;\n        emit BorrowerRepaid(loanId, amount);\n        if (_loanInfo[loanId].amountRepaid >= loanAmount) {\n            _loanInfo[loanId].currentState = State.REPAID;\n            emit LoanRepaid(loanId);\n        }\n        \n        // Interactions\n        ERC20(_loanInfo[loanId].token).transferFrom(msg.sender, address(this), amount);\n    }\n    \n    /**\n     * Lenders can burn their shares to redeem the underlying loan repayments\n     * Note: this isn't ideal as it allows the first lenders to burn to retrieve all their lent amount,\n     * ideally each repayment would be distributed evenly across all loan shares, but this would invovle keeping\n     * track of a repaid amount and withrawn amount for each loan share, which is a lot of storage\n     */\n    function burn(address account, uint256 loanId, uint256 numShares) public virtual {\n        // Checks\n        require(msg.sender == account || isApprovedForAll(account, _msgSender()), \"ERC1155: caller is not owner nor approved\");\n        require(\n            _loanInfo[loanId].currentState == State.REPAYING || _loanInfo[loanId].currentState == State.REPAID, \n            \"Can only burn in repaying or repaid states\"\n        );\n        uint256 withdrawAmount = _loanInfo[loanId].sharePrice * numShares;\n        require(withdrawAmount <= _loanInfo[loanId].amountRepaid, \"Can't withdraw more than amount repaid\");\n        \n        // Effects\n        \n        emit LenderWithdrew(loanId, msg.sender, withdrawAmount);\n\n        // Interactions\n        _burn(account, loanId, numShares);\n        ERC20(_loanInfo[loanId].token).transfer(msg.sender, withdrawAmount);\n    }\n    \n    /**\n     * Convinence function to get the number of shares left to fund for a loan (ie still owned by the contract)\n     */\n    function sharesLeft(uint256 loanId) public view virtual returns (uint256) {\n        return this.balanceOf(address(this), loanId);\n    }\n    \n    function loanInfo(uint256 loanId) public view virtual returns (LoanInfo memory) {\n        return _loanInfo[loanId];\n    }\n}",
  "sourcePath": "/Users/jsaur/projects/tmp/lova/truffle/contracts/Lova.sol",
  "compiler": {
    "name": "solc",
    "version": "0.8.9+commit.e5eed63a.Emscripten.clang"
  },
  "schemaVersion": "3.4.3",
  "updatedAt": "2021-10-27T16:56:43.756Z",
  "networkType": "ethereum",
  "devdoc": {
    "kind": "dev",
    "methods": {
      "balanceOf(address,uint256)": {
        "details": "See {IERC1155-balanceOf}. Requirements: - `account` cannot be the zero address."
      },
      "balanceOfBatch(address[],uint256[])": {
        "details": "See {IERC1155-balanceOfBatch}. Requirements: - `accounts` and `ids` must have the same length."
      },
      "isApprovedForAll(address,address)": {
        "details": "See {IERC1155-isApprovedForAll}."
      },
      "owner()": {
        "details": "Returns the address of the current owner."
      },
      "renounceOwnership()": {
        "details": "Leaves the contract without owner. It will not be possible to call `onlyOwner` functions anymore. Can only be called by the current owner. NOTE: Renouncing ownership will leave the contract without an owner, thereby removing any functionality that is only available to the owner."
      },
      "safeBatchTransferFrom(address,address,uint256[],uint256[],bytes)": {
        "details": "See {IERC1155-safeBatchTransferFrom}."
      },
      "safeTransferFrom(address,address,uint256,uint256,bytes)": {
        "details": "See {IERC1155-safeTransferFrom}."
      },
      "setApprovalForAll(address,bool)": {
        "details": "See {IERC1155-setApprovalForAll}."
      },
      "transferOwnership(address)": {
        "details": "Transfers ownership of the contract to a new account (`newOwner`). Can only be called by the current owner."
      },
      "uri(uint256)": {
        "details": "See {IERC1155MetadataURI-uri}. This implementation returns the same URI for *all* token types. It relies on the token type ID substitution mechanism https://eips.ethereum.org/EIPS/eip-1155#metadata[defined in the EIP]. Clients calling this function must replace the `\\{id\\}` substring with the actual token type ID."
      }
    },
    "version": 1
  },
  "userdoc": {
    "kind": "user",
    "methods": {
      "borrow(uint256)": {
        "notice": "After the loan is funded, the borrower withdraws their loan amount Note: theorectically we could do this tranfer automatically on raise, but its common practice for the sender to withdraw themselves"
      },
      "burn(address,uint256,uint256)": {
        "notice": "Lenders can burn their shares to redeem the underlying loan repayments Note: this isn't ideal as it allows the first lenders to burn to retrieve all their lent amount, ideally each repayment would be distributed evenly across all loan shares, but this would invovle keeping track of a repaid amount and withrawn amount for each loan share, which is a lot of storage"
      },
      "lend(uint256,uint256)": {
        "notice": "Lender transfers ERC20 token to the contract for a specific loan, they recieve loan shares TODO it may be confusing to specify numShares, since the lender doesn't automatically know how much they're lending TODO may need to add nonReentrant*"
      },
      "mint(address,address,uint256,uint256)": {
        "notice": "Called by the borrower to \"mint\" a new loan for a requested amount. All loan shares are initially owned by the contract. TODO we could hard-code a share price instead of having the borrower supply they're own numShares TODO ensure token address is a real ERC-20 token, or white-list approved tokens TODO currently hard-coding the data field to \"\", perhaps there's something more interesting to do"
      },
      "repay(uint256,uint256)": {
        "notice": "The borrwer repays the loan, they can call this multiple times until the loan is fully repaid"
      },
      "sharesLeft(uint256)": {
        "notice": "Convinence function to get the number of shares left to fund for a loan (ie still owned by the contract)"
      }
    },
    "notice": "Lova is a crowd-funding marketplace for 0% interest microloans  We use ERC1155 since we have lots of loans which are each unique and are comprised on non-unique shares ERC721 wouldn't work as it only allows one owner of each loan while we need to support multiple lenders per loan  TODO could introduce the EXPIRED state if the loan doesn't fundraise in a set amount of time - this would allow the lenders to withdraw TODO think about meta-transactions where the account sending and paying for execution may not be the actual sender TODO could implement batch versions of all functions",
    "version": 1
  }
}