{
  "contractName": "Lova",
  "abi": [
    {
      "inputs": [],
      "stateMutability": "nonpayable",
      "type": "constructor"
    },
    {
      "anonymous": false,
      "inputs": [
        {
          "indexed": true,
          "internalType": "address",
          "name": "account",
          "type": "address"
        },
        {
          "indexed": true,
          "internalType": "address",
          "name": "operator",
          "type": "address"
        },
        {
          "indexed": false,
          "internalType": "bool",
          "name": "approved",
          "type": "bool"
        }
      ],
      "name": "ApprovalForAll",
      "type": "event"
    },
    {
      "anonymous": false,
      "inputs": [
        {
          "indexed": false,
          "internalType": "uint256",
          "name": "loanId",
          "type": "uint256"
        },
        {
          "indexed": false,
          "internalType": "uint256",
          "name": "amount",
          "type": "uint256"
        }
      ],
      "name": "BorrowerRepaid",
      "type": "event"
    },
    {
      "anonymous": false,
      "inputs": [
        {
          "indexed": false,
          "internalType": "uint256",
          "name": "loanId",
          "type": "uint256"
        },
        {
          "indexed": false,
          "internalType": "uint256",
          "name": "amount",
          "type": "uint256"
        }
      ],
      "name": "BorrowerWithdrew",
      "type": "event"
    },
    {
      "anonymous": false,
      "inputs": [
        {
          "indexed": false,
          "internalType": "uint256",
          "name": "loanId",
          "type": "uint256"
        },
        {
          "indexed": false,
          "internalType": "address",
          "name": "addr",
          "type": "address"
        },
        {
          "indexed": false,
          "internalType": "uint256",
          "name": "amount",
          "type": "uint256"
        }
      ],
      "name": "LenderWithdrew",
      "type": "event"
    },
    {
      "anonymous": false,
      "inputs": [
        {
          "indexed": false,
          "internalType": "uint256",
          "name": "loanId",
          "type": "uint256"
        },
        {
          "indexed": false,
          "internalType": "address",
          "name": "addr",
          "type": "address"
        },
        {
          "indexed": false,
          "internalType": "uint256",
          "name": "amount",
          "type": "uint256"
        }
      ],
      "name": "LentToLoan",
      "type": "event"
    },
    {
      "anonymous": false,
      "inputs": [
        {
          "indexed": false,
          "internalType": "uint256",
          "name": "loanId",
          "type": "uint256"
        }
      ],
      "name": "LoanFunded",
      "type": "event"
    },
    {
      "anonymous": false,
      "inputs": [
        {
          "indexed": false,
          "internalType": "uint256",
          "name": "loanId",
          "type": "uint256"
        }
      ],
      "name": "LoanRepaid",
      "type": "event"
    },
    {
      "anonymous": false,
      "inputs": [
        {
          "indexed": false,
          "internalType": "uint256",
          "name": "loanId",
          "type": "uint256"
        },
        {
          "indexed": false,
          "internalType": "address",
          "name": "addr",
          "type": "address"
        },
        {
          "indexed": false,
          "internalType": "uint256",
          "name": "amount",
          "type": "uint256"
        }
      ],
      "name": "LoanRequested",
      "type": "event"
    },
    {
      "anonymous": false,
      "inputs": [
        {
          "indexed": true,
          "internalType": "address",
          "name": "previousOwner",
          "type": "address"
        },
        {
          "indexed": true,
          "internalType": "address",
          "name": "newOwner",
          "type": "address"
        }
      ],
      "name": "OwnershipTransferred",
      "type": "event"
    },
    {
      "anonymous": false,
      "inputs": [
        {
          "indexed": true,
          "internalType": "address",
          "name": "operator",
          "type": "address"
        },
        {
          "indexed": true,
          "internalType": "address",
          "name": "from",
          "type": "address"
        },
        {
          "indexed": true,
          "internalType": "address",
          "name": "to",
          "type": "address"
        },
        {
          "indexed": false,
          "internalType": "uint256[]",
          "name": "ids",
          "type": "uint256[]"
        },
        {
          "indexed": false,
          "internalType": "uint256[]",
          "name": "values",
          "type": "uint256[]"
        }
      ],
      "name": "TransferBatch",
      "type": "event"
    },
    {
      "anonymous": false,
      "inputs": [
        {
          "indexed": true,
          "internalType": "address",
          "name": "operator",
          "type": "address"
        },
        {
          "indexed": true,
          "internalType": "address",
          "name": "from",
          "type": "address"
        },
        {
          "indexed": true,
          "internalType": "address",
          "name": "to",
          "type": "address"
        },
        {
          "indexed": false,
          "internalType": "uint256",
          "name": "id",
          "type": "uint256"
        },
        {
          "indexed": false,
          "internalType": "uint256",
          "name": "value",
          "type": "uint256"
        }
      ],
      "name": "TransferSingle",
      "type": "event"
    },
    {
      "anonymous": false,
      "inputs": [
        {
          "indexed": false,
          "internalType": "string",
          "name": "value",
          "type": "string"
        },
        {
          "indexed": true,
          "internalType": "uint256",
          "name": "id",
          "type": "uint256"
        }
      ],
      "name": "URI",
      "type": "event"
    },
    {
      "inputs": [
        {
          "internalType": "address",
          "name": "account",
          "type": "address"
        },
        {
          "internalType": "uint256",
          "name": "id",
          "type": "uint256"
        }
      ],
      "name": "balanceOf",
      "outputs": [
        {
          "internalType": "uint256",
          "name": "",
          "type": "uint256"
        }
      ],
      "stateMutability": "view",
      "type": "function",
      "constant": true
    },
    {
      "inputs": [
        {
          "internalType": "address[]",
          "name": "accounts",
          "type": "address[]"
        },
        {
          "internalType": "uint256[]",
          "name": "ids",
          "type": "uint256[]"
        }
      ],
      "name": "balanceOfBatch",
      "outputs": [
        {
          "internalType": "uint256[]",
          "name": "",
          "type": "uint256[]"
        }
      ],
      "stateMutability": "view",
      "type": "function",
      "constant": true
    },
    {
      "inputs": [
        {
          "internalType": "address",
          "name": "account",
          "type": "address"
        },
        {
          "internalType": "address",
          "name": "operator",
          "type": "address"
        }
      ],
      "name": "isApprovedForAll",
      "outputs": [
        {
          "internalType": "bool",
          "name": "",
          "type": "bool"
        }
      ],
      "stateMutability": "view",
      "type": "function",
      "constant": true
    },
    {
      "inputs": [
        {
          "internalType": "address",
          "name": "",
          "type": "address"
        },
        {
          "internalType": "address",
          "name": "",
          "type": "address"
        },
        {
          "internalType": "uint256[]",
          "name": "",
          "type": "uint256[]"
        },
        {
          "internalType": "uint256[]",
          "name": "",
          "type": "uint256[]"
        },
        {
          "internalType": "bytes",
          "name": "",
          "type": "bytes"
        }
      ],
      "name": "onERC1155BatchReceived",
      "outputs": [
        {
          "internalType": "bytes4",
          "name": "",
          "type": "bytes4"
        }
      ],
      "stateMutability": "nonpayable",
      "type": "function"
    },
    {
      "inputs": [
        {
          "internalType": "address",
          "name": "",
          "type": "address"
        },
        {
          "internalType": "address",
          "name": "",
          "type": "address"
        },
        {
          "internalType": "uint256",
          "name": "",
          "type": "uint256"
        },
        {
          "internalType": "uint256",
          "name": "",
          "type": "uint256"
        },
        {
          "internalType": "bytes",
          "name": "",
          "type": "bytes"
        }
      ],
      "name": "onERC1155Received",
      "outputs": [
        {
          "internalType": "bytes4",
          "name": "",
          "type": "bytes4"
        }
      ],
      "stateMutability": "nonpayable",
      "type": "function"
    },
    {
      "inputs": [],
      "name": "owner",
      "outputs": [
        {
          "internalType": "address",
          "name": "",
          "type": "address"
        }
      ],
      "stateMutability": "view",
      "type": "function",
      "constant": true
    },
    {
      "inputs": [],
      "name": "renounceOwnership",
      "outputs": [],
      "stateMutability": "nonpayable",
      "type": "function"
    },
    {
      "inputs": [
        {
          "internalType": "address",
          "name": "from",
          "type": "address"
        },
        {
          "internalType": "address",
          "name": "to",
          "type": "address"
        },
        {
          "internalType": "uint256[]",
          "name": "ids",
          "type": "uint256[]"
        },
        {
          "internalType": "uint256[]",
          "name": "amounts",
          "type": "uint256[]"
        },
        {
          "internalType": "bytes",
          "name": "data",
          "type": "bytes"
        }
      ],
      "name": "safeBatchTransferFrom",
      "outputs": [],
      "stateMutability": "nonpayable",
      "type": "function"
    },
    {
      "inputs": [
        {
          "internalType": "address",
          "name": "from",
          "type": "address"
        },
        {
          "internalType": "address",
          "name": "to",
          "type": "address"
        },
        {
          "internalType": "uint256",
          "name": "id",
          "type": "uint256"
        },
        {
          "internalType": "uint256",
          "name": "amount",
          "type": "uint256"
        },
        {
          "internalType": "bytes",
          "name": "data",
          "type": "bytes"
        }
      ],
      "name": "safeTransferFrom",
      "outputs": [],
      "stateMutability": "nonpayable",
      "type": "function"
    },
    {
      "inputs": [
        {
          "internalType": "address",
          "name": "operator",
          "type": "address"
        },
        {
          "internalType": "bool",
          "name": "approved",
          "type": "bool"
        }
      ],
      "name": "setApprovalForAll",
      "outputs": [],
      "stateMutability": "nonpayable",
      "type": "function"
    },
    {
      "inputs": [
        {
          "internalType": "address",
          "name": "newOwner",
          "type": "address"
        }
      ],
      "name": "transferOwnership",
      "outputs": [],
      "stateMutability": "nonpayable",
      "type": "function"
    },
    {
      "inputs": [
        {
          "internalType": "uint256",
          "name": "",
          "type": "uint256"
        }
      ],
      "name": "uri",
      "outputs": [
        {
          "internalType": "string",
          "name": "",
          "type": "string"
        }
      ],
      "stateMutability": "view",
      "type": "function",
      "constant": true
    },
    {
      "inputs": [
        {
          "internalType": "bytes4",
          "name": "interfaceId",
          "type": "bytes4"
        }
      ],
      "name": "supportsInterface",
      "outputs": [
        {
          "internalType": "bool",
          "name": "",
          "type": "bool"
        }
      ],
      "stateMutability": "view",
      "type": "function",
      "constant": true
    },
    {
      "inputs": [
        {
          "internalType": "address",
          "name": "borrower",
          "type": "address"
        },
        {
          "internalType": "address",
          "name": "token",
          "type": "address"
        },
        {
          "internalType": "uint256",
          "name": "amountRequested",
          "type": "uint256"
        },
        {
          "internalType": "uint256",
          "name": "numShares",
          "type": "uint256"
        }
      ],
      "name": "mint",
      "outputs": [],
      "stateMutability": "nonpayable",
      "type": "function"
    },
    {
      "inputs": [
        {
          "internalType": "uint256",
          "name": "loanId",
          "type": "uint256"
        },
        {
          "internalType": "uint256",
          "name": "numShares",
          "type": "uint256"
        }
      ],
      "name": "lend",
      "outputs": [],
      "stateMutability": "payable",
      "type": "function",
      "payable": true
    },
    {
      "inputs": [
        {
          "internalType": "uint256",
          "name": "loanId",
          "type": "uint256"
        }
      ],
      "name": "borrow",
      "outputs": [],
      "stateMutability": "nonpayable",
      "type": "function"
    },
    {
      "inputs": [
        {
          "internalType": "uint256",
          "name": "loanId",
          "type": "uint256"
        },
        {
          "internalType": "uint256",
          "name": "amount",
          "type": "uint256"
        }
      ],
      "name": "repay",
      "outputs": [],
      "stateMutability": "payable",
      "type": "function",
      "payable": true
    },
    {
      "inputs": [
        {
          "internalType": "address",
          "name": "account",
          "type": "address"
        },
        {
          "internalType": "uint256",
          "name": "loanId",
          "type": "uint256"
        },
        {
          "internalType": "uint256",
          "name": "numShares",
          "type": "uint256"
        }
      ],
      "name": "burn",
      "outputs": [],
      "stateMutability": "nonpayable",
      "type": "function"
    },
    {
      "inputs": [
        {
          "internalType": "uint256",
          "name": "loanId",
          "type": "uint256"
        }
      ],
      "name": "sharesLeft",
      "outputs": [
        {
          "internalType": "uint256",
          "name": "",
          "type": "uint256"
        }
      ],
      "stateMutability": "view",
      "type": "function",
      "constant": true
    },
    {
      "inputs": [
        {
          "internalType": "uint256",
          "name": "loanId",
          "type": "uint256"
        }
      ],
      "name": "loanInfo",
      "outputs": [
        {
          "components": [
            {
              "internalType": "address",
              "name": "borrower",
              "type": "address"
            },
            {
              "internalType": "address",
              "name": "token",
              "type": "address"
            },
            {
              "internalType": "uint256",
              "name": "numShares",
              "type": "uint256"
            },
            {
              "internalType": "uint256",
              "name": "sharePrice",
              "type": "uint256"
            },
            {
              "internalType": "uint256",
              "name": "amountRepaid",
              "type": "uint256"
            },
            {
              "internalType": "enum Lova.State",
              "name": "currentState",
              "type": "uint8"
            }
          ],
          "internalType": "struct Lova.LoanInfo",
          "name": "",
          "type": "tuple"
        }
      ],
      "stateMutability": "view",
      "type": "function",
      "constant": true
    },
    {
      "inputs": [],
      "name": "loanCount",
      "outputs": [
        {
          "internalType": "uint256",
          "name": "",
          "type": "uint256"
        }
      ],
      "stateMutability": "view",
      "type": "function",
      "constant": true
    }
  ],
  "bytecode": "0x60806040523480156200001157600080fd5b506040518060400160405280600481526020017f4c4f56410000000000000000000000000000000000000000000000000000000081525062000059816200008060201b60201c565b506200007a6200006e6200009c60201b60201c565b620000a460201b60201c565b6200027f565b8060029080519060200190620000989291906200016a565b5050565b600033905090565b6000600360009054906101000a900473ffffffffffffffffffffffffffffffffffffffff16905081600360006101000a81548173ffffffffffffffffffffffffffffffffffffffff021916908373ffffffffffffffffffffffffffffffffffffffff1602179055508173ffffffffffffffffffffffffffffffffffffffff168173ffffffffffffffffffffffffffffffffffffffff167f8be0079c531659141344cd1fd0a4f28419497f9722a3daafe3b4186f6b6457e060405160405180910390a35050565b828054620001789062000249565b90600052602060002090601f0160209004810192826200019c5760008555620001e8565b82601f10620001b757805160ff1916838001178555620001e8565b82800160010185558215620001e8579182015b82811115620001e7578251825591602001919060010190620001ca565b5b509050620001f79190620001fb565b5090565b5b8082111562000216576000816000905550600101620001fc565b5090565b7f4e487b7100000000000000000000000000000000000000000000000000000000600052602260045260246000fd5b600060028204905060018216806200026257607f821691505b602082108114156200027957620002786200021a565b5b50919050565b615109806200028f6000396000f3fe6080604052600436106101295760003560e01c8063b3f1c93d116100ab578063d8aed1451161006f578063d8aed14514610406578063e985e9c514610422578063f23a6e611461045f578063f242432a1461049c578063f2fde38b146104c5578063f5298aca146104ee57610129565b8063b3f1c93d1461030f578063bc197c8114610338578063c5ebeaec14610375578063c61180931461039e578063ce63094d146103db57610129565b8063715018a6116100f2578063715018a61461024b5780638349d6be146102625780638da5cb5b1461029f5780639110df85146102ca578063a22cb465146102e657610129565b8062fdd58e1461012e57806301ffc9a71461016b5780630e89341c146101a85780632eb2c2d6146101e55780634e1273f41461020e575b600080fd5b34801561013a57600080fd5b506101556004803603810190610150919061305d565b610517565b60405161016291906130ac565b60405180910390f35b34801561017757600080fd5b50610192600480360381019061018d919061311f565b6105e0565b60405161019f9190613167565b60405180910390f35b3480156101b457600080fd5b506101cf60048036038101906101ca9190613182565b6105f2565b6040516101dc9190613248565b60405180910390f35b3480156101f157600080fd5b5061020c60048036038101906102079190613467565b610686565b005b34801561021a57600080fd5b50610235600480360381019061023091906135f9565b610727565b604051610242919061372f565b60405180910390f35b34801561025757600080fd5b50610260610840565b005b34801561026e57600080fd5b5061028960048036038101906102849190613182565b6108c8565b6040516102969190613852565b60405180910390f35b3480156102ab57600080fd5b506102b46109fa565b6040516102c1919061387c565b60405180910390f35b6102e460048036038101906102df9190613897565b610a24565b005b3480156102f257600080fd5b5061030d60048036038101906103089190613903565b610e7b565b005b34801561031b57600080fd5b5061033660048036038101906103319190613943565b610ffc565b005b34801561034457600080fd5b5061035f600480360381019061035a9190613467565b6112b5565b60405161036c91906139b9565b60405180910390f35b34801561038157600080fd5b5061039c60048036038101906103979190613182565b6112ca565b005b3480156103aa57600080fd5b506103c560048036038101906103c09190613182565b611574565b6040516103d291906130ac565b60405180910390f35b3480156103e757600080fd5b506103f0611607565b6040516103fd91906130ac565b60405180910390f35b610420600480360381019061041b9190613897565b611618565b005b34801561042e57600080fd5b50610449600480360381019061044491906139d4565b6119ab565b6040516104569190613167565b60405180910390f35b34801561046b57600080fd5b5061048660048036038101906104819190613a14565b611a3f565b60405161049391906139b9565b60405180910390f35b3480156104a857600080fd5b506104c360048036038101906104be9190613a14565b611a54565b005b3480156104d157600080fd5b506104ec60048036038101906104e79190613aab565b611af5565b005b3480156104fa57600080fd5b5061051560048036038101906105109190613ad8565b611bed565b005b60008073ffffffffffffffffffffffffffffffffffffffff168373ffffffffffffffffffffffffffffffffffffffff161415610588576040517f08c379a000000000000000000000000000000000000000000000000000000000815260040161057f90613b9d565b60405180910390fd5b60008083815260200190815260200160002060008473ffffffffffffffffffffffffffffffffffffffff1673ffffffffffffffffffffffffffffffffffffffff16815260200190815260200160002054905092915050565b60006105eb82611edd565b9050919050565b60606002805461060190613bec565b80601f016020809104026020016040519081016040528092919081815260200182805461062d90613bec565b801561067a5780601f1061064f5761010080835404028352916020019161067a565b820191906000526020600020905b81548152906001019060200180831161065d57829003601f168201915b50505050509050919050565b61068e611f57565b73ffffffffffffffffffffffffffffffffffffffff168573ffffffffffffffffffffffffffffffffffffffff1614806106d457506106d3856106ce611f57565b6119ab565b5b610713576040517f08c379a000000000000000000000000000000000000000000000000000000000815260040161070a90613c90565b60405180910390fd5b6107208585858585611f5f565b5050505050565b6060815183511461076d576040517f08c379a000000000000000000000000000000000000000000000000000000000815260040161076490613d22565b60405180910390fd5b6000835167ffffffffffffffff81111561078a5761078961326f565b5b6040519080825280602002602001820160405280156107b85781602001602082028036833780820191505090505b50905060005b8451811015610835576108058582815181106107dd576107dc613d42565b5b60200260200101518583815181106107f8576107f7613d42565b5b6020026020010151610517565b82828151811061081857610817613d42565b5b6020026020010181815250508061082e90613da0565b90506107be565b508091505092915050565b610848611f57565b73ffffffffffffffffffffffffffffffffffffffff166108666109fa565b73ffffffffffffffffffffffffffffffffffffffff16146108bc576040517f08c379a00000000000000000000000000000000000000000000000000000000081526004016108b390613e35565b60405180910390fd5b6108c66000612273565b565b6108d0612f41565b600560008381526020019081526020016000206040518060c00160405290816000820160009054906101000a900473ffffffffffffffffffffffffffffffffffffffff1673ffffffffffffffffffffffffffffffffffffffff1673ffffffffffffffffffffffffffffffffffffffff1681526020016001820160009054906101000a900473ffffffffffffffffffffffffffffffffffffffff1673ffffffffffffffffffffffffffffffffffffffff1673ffffffffffffffffffffffffffffffffffffffff1681526020016002820154815260200160038201548152602001600482015481526020016005820160009054906101000a900460ff1660038111156109dd576109dc613760565b5b60038111156109ef576109ee613760565b5b815250509050919050565b6000600360009054906101000a900473ffffffffffffffffffffffffffffffffffffffff16905090565b60008111610a67576040517f08c379a0000000000000000000000000000000000000000000000000000000008152600401610a5e90613ea1565b60405180910390fd5b6005600083815260200190815260200160002060000160009054906101000a900473ffffffffffffffffffffffffffffffffffffffff1673ffffffffffffffffffffffffffffffffffffffff163373ffffffffffffffffffffffffffffffffffffffff161415610b0c576040517f08c379a0000000000000000000000000000000000000000000000000000000008152600401610b0390613f33565b60405180910390fd5b3073ffffffffffffffffffffffffffffffffffffffff1663c6118093836040518263ffffffff1660e01b8152600401610b4591906130ac565b60206040518083038186803b158015610b5d57600080fd5b505afa158015610b71573d6000803e3d6000fd5b505050506040513d601f19601f82011682018060405250810190610b959190613f68565b811115610bd7576040517f08c379a0000000000000000000000000000000000000000000000000000000008152600401610bce90613fe1565b60405180910390fd5b6000600560008481526020019081526020016000206003015482610bfb9190614001565b90507f83215a4718f53a9d7de03edb5b9abd9c4b7322f77af07a7fd53a07496ae86283833383604051610c309392919061405b565b60405180910390a1813073ffffffffffffffffffffffffffffffffffffffff1663c6118093856040518263ffffffff1660e01b8152600401610c7291906130ac565b60206040518083038186803b158015610c8a57600080fd5b505afa158015610c9e573d6000803e3d6000fd5b505050506040513d601f19601f82011682018060405250810190610cc29190613f68565b1415610d3f5760016005600085815260200190815260200160002060050160006101000a81548160ff02191690836003811115610d0257610d01613760565b5b02179055507f9e71d2fb732e68272b7e74ecfd14638673c1d77e19a5d390a3ffff054d57c44b83604051610d3691906130ac565b60405180910390a15b6005600084815260200190815260200160002060010160009054906101000a900473ffffffffffffffffffffffffffffffffffffffff1673ffffffffffffffffffffffffffffffffffffffff166323b872dd3330846040518463ffffffff1660e01b8152600401610db293929190614092565b602060405180830381600087803b158015610dcc57600080fd5b505af1158015610de0573d6000803e3d6000fd5b505050506040513d601f19601f82011682018060405250810190610e0491906140de565b503073ffffffffffffffffffffffffffffffffffffffff1663f242432a303386866040518563ffffffff1660e01b8152600401610e449493929190614142565b600060405180830381600087803b158015610e5e57600080fd5b505af1158015610e72573d6000803e3d6000fd5b50505050505050565b8173ffffffffffffffffffffffffffffffffffffffff16610e9a611f57565b73ffffffffffffffffffffffffffffffffffffffff161415610ef1576040517f08c379a0000000000000000000000000000000000000000000000000000000008152600401610ee89061420c565b60405180910390fd5b8060016000610efe611f57565b73ffffffffffffffffffffffffffffffffffffffff1673ffffffffffffffffffffffffffffffffffffffff16815260200190815260200160002060008473ffffffffffffffffffffffffffffffffffffffff1673ffffffffffffffffffffffffffffffffffffffff16815260200190815260200160002060006101000a81548160ff0219169083151502179055508173ffffffffffffffffffffffffffffffffffffffff16610fab611f57565b73ffffffffffffffffffffffffffffffffffffffff167f17307eab39ab6107e8899845ad3d59bd9653f200f220920489ca2b5937696c3183604051610ff09190613167565b60405180910390a35050565b6000821161103f576040517f08c379a00000000000000000000000000000000000000000000000000000000081526004016110369061429e565b60405180910390fd5b60008111611082576040517f08c379a000000000000000000000000000000000000000000000000000000000815260040161107990614330565b60405180910390fd5b60008183611090919061437f565b146110d0576040517f08c379a00000000000000000000000000000000000000000000000000000000081526004016110c790614422565b60405180910390fd5b60006110dc6004612339565b9050600082846110ec9190614442565b90506040518060c001604052808773ffffffffffffffffffffffffffffffffffffffff1681526020018673ffffffffffffffffffffffffffffffffffffffff168152602001848152602001828152602001600081526020016000600381111561115857611157613760565b5b8152506005600084815260200190815260200160002060008201518160000160006101000a81548173ffffffffffffffffffffffffffffffffffffffff021916908373ffffffffffffffffffffffffffffffffffffffff16021790555060208201518160010160006101000a81548173ffffffffffffffffffffffffffffffffffffffff021916908373ffffffffffffffffffffffffffffffffffffffff16021790555060408201518160020155606082015181600301556080820151816004015560a08201518160050160006101000a81548160ff0219169083600381111561124557611244613760565b5b02179055509050506112576004612347565b7f97e04be2fd6414727fe9d0400464568f4384aa8b06264119565ca8f6cc2a4b7a82878660405161128a9392919061405b565b60405180910390a16112ad3083856040518060200160405280600081525061235d565b505050505050565b600063bc197c8160e01b905095945050505050565b6005600082815260200190815260200160002060000160009054906101000a900473ffffffffffffffffffffffffffffffffffffffff1673ffffffffffffffffffffffffffffffffffffffff163373ffffffffffffffffffffffffffffffffffffffff161461136e576040517f08c379a0000000000000000000000000000000000000000000000000000000008152600401611365906144e5565b60405180910390fd5b6001600381111561138257611381613760565b5b6005600083815260200190815260200160002060050160009054906101000a900460ff1660038111156113b8576113b7613760565b5b146113f8576040517f08c379a00000000000000000000000000000000000000000000000000000000081526004016113ef90614551565b60405180910390fd5b60026005600083815260200190815260200160002060050160006101000a81548160ff0219169083600381111561143257611431613760565b5b02179055506000600560008381526020019081526020016000206003015460056000848152602001908152602001600020600201546114719190614001565b90506005600083815260200190815260200160002060010160009054906101000a900473ffffffffffffffffffffffffffffffffffffffff1673ffffffffffffffffffffffffffffffffffffffff1663a9059cbb33836040518363ffffffff1660e01b81526004016114e4929190614571565b602060405180830381600087803b1580156114fe57600080fd5b505af1158015611512573d6000803e3d6000fd5b505050506040513d601f19601f8201168201806040525081019061153691906140de565b507f585f6e67bd2585f64dfedfcf4ea96a3483968e4e31d48dfe43ff7baecd5592af828260405161156892919061459a565b60405180910390a15050565b60003073ffffffffffffffffffffffffffffffffffffffff1662fdd58e30846040518363ffffffff1660e01b81526004016115b0929190614571565b60206040518083038186803b1580156115c857600080fd5b505afa1580156115dc573d6000803e3d6000fd5b505050506040513d601f19601f820116820180604052508101906116009190613f68565b9050919050565b60006116136004612339565b905090565b6000600560008481526020019081526020016000206003015460056000858152602001908152602001600020600201546116529190614001565b90506005600084815260200190815260200160002060000160009054906101000a900473ffffffffffffffffffffffffffffffffffffffff1673ffffffffffffffffffffffffffffffffffffffff163373ffffffffffffffffffffffffffffffffffffffff16146116f8576040517f08c379a00000000000000000000000000000000000000000000000000000000081526004016116ef9061460f565b60405180910390fd5b6002600381111561170c5761170b613760565b5b6005600085815260200190815260200160002060050160009054906101000a900460ff16600381111561174257611741613760565b5b14611782576040517f08c379a00000000000000000000000000000000000000000000000000000000081526004016117799061467b565b60405180910390fd5b816005600085815260200190815260200160002060040154826117a5919061469b565b10156117e6576040517f08c379a00000000000000000000000000000000000000000000000000000000081526004016117dd90614741565b60405180910390fd5b8160056000858152602001908152602001600020600401600082825461180c9190614761565b925050819055507f8f9d4ba78b01fd18eb0318f3ffd6c6ff9d47516ad4cf873cc5c34131bfba916e838360405161184492919061459a565b60405180910390a1806005600085815260200190815260200160002060040154106118e05760036005600085815260200190815260200160002060050160006101000a81548160ff021916908360038111156118a3576118a2613760565b5b02179055507f9a7851747cd7ffb3fe0a32caf3da48b31f27cebe131267051640f8b72fc47186836040516118d791906130ac565b60405180910390a15b6005600084815260200190815260200160002060010160009054906101000a900473ffffffffffffffffffffffffffffffffffffffff1673ffffffffffffffffffffffffffffffffffffffff166323b872dd3330856040518463ffffffff1660e01b815260040161195393929190614092565b602060405180830381600087803b15801561196d57600080fd5b505af1158015611981573d6000803e3d6000fd5b505050506040513d601f19601f820116820180604052508101906119a591906140de565b50505050565b6000600160008473ffffffffffffffffffffffffffffffffffffffff1673ffffffffffffffffffffffffffffffffffffffff16815260200190815260200160002060008373ffffffffffffffffffffffffffffffffffffffff1673ffffffffffffffffffffffffffffffffffffffff16815260200190815260200160002060009054906101000a900460ff16905092915050565b600063f23a6e6160e01b905095945050505050565b611a5c611f57565b73ffffffffffffffffffffffffffffffffffffffff168573ffffffffffffffffffffffffffffffffffffffff161480611aa25750611aa185611a9c611f57565b6119ab565b5b611ae1576040517f08c379a0000000000000000000000000000000000000000000000000000000008152600401611ad890614829565b60405180910390fd5b611aee85858585856124f3565b5050505050565b611afd611f57565b73ffffffffffffffffffffffffffffffffffffffff16611b1b6109fa565b73ffffffffffffffffffffffffffffffffffffffff1614611b71576040517f08c379a0000000000000000000000000000000000000000000000000000000008152600401611b6890613e35565b60405180910390fd5b600073ffffffffffffffffffffffffffffffffffffffff168173ffffffffffffffffffffffffffffffffffffffff161415611be1576040517f08c379a0000000000000000000000000000000000000000000000000000000008152600401611bd8906148bb565b60405180910390fd5b611bea81612273565b50565b8273ffffffffffffffffffffffffffffffffffffffff163373ffffffffffffffffffffffffffffffffffffffff161480611c345750611c3383611c2e611f57565b6119ab565b5b611c73576040517f08c379a0000000000000000000000000000000000000000000000000000000008152600401611c6a90614829565b60405180910390fd5b60026003811115611c8757611c86613760565b5b6005600084815260200190815260200160002060050160009054906101000a900460ff166003811115611cbd57611cbc613760565b5b1480611d0f5750600380811115611cd757611cd6613760565b5b6005600084815260200190815260200160002060050160009054906101000a900460ff166003811115611d0d57611d0c613760565b5b145b611d4e576040517f08c379a0000000000000000000000000000000000000000000000000000000008152600401611d459061494d565b60405180910390fd5b6000816005600085815260200190815260200160002060030154611d729190614001565b90506005600084815260200190815260200160002060040154811115611dcd576040517f08c379a0000000000000000000000000000000000000000000000000000000008152600401611dc4906149df565b60405180910390fd5b7f3cb476d405b930f5d4ed0e35fe4bf7542b62eba4df83466c0198e854cd36b093833383604051611e009392919061405b565b60405180910390a1611e13848484612775565b6005600084815260200190815260200160002060010160009054906101000a900473ffffffffffffffffffffffffffffffffffffffff1673ffffffffffffffffffffffffffffffffffffffff1663a9059cbb33836040518363ffffffff1660e01b8152600401611e84929190614571565b602060405180830381600087803b158015611e9e57600080fd5b505af1158015611eb2573d6000803e3d6000fd5b505050506040513d601f19601f82011682018060405250810190611ed691906140de565b5050505050565b60007f4e2312e0000000000000000000000000000000000000000000000000000000007bffffffffffffffffffffffffffffffffffffffffffffffffffffffff1916827bffffffffffffffffffffffffffffffffffffffffffffffffffffffff19161480611f505750611f4f82612992565b5b9050919050565b600033905090565b8151835114611fa3576040517f08c379a0000000000000000000000000000000000000000000000000000000008152600401611f9a90614a71565b60405180910390fd5b600073ffffffffffffffffffffffffffffffffffffffff168473ffffffffffffffffffffffffffffffffffffffff161415612013576040517f08c379a000000000000000000000000000000000000000000000000000000000815260040161200a90614b03565b60405180910390fd5b600061201d611f57565b905061202d818787878787612a74565b60005b84518110156121de57600085828151811061204e5761204d613d42565b5b60200260200101519050600085838151811061206d5761206c613d42565b5b60200260200101519050600080600084815260200190815260200160002060008b73ffffffffffffffffffffffffffffffffffffffff1673ffffffffffffffffffffffffffffffffffffffff1681526020019081526020016000205490508181101561210e576040517f08c379a000000000000000000000000000000000000000000000000000000000815260040161210590614b95565b60405180910390fd5b81810360008085815260200190815260200160002060008c73ffffffffffffffffffffffffffffffffffffffff1673ffffffffffffffffffffffffffffffffffffffff168152602001908152602001600020819055508160008085815260200190815260200160002060008b73ffffffffffffffffffffffffffffffffffffffff1673ffffffffffffffffffffffffffffffffffffffff16815260200190815260200160002060008282546121c39190614761565b92505081905550505050806121d790613da0565b9050612030565b508473ffffffffffffffffffffffffffffffffffffffff168673ffffffffffffffffffffffffffffffffffffffff168273ffffffffffffffffffffffffffffffffffffffff167f4a39dc06d4c0dbc64b70af90fd698a233a518aa5d07e595d983b8c0526c8f7fb8787604051612255929190614bb5565b60405180910390a461226b818787878787612a7c565b505050505050565b6000600360009054906101000a900473ffffffffffffffffffffffffffffffffffffffff16905081600360006101000a81548173ffffffffffffffffffffffffffffffffffffffff021916908373ffffffffffffffffffffffffffffffffffffffff1602179055508173ffffffffffffffffffffffffffffffffffffffff168173ffffffffffffffffffffffffffffffffffffffff167f8be0079c531659141344cd1fd0a4f28419497f9722a3daafe3b4186f6b6457e060405160405180910390a35050565b600081600001549050919050565b6001816000016000828254019250508190555050565b600073ffffffffffffffffffffffffffffffffffffffff168473ffffffffffffffffffffffffffffffffffffffff1614156123cd576040517f08c379a00000000000000000000000000000000000000000000000000000000081526004016123c490614c5e565b60405180910390fd5b60006123d7611f57565b90506123f8816000876123e988612c63565b6123f288612c63565b87612a74565b8260008086815260200190815260200160002060008773ffffffffffffffffffffffffffffffffffffffff1673ffffffffffffffffffffffffffffffffffffffff16815260200190815260200160002060008282546124579190614761565b925050819055508473ffffffffffffffffffffffffffffffffffffffff16600073ffffffffffffffffffffffffffffffffffffffff168273ffffffffffffffffffffffffffffffffffffffff167fc3d58168c5ae7397731d063d5bbf3d657854427343f4c083240f7aacaa2d0f6287876040516124d592919061459a565b60405180910390a46124ec81600087878787612cdd565b5050505050565b600073ffffffffffffffffffffffffffffffffffffffff168473ffffffffffffffffffffffffffffffffffffffff161415612563576040517f08c379a000000000000000000000000000000000000000000000000000000000815260040161255a90614b03565b60405180910390fd5b600061256d611f57565b905061258d81878761257e88612c63565b61258788612c63565b87612a74565b600080600086815260200190815260200160002060008873ffffffffffffffffffffffffffffffffffffffff1673ffffffffffffffffffffffffffffffffffffffff16815260200190815260200160002054905083811015612624576040517f08c379a000000000000000000000000000000000000000000000000000000000815260040161261b90614b95565b60405180910390fd5b83810360008087815260200190815260200160002060008973ffffffffffffffffffffffffffffffffffffffff1673ffffffffffffffffffffffffffffffffffffffff168152602001908152602001600020819055508360008087815260200190815260200160002060008873ffffffffffffffffffffffffffffffffffffffff1673ffffffffffffffffffffffffffffffffffffffff16815260200190815260200160002060008282546126d99190614761565b925050819055508573ffffffffffffffffffffffffffffffffffffffff168773ffffffffffffffffffffffffffffffffffffffff168373ffffffffffffffffffffffffffffffffffffffff167fc3d58168c5ae7397731d063d5bbf3d657854427343f4c083240f7aacaa2d0f62888860405161275692919061459a565b60405180910390a461276c828888888888612cdd565b50505050505050565b600073ffffffffffffffffffffffffffffffffffffffff168373ffffffffffffffffffffffffffffffffffffffff1614156127e5576040517f08c379a00000000000000000000000000000000000000000000000000000000081526004016127dc90614cf0565b60405180910390fd5b60006127ef611f57565b905061281f8185600061280187612c63565b61280a87612c63565b60405180602001604052806000815250612a74565b600080600085815260200190815260200160002060008673ffffffffffffffffffffffffffffffffffffffff1673ffffffffffffffffffffffffffffffffffffffff168152602001908152602001600020549050828110156128b6576040517f08c379a00000000000000000000000000000000000000000000000000000000081526004016128ad90614d82565b60405180910390fd5b82810360008086815260200190815260200160002060008773ffffffffffffffffffffffffffffffffffffffff1673ffffffffffffffffffffffffffffffffffffffff16815260200190815260200160002081905550600073ffffffffffffffffffffffffffffffffffffffff168573ffffffffffffffffffffffffffffffffffffffff168373ffffffffffffffffffffffffffffffffffffffff167fc3d58168c5ae7397731d063d5bbf3d657854427343f4c083240f7aacaa2d0f62878760405161298392919061459a565b60405180910390a45050505050565b60007fd9b67a26000000000000000000000000000000000000000000000000000000007bffffffffffffffffffffffffffffffffffffffffffffffffffffffff1916827bffffffffffffffffffffffffffffffffffffffffffffffffffffffff19161480612a5d57507f0e89341c000000000000000000000000000000000000000000000000000000007bffffffffffffffffffffffffffffffffffffffffffffffffffffffff1916827bffffffffffffffffffffffffffffffffffffffffffffffffffffffff1916145b80612a6d5750612a6c82612ec4565b5b9050919050565b505050505050565b612a9b8473ffffffffffffffffffffffffffffffffffffffff16612f2e565b15612c5b578373ffffffffffffffffffffffffffffffffffffffff1663bc197c8187878686866040518663ffffffff1660e01b8152600401612ae1959493929190614de6565b602060405180830381600087803b158015612afb57600080fd5b505af1925050508015612b2c57506040513d601f19601f82011682018060405250810190612b299190614e63565b60015b612bd257612b38614e9d565b806308c379a01415612b955750612b4d614ebf565b80612b585750612b97565b806040517f08c379a0000000000000000000000000000000000000000000000000000000008152600401612b8c9190613248565b60405180910390fd5b505b6040517f08c379a0000000000000000000000000000000000000000000000000000000008152600401612bc990614fc7565b60405180910390fd5b63bc197c8160e01b7bffffffffffffffffffffffffffffffffffffffffffffffffffffffff1916817bffffffffffffffffffffffffffffffffffffffffffffffffffffffff191614612c59576040517f08c379a0000000000000000000000000000000000000000000000000000000008152600401612c5090615059565b60405180910390fd5b505b505050505050565b60606000600167ffffffffffffffff811115612c8257612c8161326f565b5b604051908082528060200260200182016040528015612cb05781602001602082028036833780820191505090505b5090508281600081518110612cc857612cc7613d42565b5b60200260200101818152505080915050919050565b612cfc8473ffffffffffffffffffffffffffffffffffffffff16612f2e565b15612ebc578373ffffffffffffffffffffffffffffffffffffffff1663f23a6e6187878686866040518663ffffffff1660e01b8152600401612d42959493929190615079565b602060405180830381600087803b158015612d5c57600080fd5b505af1925050508015612d8d57506040513d601f19601f82011682018060405250810190612d8a9190614e63565b60015b612e3357612d99614e9d565b806308c379a01415612df65750612dae614ebf565b80612db95750612df8565b806040517f08c379a0000000000000000000000000000000000000000000000000000000008152600401612ded9190613248565b60405180910390fd5b505b6040517f08c379a0000000000000000000000000000000000000000000000000000000008152600401612e2a90614fc7565b60405180910390fd5b63f23a6e6160e01b7bffffffffffffffffffffffffffffffffffffffffffffffffffffffff1916817bffffffffffffffffffffffffffffffffffffffffffffffffffffffff191614612eba576040517f08c379a0000000000000000000000000000000000000000000000000000000008152600401612eb190615059565b60405180910390fd5b505b505050505050565b60007f01ffc9a7000000000000000000000000000000000000000000000000000000007bffffffffffffffffffffffffffffffffffffffffffffffffffffffff1916827bffffffffffffffffffffffffffffffffffffffffffffffffffffffff1916149050919050565b600080823b905060008111915050919050565b6040518060c00160405280600073ffffffffffffffffffffffffffffffffffffffff168152602001600073ffffffffffffffffffffffffffffffffffffffff16815260200160008152602001600081526020016000815260200160006003811115612faf57612fae613760565b5b81525090565b6000604051905090565b600080fd5b600080fd5b600073ffffffffffffffffffffffffffffffffffffffff82169050919050565b6000612ff482612fc9565b9050919050565b61300481612fe9565b811461300f57600080fd5b50565b60008135905061302181612ffb565b92915050565b6000819050919050565b61303a81613027565b811461304557600080fd5b50565b60008135905061305781613031565b92915050565b6000806040838503121561307457613073612fbf565b5b600061308285828601613012565b925050602061309385828601613048565b9150509250929050565b6130a681613027565b82525050565b60006020820190506130c1600083018461309d565b92915050565b60007fffffffff0000000000000000000000000000000000000000000000000000000082169050919050565b6130fc816130c7565b811461310757600080fd5b50565b600081359050613119816130f3565b92915050565b60006020828403121561313557613134612fbf565b5b60006131438482850161310a565b91505092915050565b60008115159050919050565b6131618161314c565b82525050565b600060208201905061317c6000830184613158565b92915050565b60006020828403121561319857613197612fbf565b5b60006131a684828501613048565b91505092915050565b600081519050919050565b600082825260208201905092915050565b60005b838110156131e95780820151818401526020810190506131ce565b838111156131f8576000848401525b50505050565b6000601f19601f8301169050919050565b600061321a826131af565b61322481856131ba565b93506132348185602086016131cb565b61323d816131fe565b840191505092915050565b60006020820190508181036000830152613262818461320f565b905092915050565b600080fd5b7f4e487b7100000000000000000000000000000000000000000000000000000000600052604160045260246000fd5b6132a7826131fe565b810181811067ffffffffffffffff821117156132c6576132c561326f565b5b80604052505050565b60006132d9612fb5565b90506132e5828261329e565b919050565b600067ffffffffffffffff8211156133055761330461326f565b5b602082029050602081019050919050565b600080fd5b600061332e613329846132ea565b6132cf565b9050808382526020820190506020840283018581111561335157613350613316565b5b835b8181101561337a57806133668882613048565b845260208401935050602081019050613353565b5050509392505050565b600082601f8301126133995761339861326a565b5b81356133a984826020860161331b565b91505092915050565b600080fd5b600067ffffffffffffffff8211156133d2576133d161326f565b5b6133db826131fe565b9050602081019050919050565b82818337600083830152505050565b600061340a613405846133b7565b6132cf565b905082815260208101848484011115613426576134256133b2565b5b6134318482856133e8565b509392505050565b600082601f83011261344e5761344d61326a565b5b813561345e8482602086016133f7565b91505092915050565b600080600080600060a0868803121561348357613482612fbf565b5b600061349188828901613012565b95505060206134a288828901613012565b945050604086013567ffffffffffffffff8111156134c3576134c2612fc4565b5b6134cf88828901613384565b935050606086013567ffffffffffffffff8111156134f0576134ef612fc4565b5b6134fc88828901613384565b925050608086013567ffffffffffffffff81111561351d5761351c612fc4565b5b61352988828901613439565b9150509295509295909350565b600067ffffffffffffffff8211156135515761355061326f565b5b602082029050602081019050919050565b600061357561357084613536565b6132cf565b9050808382526020820190506020840283018581111561359857613597613316565b5b835b818110156135c157806135ad8882613012565b84526020840193505060208101905061359a565b5050509392505050565b600082601f8301126135e0576135df61326a565b5b81356135f0848260208601613562565b91505092915050565b600080604083850312156136105761360f612fbf565b5b600083013567ffffffffffffffff81111561362e5761362d612fc4565b5b61363a858286016135cb565b925050602083013567ffffffffffffffff81111561365b5761365a612fc4565b5b61366785828601613384565b9150509250929050565b600081519050919050565b600082825260208201905092915050565b6000819050602082019050919050565b6136a681613027565b82525050565b60006136b8838361369d565b60208301905092915050565b6000602082019050919050565b60006136dc82613671565b6136e6818561367c565b93506136f18361368d565b8060005b8381101561372257815161370988826136ac565b9750613714836136c4565b9250506001810190506136f5565b5085935050505092915050565b6000602082019050818103600083015261374981846136d1565b905092915050565b61375a81612fe9565b82525050565b7f4e487b7100000000000000000000000000000000000000000000000000000000600052602160045260246000fd5b600481106137a05761379f613760565b5b50565b60008190506137b18261378f565b919050565b60006137c1826137a3565b9050919050565b6137d1816137b6565b82525050565b60c0820160008201516137ed6000850182613751565b5060208201516138006020850182613751565b506040820151613813604085018261369d565b506060820151613826606085018261369d565b506080820151613839608085018261369d565b5060a082015161384c60a08501826137c8565b50505050565b600060c08201905061386760008301846137d7565b92915050565b61387681612fe9565b82525050565b6000602082019050613891600083018461386d565b92915050565b600080604083850312156138ae576138ad612fbf565b5b60006138bc85828601613048565b92505060206138cd85828601613048565b9150509250929050565b6138e08161314c565b81146138eb57600080fd5b50565b6000813590506138fd816138d7565b92915050565b6000806040838503121561391a57613919612fbf565b5b600061392885828601613012565b9250506020613939858286016138ee565b9150509250929050565b6000806000806080858703121561395d5761395c612fbf565b5b600061396b87828801613012565b945050602061397c87828801613012565b935050604061398d87828801613048565b925050606061399e87828801613048565b91505092959194509250565b6139b3816130c7565b82525050565b60006020820190506139ce60008301846139aa565b92915050565b600080604083850312156139eb576139ea612fbf565b5b60006139f985828601613012565b9250506020613a0a85828601613012565b9150509250929050565b600080600080600060a08688031215613a3057613a2f612fbf565b5b6000613a3e88828901613012565b9550506020613a4f88828901613012565b9450506040613a6088828901613048565b9350506060613a7188828901613048565b925050608086013567ffffffffffffffff811115613a9257613a91612fc4565b5b613a9e88828901613439565b9150509295509295909350565b600060208284031215613ac157613ac0612fbf565b5b6000613acf84828501613012565b91505092915050565b600080600060608486031215613af157613af0612fbf565b5b6000613aff86828701613012565b9350506020613b1086828701613048565b9250506040613b2186828701613048565b9150509250925092565b7f455243313135353a2062616c616e636520717565727920666f7220746865207a60008201527f65726f2061646472657373000000000000000000000000000000000000000000602082015250565b6000613b87602b836131ba565b9150613b9282613b2b565b604082019050919050565b60006020820190508181036000830152613bb681613b7a565b9050919050565b7f4e487b7100000000000000000000000000000000000000000000000000000000600052602260045260246000fd5b60006002820490506001821680613c0457607f821691505b60208210811415613c1857613c17613bbd565b5b50919050565b7f455243313135353a207472616e736665722063616c6c6572206973206e6f742060008201527f6f776e6572206e6f7220617070726f7665640000000000000000000000000000602082015250565b6000613c7a6032836131ba565b9150613c8582613c1e565b604082019050919050565b60006020820190508181036000830152613ca981613c6d565b9050919050565b7f455243313135353a206163636f756e747320616e6420696473206c656e67746860008201527f206d69736d617463680000000000000000000000000000000000000000000000602082015250565b6000613d0c6029836131ba565b9150613d1782613cb0565b604082019050919050565b60006020820190508181036000830152613d3b81613cff565b9050919050565b7f4e487b7100000000000000000000000000000000000000000000000000000000600052603260045260246000fd5b7f4e487b7100000000000000000000000000000000000000000000000000000000600052601160045260246000fd5b6000613dab82613027565b91507fffffffffffffffffffffffffffffffffffffffffffffffffffffffffffffffff821415613dde57613ddd613d71565b5b600182019050919050565b7f4f776e61626c653a2063616c6c6572206973206e6f7420746865206f776e6572600082015250565b6000613e1f6020836131ba565b9150613e2a82613de9565b602082019050919050565b60006020820190508181036000830152613e4e81613e12565b9050919050565b7f4d757374206c656e64206d6f7265207468616e20300000000000000000000000600082015250565b6000613e8b6015836131ba565b9150613e9682613e55565b602082019050919050565b60006020820190508181036000830152613eba81613e7e565b9050919050565b7f426f72726f7765722063616e2774206c656e6420746f207468656972206f776e60008201527f206c6f616e000000000000000000000000000000000000000000000000000000602082015250565b6000613f1d6025836131ba565b9150613f2882613ec1565b604082019050919050565b60006020820190508181036000830152613f4c81613f10565b9050919050565b600081519050613f6281613031565b92915050565b600060208284031215613f7e57613f7d612fbf565b5b6000613f8c84828501613f53565b91505092915050565b7f4e6f7420656e6f75676820736861726573206c65667400000000000000000000600082015250565b6000613fcb6016836131ba565b9150613fd682613f95565b602082019050919050565b60006020820190508181036000830152613ffa81613fbe565b9050919050565b600061400c82613027565b915061401783613027565b9250817fffffffffffffffffffffffffffffffffffffffffffffffffffffffffffffffff04831182151516156140505761404f613d71565b5b828202905092915050565b6000606082019050614070600083018661309d565b61407d602083018561386d565b61408a604083018461309d565b949350505050565b60006060820190506140a7600083018661386d565b6140b4602083018561386d565b6140c1604083018461309d565b949350505050565b6000815190506140d8816138d7565b92915050565b6000602082840312156140f4576140f3612fbf565b5b6000614102848285016140c9565b91505092915050565b600082825260208201905092915050565b50565b600061412c60008361410b565b91506141378261411c565b600082019050919050565b600060a082019050614157600083018761386d565b614164602083018661386d565b614171604083018561309d565b61417e606083018461309d565b818103608083015261418f8161411f565b905095945050505050565b7f455243313135353a2073657474696e6720617070726f76616c2073746174757360008201527f20666f722073656c660000000000000000000000000000000000000000000000602082015250565b60006141f66029836131ba565b91506142018261419a565b604082019050919050565b60006020820190508181036000830152614225816141e9565b9050919050565b7f416d6f756e7420726571756573746564206d757374206265206772656174657260008201527f207468616e203000000000000000000000000000000000000000000000000000602082015250565b60006142886027836131ba565b91506142938261422c565b604082019050919050565b600060208201905081810360008301526142b78161427b565b9050919050565b7f4e756d20736861726573206d7573742062652067726561746572207468616e2060008201527f3000000000000000000000000000000000000000000000000000000000000000602082015250565b600061431a6021836131ba565b9150614325826142be565b604082019050919050565b600060208201905081810360008301526143498161430d565b9050919050565b7f4e487b7100000000000000000000000000000000000000000000000000000000600052601260045260246000fd5b600061438a82613027565b915061439583613027565b9250826143a5576143a4614350565b5b828206905092915050565b7f416d6f756e7420726571756573746564206d757374206265206469766973696260008201527f6c65206279206e756d626572206f662073686172657300000000000000000000602082015250565b600061440c6036836131ba565b9150614417826143b0565b604082019050919050565b6000602082019050818103600083015261443b816143ff565b9050919050565b600061444d82613027565b915061445883613027565b92508261446857614467614350565b5b828204905092915050565b7f4f6e6c792074686520626f72726f7765722063616e207769746864726177207460008201527f686569722072657175657374656420616d6f756e740000000000000000000000602082015250565b60006144cf6035836131ba565b91506144da82614473565b604082019050919050565b600060208201905081810360008301526144fe816144c2565b9050919050565b7f43616e206f6e6c7920626f72726f7720696e2066756e64656420737461746500600082015250565b600061453b601f836131ba565b915061454682614505565b602082019050919050565b6000602082019050818103600083015261456a8161452e565b9050919050565b6000604082019050614586600083018561386d565b614593602083018461309d565b9392505050565b60006040820190506145af600083018561309d565b6145bc602083018461309d565b9392505050565b7f4f6e6c792074686520626f72726f7765722063616e2072657061790000000000600082015250565b60006145f9601b836131ba565b9150614604826145c3565b602082019050919050565b60006020820190508181036000830152614628816145ec565b9050919050565b7f43616e206f6e6c7920726570617920696e207265706179696e67207374617465600082015250565b60006146656020836131ba565b91506146708261462f565b602082019050919050565b6000602082019050818103600083015261469481614658565b9050919050565b60006146a682613027565b91506146b183613027565b9250828210156146c4576146c3613d71565b5b828203905092915050565b7f43616e2774207265706179206d6f7265207468616e206c6f616e20616d6f756e60008201527f7400000000000000000000000000000000000000000000000000000000000000602082015250565b600061472b6021836131ba565b9150614736826146cf565b604082019050919050565b6000602082019050818103600083015261475a8161471e565b9050919050565b600061476c82613027565b915061477783613027565b9250827fffffffffffffffffffffffffffffffffffffffffffffffffffffffffffffffff038211156147ac576147ab613d71565b5b828201905092915050565b7f455243313135353a2063616c6c6572206973206e6f74206f776e6572206e6f7260008201527f20617070726f7665640000000000000000000000000000000000000000000000602082015250565b60006148136029836131ba565b915061481e826147b7565b604082019050919050565b6000602082019050818103600083015261484281614806565b9050919050565b7f4f776e61626c653a206e6577206f776e657220697320746865207a65726f206160008201527f6464726573730000000000000000000000000000000000000000000000000000602082015250565b60006148a56026836131ba565b91506148b082614849565b604082019050919050565b600060208201905081810360008301526148d481614898565b9050919050565b7f43616e206f6e6c79206275726e20696e207265706179696e67206f722072657060008201527f6169642073746174657300000000000000000000000000000000000000000000602082015250565b6000614937602a836131ba565b9150614942826148db565b604082019050919050565b600060208201905081810360008301526149668161492a565b9050919050565b7f43616e2774207769746864726177206d6f7265207468616e20616d6f756e742060008201527f7265706169640000000000000000000000000000000000000000000000000000602082015250565b60006149c96026836131ba565b91506149d48261496d565b604082019050919050565b600060208201905081810360008301526149f8816149bc565b9050919050565b7f455243313135353a2069647320616e6420616d6f756e7473206c656e6774682060008201527f6d69736d61746368000000000000000000000000000000000000000000000000602082015250565b6000614a5b6028836131ba565b9150614a66826149ff565b604082019050919050565b60006020820190508181036000830152614a8a81614a4e565b9050919050565b7f455243313135353a207472616e7366657220746f20746865207a65726f20616460008201527f6472657373000000000000000000000000000000000000000000000000000000602082015250565b6000614aed6025836131ba565b9150614af882614a91565b604082019050919050565b60006020820190508181036000830152614b1c81614ae0565b9050919050565b7f455243313135353a20696e73756666696369656e742062616c616e636520666f60008201527f72207472616e7366657200000000000000000000000000000000000000000000602082015250565b6000614b7f602a836131ba565b9150614b8a82614b23565b604082019050919050565b60006020820190508181036000830152614bae81614b72565b9050919050565b60006040820190508181036000830152614bcf81856136d1565b90508181036020830152614be381846136d1565b90509392505050565b7f455243313135353a206d696e7420746f20746865207a65726f2061646472657360008201527f7300000000000000000000000000000000000000000000000000000000000000602082015250565b6000614c486021836131ba565b9150614c5382614bec565b604082019050919050565b60006020820190508181036000830152614c7781614c3b565b9050919050565b7f455243313135353a206275726e2066726f6d20746865207a65726f206164647260008201527f6573730000000000000000000000000000000000000000000000000000000000602082015250565b6000614cda6023836131ba565b9150614ce582614c7e565b604082019050919050565b60006020820190508181036000830152614d0981614ccd565b9050919050565b7f455243313135353a206275726e20616d6f756e7420657863656564732062616c60008201527f616e636500000000000000000000000000000000000000000000000000000000602082015250565b6000614d6c6024836131ba565b9150614d7782614d10565b604082019050919050565b60006020820190508181036000830152614d9b81614d5f565b9050919050565b600081519050919050565b6000614db882614da2565b614dc2818561410b565b9350614dd28185602086016131cb565b614ddb816131fe565b840191505092915050565b600060a082019050614dfb600083018861386d565b614e08602083018761386d565b8181036040830152614e1a81866136d1565b90508181036060830152614e2e81856136d1565b90508181036080830152614e428184614dad565b90509695505050505050565b600081519050614e5d816130f3565b92915050565b600060208284031215614e7957614e78612fbf565b5b6000614e8784828501614e4e565b91505092915050565b60008160e01c9050919050565b600060033d1115614ebc5760046000803e614eb9600051614e90565b90505b90565b600060443d1015614ecf57614f52565b614ed7612fb5565b60043d036004823e80513d602482011167ffffffffffffffff82111715614eff575050614f52565b808201805167ffffffffffffffff811115614f1d5750505050614f52565b80602083010160043d038501811115614f3a575050505050614f52565b614f498260200185018661329e565b82955050505050505b90565b7f455243313135353a207472616e7366657220746f206e6f6e204552433131353560008201527f526563656976657220696d706c656d656e746572000000000000000000000000602082015250565b6000614fb16034836131ba565b9150614fbc82614f55565b604082019050919050565b60006020820190508181036000830152614fe081614fa4565b9050919050565b7f455243313135353a204552433131353552656365697665722072656a6563746560008201527f6420746f6b656e73000000000000000000000000000000000000000000000000602082015250565b60006150436028836131ba565b915061504e82614fe7565b604082019050919050565b6000602082019050818103600083015261507281615036565b9050919050565b600060a08201905061508e600083018861386d565b61509b602083018761386d565b6150a8604083018661309d565b6150b5606083018561309d565b81810360808301526150c78184614dad565b9050969550505050505056fea264697066735822122034fdb432adf475f981a6967cf36666ab1bf39fe232fd5ffaf4635c221d4eaa0764736f6c63430008090033",
  "immutableReferences": {},
  "source": "// SPDX-License-Identifier: Apache-2.0\npragma solidity >=0.7.0 <0.9.0;\n\nimport \"@openzeppelin/contracts/token/ERC1155/ERC1155.sol\";\nimport \"@openzeppelin/contracts/token/ERC1155/utils/ERC1155Receiver.sol\";\nimport \"@openzeppelin/contracts/token/ERC1155/utils/ERC1155Holder.sol\";\nimport \"@openzeppelin/contracts/token/ERC20/ERC20.sol\";\nimport \"@openzeppelin/contracts/access/Ownable.sol\";\nimport \"@openzeppelin/contracts/utils/Counters.sol\";\n\n/**\n * Lova is a crowd-funding marketplace for 0% interest microloans \n * We use ERC1155 since we have lots of loans which are each unique and are comprised on non-unique shares\n * ERC721 wouldn't work as it only allows one owner of each loan while we need to support multiple lenders per loan\n * \n * TODO could introduce the EXPIRED state if the loan doesn't fundraise in a set amount of time - this would allow the lenders to withdraw\n * TODO think about meta-transactions where the account sending and paying for execution may not be the actual sender\n * TODO could implement batch versions of all functions\n */\ncontract Lova is ERC1155, ERC1155Receiver, ERC1155Holder, Ownable {\n    using Counters for Counters.Counter;\n\n    // Variables\n    Counters.Counter _loanIdCounter;\n    mapping(uint256 => LoanInfo) _loanInfo;\n    enum State {RAISING, FUNDED, REPAYING, REPAID} // TODO could add expired in raising and/or defaulted\n    struct LoanInfo {\n        address borrower;\n        address token;\n        uint256 numShares;\n        uint256 sharePrice;\n        uint256 amountRepaid;\n        State currentState;\n    }\n    \n    // Events\n    event LoanRequested(uint256 loanId, address addr, uint256 amount);\n    event LentToLoan(uint256 loanId, address addr, uint256 amount);\n    event LoanFunded(uint256 loanId);\n    event BorrowerWithdrew(uint256 loanId, uint256 amount);\n    event BorrowerRepaid(uint256 loanId, uint256 amount);\n    event LoanRepaid(uint256 loanId);\n    event LenderWithdrew(uint256 loanId, address addr, uint256 amount);\n    \n    // Functions\n    constructor() ERC1155(\"LOVA\") {}\n    \n    // TODO not 100% sure if this is right\n    function supportsInterface(bytes4 interfaceId) public view virtual override(ERC1155, ERC1155Receiver) returns (bool) {\n        return super.supportsInterface(interfaceId);\n    }\n\n    /**\n     * Called by the borrower to \"mint\" a new loan for a requested amount. All loan shares are initially owned by the contract.\n     * TODO we could hard-code a share price instead of having the borrower supply they're own numShares\n     * TODO ensure token address is a real ERC-20 token, or white-list approved tokens\n     * TODO currently hard-coding the data field to \"\", perhaps there's something more interesting to do\n     */\n    function mint(address borrower, address token, uint256 amountRequested, uint256 numShares)\n        public\n    {\n        // Checks \n        require(amountRequested > 0, \"Amount requested must be greater than 0\");\n        require(numShares > 0, \"Num shares must be greater than 0\");\n        require(amountRequested % numShares == 0, \"Amount requested must be divisible by number of shares\");\n        \n        // Effects\n        uint256 curLoanId = _loanIdCounter.current();\n        uint256 sharePrice = amountRequested / numShares;\n        _loanInfo[curLoanId] = LoanInfo({\n            borrower: borrower,\n            token: token,\n            numShares: numShares,\n            sharePrice: sharePrice,\n            currentState: State.RAISING,\n            amountRepaid: 0\n        });\n        _loanIdCounter.increment();\n        emit LoanRequested(curLoanId, borrower, amountRequested);\n        \n        // Interactions\n        _mint(address(this), curLoanId, numShares, \"\");\n    }\n    \n    /**\n     * Lender transfers ERC20 token to the contract for a specific loan, they recieve loan shares\n     * TODO it may be confusing to specify numShares, since the lender doesn't automatically know how much they're lending\n     * TODO may need to add nonReentrant\n     **/\n    function lend(uint256 loanId, uint256 numShares) payable public  {\n        // Checks\n        require(numShares > 0, \"Must lend more than 0\");\n        require(msg.sender != _loanInfo[loanId].borrower, \"Borrower can't lend to their own loan\");\n        require(numShares <= this.sharesLeft(loanId), \"Not enough shares left\");\n        \n        // Effects\n        uint256 lendAmount = numShares * _loanInfo[loanId].sharePrice;\n        emit LentToLoan(loanId, msg.sender, lendAmount);\n        if (this.sharesLeft(loanId) == numShares) {\n            _loanInfo[loanId].currentState = State.FUNDED;\n            emit LoanFunded(loanId);\n        }\n        \n        // Interactions\n        ERC20(_loanInfo[loanId].token).transferFrom(msg.sender, address(this), lendAmount);\n        this.safeTransferFrom(address(this), msg.sender, loanId, numShares, \"\");\n    }\n    \n    /**\n     * After the loan is funded, the borrower withdraws their loan amount\n     * Note: theorectically we could do this tranfer automatically on raise, but its common practice for the sender to withdraw themselves\n     */\n    function borrow(uint256 loanId) public {\n        // Checks\n        require(msg.sender == _loanInfo[loanId].borrower, \"Only the borrower can withdraw their requested amount\");\n        require(_loanInfo[loanId].currentState == State.FUNDED, \"Can only borrow in funded state\");\n        \n        // Effects\n        _loanInfo[loanId].currentState = State.REPAYING;\n        uint256 loanAmount = _loanInfo[loanId].numShares * _loanInfo[loanId].sharePrice;\n        \n        // Interactions\n        ERC20(_loanInfo[loanId].token).transfer(msg.sender, loanAmount);\n        emit BorrowerWithdrew(loanId, loanAmount);\n    }\n    \n    /**\n     * The borrwer repays the loan, they can call this multiple times until the loan is fully repaid\n     */\n    function repay(uint256 loanId, uint256 amount) payable public {\n        // Checks\n        uint256 loanAmount = _loanInfo[loanId].numShares * _loanInfo[loanId].sharePrice;\n        require(msg.sender == _loanInfo[loanId].borrower, \"Only the borrower can repay\");\n        require(_loanInfo[loanId].currentState == State.REPAYING, \"Can only repay in repaying state\");\n        require(loanAmount - _loanInfo[loanId].amountRepaid >= amount, \"Can't repay more than loan amount\");\n        \n        // Effects\n        _loanInfo[loanId].amountRepaid += amount;\n        emit BorrowerRepaid(loanId, amount);\n        if (_loanInfo[loanId].amountRepaid >= loanAmount) {\n            _loanInfo[loanId].currentState = State.REPAID;\n            emit LoanRepaid(loanId);\n        }\n        \n        // Interactions\n        ERC20(_loanInfo[loanId].token).transferFrom(msg.sender, address(this), amount);\n    }\n    \n    /**\n     * Lenders can burn their shares to redeem the underlying loan repayments\n     * Note: this isn't ideal as it allows the first lenders to burn to retrieve all their lent amount,\n     * ideally each repayment would be distributed evenly across all loan shares, but this would invovle keeping\n     * track of a repaid amount and withrawn amount for each loan share, which is a lot of storage\n     */\n    function burn(address account, uint256 loanId, uint256 numShares) public virtual {\n        // Checks\n        require(msg.sender == account || isApprovedForAll(account, _msgSender()), \"ERC1155: caller is not owner nor approved\");\n        require(\n            _loanInfo[loanId].currentState == State.REPAYING || _loanInfo[loanId].currentState == State.REPAID, \n            \"Can only burn in repaying or repaid states\"\n        );\n        uint256 withdrawAmount = _loanInfo[loanId].sharePrice * numShares;\n        require(withdrawAmount <= _loanInfo[loanId].amountRepaid, \"Can't withdraw more than amount repaid\");\n        \n        // Effects\n        \n        emit LenderWithdrew(loanId, msg.sender, withdrawAmount);\n\n        // Interactions\n        _burn(account, loanId, numShares);\n        ERC20(_loanInfo[loanId].token).transfer(msg.sender, withdrawAmount);\n    }\n    \n    /**\n     * Convinence function to get the number of shares left to fund for a loan (ie still owned by the contract)\n     */\n    function sharesLeft(uint256 loanId) public view returns (uint256) {\n        return this.balanceOf(address(this), loanId);\n    }\n    \n    /**\n     * Get loan info for an individual loan id\n     */\n    function loanInfo(uint256 loanId) public view returns (LoanInfo memory) {\n        return _loanInfo[loanId];\n    }\n    \n    /**\n     * Loans increment sequentially from 0\n     */\n    function loanCount() public view returns (uint256) {\n        return _loanIdCounter.current();\n    }\n}",
  "sourcePath": "/Users/jsaur/projects/tmp/lova/truffle/contracts/Lova.sol",
  "compiler": {
    "name": "solc",
    "version": "0.8.9+commit.e5eed63a.Emscripten.clang"
  },
  "schemaVersion": "3.4.3",
  "updatedAt": "2021-10-28T10:06:14.313Z",
  "networkType": "ethereum",
  "devdoc": {
    "kind": "dev",
    "methods": {
      "balanceOf(address,uint256)": {
        "details": "See {IERC1155-balanceOf}. Requirements: - `account` cannot be the zero address."
      },
      "balanceOfBatch(address[],uint256[])": {
        "details": "See {IERC1155-balanceOfBatch}. Requirements: - `accounts` and `ids` must have the same length."
      },
      "isApprovedForAll(address,address)": {
        "details": "See {IERC1155-isApprovedForAll}."
      },
      "owner()": {
        "details": "Returns the address of the current owner."
      },
      "renounceOwnership()": {
        "details": "Leaves the contract without owner. It will not be possible to call `onlyOwner` functions anymore. Can only be called by the current owner. NOTE: Renouncing ownership will leave the contract without an owner, thereby removing any functionality that is only available to the owner."
      },
      "safeBatchTransferFrom(address,address,uint256[],uint256[],bytes)": {
        "details": "See {IERC1155-safeBatchTransferFrom}."
      },
      "safeTransferFrom(address,address,uint256,uint256,bytes)": {
        "details": "See {IERC1155-safeTransferFrom}."
      },
      "setApprovalForAll(address,bool)": {
        "details": "See {IERC1155-setApprovalForAll}."
      },
      "transferOwnership(address)": {
        "details": "Transfers ownership of the contract to a new account (`newOwner`). Can only be called by the current owner."
      },
      "uri(uint256)": {
        "details": "See {IERC1155MetadataURI-uri}. This implementation returns the same URI for *all* token types. It relies on the token type ID substitution mechanism https://eips.ethereum.org/EIPS/eip-1155#metadata[defined in the EIP]. Clients calling this function must replace the `\\{id\\}` substring with the actual token type ID."
      }
    },
    "version": 1
  },
  "userdoc": {
    "kind": "user",
    "methods": {
      "borrow(uint256)": {
        "notice": "After the loan is funded, the borrower withdraws their loan amount Note: theorectically we could do this tranfer automatically on raise, but its common practice for the sender to withdraw themselves"
      },
      "burn(address,uint256,uint256)": {
        "notice": "Lenders can burn their shares to redeem the underlying loan repayments Note: this isn't ideal as it allows the first lenders to burn to retrieve all their lent amount, ideally each repayment would be distributed evenly across all loan shares, but this would invovle keeping track of a repaid amount and withrawn amount for each loan share, which is a lot of storage"
      },
      "lend(uint256,uint256)": {
        "notice": "Lender transfers ERC20 token to the contract for a specific loan, they recieve loan shares TODO it may be confusing to specify numShares, since the lender doesn't automatically know how much they're lending TODO may need to add nonReentrant*"
      },
      "loanCount()": {
        "notice": "Loans increment sequentially from 0"
      },
      "loanInfo(uint256)": {
        "notice": "Get loan info for an individual loan id"
      },
      "mint(address,address,uint256,uint256)": {
        "notice": "Called by the borrower to \"mint\" a new loan for a requested amount. All loan shares are initially owned by the contract. TODO we could hard-code a share price instead of having the borrower supply they're own numShares TODO ensure token address is a real ERC-20 token, or white-list approved tokens TODO currently hard-coding the data field to \"\", perhaps there's something more interesting to do"
      },
      "repay(uint256,uint256)": {
        "notice": "The borrwer repays the loan, they can call this multiple times until the loan is fully repaid"
      },
      "sharesLeft(uint256)": {
        "notice": "Convinence function to get the number of shares left to fund for a loan (ie still owned by the contract)"
      }
    },
    "notice": "Lova is a crowd-funding marketplace for 0% interest microloans  We use ERC1155 since we have lots of loans which are each unique and are comprised on non-unique shares ERC721 wouldn't work as it only allows one owner of each loan while we need to support multiple lenders per loan  TODO could introduce the EXPIRED state if the loan doesn't fundraise in a set amount of time - this would allow the lenders to withdraw TODO think about meta-transactions where the account sending and paying for execution may not be the actual sender TODO could implement batch versions of all functions",
    "version": 1
  }
}