{
  "contractName": "Lova",
  "abi": [
    {
      "inputs": [],
      "stateMutability": "nonpayable",
      "type": "constructor"
    },
    {
      "anonymous": false,
      "inputs": [
        {
          "indexed": true,
          "internalType": "address",
          "name": "account",
          "type": "address"
        },
        {
          "indexed": true,
          "internalType": "address",
          "name": "operator",
          "type": "address"
        },
        {
          "indexed": false,
          "internalType": "bool",
          "name": "approved",
          "type": "bool"
        }
      ],
      "name": "ApprovalForAll",
      "type": "event"
    },
    {
      "anonymous": false,
      "inputs": [
        {
          "indexed": false,
          "internalType": "uint256",
          "name": "loanId",
          "type": "uint256"
        },
        {
          "indexed": false,
          "internalType": "uint256",
          "name": "amount",
          "type": "uint256"
        }
      ],
      "name": "BorrowerRepaid",
      "type": "event"
    },
    {
      "anonymous": false,
      "inputs": [
        {
          "indexed": false,
          "internalType": "uint256",
          "name": "loanId",
          "type": "uint256"
        },
        {
          "indexed": false,
          "internalType": "uint256",
          "name": "amount",
          "type": "uint256"
        }
      ],
      "name": "BorrowerWithdrew",
      "type": "event"
    },
    {
      "anonymous": false,
      "inputs": [
        {
          "indexed": false,
          "internalType": "uint256",
          "name": "loanId",
          "type": "uint256"
        },
        {
          "indexed": false,
          "internalType": "address",
          "name": "addr",
          "type": "address"
        },
        {
          "indexed": false,
          "internalType": "uint256",
          "name": "amount",
          "type": "uint256"
        }
      ],
      "name": "LenderWithdrew",
      "type": "event"
    },
    {
      "anonymous": false,
      "inputs": [
        {
          "indexed": false,
          "internalType": "uint256",
          "name": "loanId",
          "type": "uint256"
        },
        {
          "indexed": false,
          "internalType": "address",
          "name": "addr",
          "type": "address"
        },
        {
          "indexed": false,
          "internalType": "uint256",
          "name": "amount",
          "type": "uint256"
        }
      ],
      "name": "LentToLoan",
      "type": "event"
    },
    {
      "anonymous": false,
      "inputs": [
        {
          "indexed": false,
          "internalType": "uint256",
          "name": "loanId",
          "type": "uint256"
        }
      ],
      "name": "LoanFunded",
      "type": "event"
    },
    {
      "anonymous": false,
      "inputs": [
        {
          "indexed": false,
          "internalType": "uint256",
          "name": "loanId",
          "type": "uint256"
        }
      ],
      "name": "LoanRepaid",
      "type": "event"
    },
    {
      "anonymous": false,
      "inputs": [
        {
          "indexed": false,
          "internalType": "uint256",
          "name": "loanId",
          "type": "uint256"
        },
        {
          "indexed": false,
          "internalType": "address",
          "name": "addr",
          "type": "address"
        },
        {
          "indexed": false,
          "internalType": "uint256",
          "name": "amount",
          "type": "uint256"
        }
      ],
      "name": "LoanRequested",
      "type": "event"
    },
    {
      "anonymous": false,
      "inputs": [
        {
          "indexed": true,
          "internalType": "address",
          "name": "previousOwner",
          "type": "address"
        },
        {
          "indexed": true,
          "internalType": "address",
          "name": "newOwner",
          "type": "address"
        }
      ],
      "name": "OwnershipTransferred",
      "type": "event"
    },
    {
      "anonymous": false,
      "inputs": [
        {
          "indexed": true,
          "internalType": "address",
          "name": "operator",
          "type": "address"
        },
        {
          "indexed": true,
          "internalType": "address",
          "name": "from",
          "type": "address"
        },
        {
          "indexed": true,
          "internalType": "address",
          "name": "to",
          "type": "address"
        },
        {
          "indexed": false,
          "internalType": "uint256[]",
          "name": "ids",
          "type": "uint256[]"
        },
        {
          "indexed": false,
          "internalType": "uint256[]",
          "name": "values",
          "type": "uint256[]"
        }
      ],
      "name": "TransferBatch",
      "type": "event"
    },
    {
      "anonymous": false,
      "inputs": [
        {
          "indexed": true,
          "internalType": "address",
          "name": "operator",
          "type": "address"
        },
        {
          "indexed": true,
          "internalType": "address",
          "name": "from",
          "type": "address"
        },
        {
          "indexed": true,
          "internalType": "address",
          "name": "to",
          "type": "address"
        },
        {
          "indexed": false,
          "internalType": "uint256",
          "name": "id",
          "type": "uint256"
        },
        {
          "indexed": false,
          "internalType": "uint256",
          "name": "value",
          "type": "uint256"
        }
      ],
      "name": "TransferSingle",
      "type": "event"
    },
    {
      "anonymous": false,
      "inputs": [
        {
          "indexed": false,
          "internalType": "string",
          "name": "value",
          "type": "string"
        },
        {
          "indexed": true,
          "internalType": "uint256",
          "name": "id",
          "type": "uint256"
        }
      ],
      "name": "URI",
      "type": "event"
    },
    {
      "inputs": [
        {
          "internalType": "address",
          "name": "account",
          "type": "address"
        },
        {
          "internalType": "uint256",
          "name": "id",
          "type": "uint256"
        }
      ],
      "name": "balanceOf",
      "outputs": [
        {
          "internalType": "uint256",
          "name": "",
          "type": "uint256"
        }
      ],
      "stateMutability": "view",
      "type": "function"
    },
    {
      "inputs": [
        {
          "internalType": "address[]",
          "name": "accounts",
          "type": "address[]"
        },
        {
          "internalType": "uint256[]",
          "name": "ids",
          "type": "uint256[]"
        }
      ],
      "name": "balanceOfBatch",
      "outputs": [
        {
          "internalType": "uint256[]",
          "name": "",
          "type": "uint256[]"
        }
      ],
      "stateMutability": "view",
      "type": "function"
    },
    {
      "inputs": [
        {
          "internalType": "address",
          "name": "account",
          "type": "address"
        },
        {
          "internalType": "address",
          "name": "operator",
          "type": "address"
        }
      ],
      "name": "isApprovedForAll",
      "outputs": [
        {
          "internalType": "bool",
          "name": "",
          "type": "bool"
        }
      ],
      "stateMutability": "view",
      "type": "function"
    },
    {
      "inputs": [
        {
          "internalType": "address",
          "name": "",
          "type": "address"
        },
        {
          "internalType": "address",
          "name": "",
          "type": "address"
        },
        {
          "internalType": "uint256[]",
          "name": "",
          "type": "uint256[]"
        },
        {
          "internalType": "uint256[]",
          "name": "",
          "type": "uint256[]"
        },
        {
          "internalType": "bytes",
          "name": "",
          "type": "bytes"
        }
      ],
      "name": "onERC1155BatchReceived",
      "outputs": [
        {
          "internalType": "bytes4",
          "name": "",
          "type": "bytes4"
        }
      ],
      "stateMutability": "nonpayable",
      "type": "function"
    },
    {
      "inputs": [
        {
          "internalType": "address",
          "name": "",
          "type": "address"
        },
        {
          "internalType": "address",
          "name": "",
          "type": "address"
        },
        {
          "internalType": "uint256",
          "name": "",
          "type": "uint256"
        },
        {
          "internalType": "uint256",
          "name": "",
          "type": "uint256"
        },
        {
          "internalType": "bytes",
          "name": "",
          "type": "bytes"
        }
      ],
      "name": "onERC1155Received",
      "outputs": [
        {
          "internalType": "bytes4",
          "name": "",
          "type": "bytes4"
        }
      ],
      "stateMutability": "nonpayable",
      "type": "function"
    },
    {
      "inputs": [],
      "name": "owner",
      "outputs": [
        {
          "internalType": "address",
          "name": "",
          "type": "address"
        }
      ],
      "stateMutability": "view",
      "type": "function"
    },
    {
      "inputs": [],
      "name": "renounceOwnership",
      "outputs": [],
      "stateMutability": "nonpayable",
      "type": "function"
    },
    {
      "inputs": [
        {
          "internalType": "address",
          "name": "from",
          "type": "address"
        },
        {
          "internalType": "address",
          "name": "to",
          "type": "address"
        },
        {
          "internalType": "uint256[]",
          "name": "ids",
          "type": "uint256[]"
        },
        {
          "internalType": "uint256[]",
          "name": "amounts",
          "type": "uint256[]"
        },
        {
          "internalType": "bytes",
          "name": "data",
          "type": "bytes"
        }
      ],
      "name": "safeBatchTransferFrom",
      "outputs": [],
      "stateMutability": "nonpayable",
      "type": "function"
    },
    {
      "inputs": [
        {
          "internalType": "address",
          "name": "from",
          "type": "address"
        },
        {
          "internalType": "address",
          "name": "to",
          "type": "address"
        },
        {
          "internalType": "uint256",
          "name": "id",
          "type": "uint256"
        },
        {
          "internalType": "uint256",
          "name": "amount",
          "type": "uint256"
        },
        {
          "internalType": "bytes",
          "name": "data",
          "type": "bytes"
        }
      ],
      "name": "safeTransferFrom",
      "outputs": [],
      "stateMutability": "nonpayable",
      "type": "function"
    },
    {
      "inputs": [
        {
          "internalType": "address",
          "name": "operator",
          "type": "address"
        },
        {
          "internalType": "bool",
          "name": "approved",
          "type": "bool"
        }
      ],
      "name": "setApprovalForAll",
      "outputs": [],
      "stateMutability": "nonpayable",
      "type": "function"
    },
    {
      "inputs": [
        {
          "internalType": "address",
          "name": "newOwner",
          "type": "address"
        }
      ],
      "name": "transferOwnership",
      "outputs": [],
      "stateMutability": "nonpayable",
      "type": "function"
    },
    {
      "inputs": [
        {
          "internalType": "uint256",
          "name": "",
          "type": "uint256"
        }
      ],
      "name": "uri",
      "outputs": [
        {
          "internalType": "string",
          "name": "",
          "type": "string"
        }
      ],
      "stateMutability": "view",
      "type": "function"
    },
    {
      "inputs": [
        {
          "internalType": "bytes4",
          "name": "interfaceId",
          "type": "bytes4"
        }
      ],
      "name": "supportsInterface",
      "outputs": [
        {
          "internalType": "bool",
          "name": "",
          "type": "bool"
        }
      ],
      "stateMutability": "view",
      "type": "function"
    },
    {
      "inputs": [
        {
          "internalType": "address",
          "name": "borrower",
          "type": "address"
        },
        {
          "internalType": "address",
          "name": "token",
          "type": "address"
        },
        {
          "internalType": "uint256",
          "name": "amountRequested",
          "type": "uint256"
        },
        {
          "internalType": "uint256",
          "name": "sharePrice",
          "type": "uint256"
        },
        {
          "internalType": "uint256",
          "name": "kivaId",
          "type": "uint256"
        }
      ],
      "name": "mint",
      "outputs": [],
      "stateMutability": "nonpayable",
      "type": "function"
    },
    {
      "inputs": [
        {
          "internalType": "uint256",
          "name": "loanId",
          "type": "uint256"
        },
        {
          "internalType": "uint256",
          "name": "numShares",
          "type": "uint256"
        }
      ],
      "name": "lend",
      "outputs": [],
      "stateMutability": "payable",
      "type": "function"
    },
    {
      "inputs": [
        {
          "internalType": "uint256",
          "name": "loanId",
          "type": "uint256"
        }
      ],
      "name": "borrow",
      "outputs": [],
      "stateMutability": "nonpayable",
      "type": "function"
    },
    {
      "inputs": [
        {
          "internalType": "uint256",
          "name": "loanId",
          "type": "uint256"
        },
        {
          "internalType": "uint256",
          "name": "amount",
          "type": "uint256"
        }
      ],
      "name": "repay",
      "outputs": [],
      "stateMutability": "payable",
      "type": "function"
    },
    {
      "inputs": [
        {
          "internalType": "address",
          "name": "account",
          "type": "address"
        },
        {
          "internalType": "uint256",
          "name": "loanId",
          "type": "uint256"
        },
        {
          "internalType": "uint256",
          "name": "numShares",
          "type": "uint256"
        }
      ],
      "name": "burn",
      "outputs": [],
      "stateMutability": "nonpayable",
      "type": "function"
    },
    {
      "inputs": [
        {
          "internalType": "uint256",
          "name": "loanId",
          "type": "uint256"
        }
      ],
      "name": "sharesLeft",
      "outputs": [
        {
          "internalType": "uint256",
          "name": "",
          "type": "uint256"
        }
      ],
      "stateMutability": "view",
      "type": "function"
    },
    {
      "inputs": [
        {
          "internalType": "uint256",
          "name": "loanId",
          "type": "uint256"
        }
      ],
      "name": "loanInfo",
      "outputs": [
        {
          "components": [
            {
              "internalType": "address",
              "name": "borrower",
              "type": "address"
            },
            {
              "internalType": "address",
              "name": "token",
              "type": "address"
            },
            {
              "internalType": "uint256",
              "name": "numShares",
              "type": "uint256"
            },
            {
              "internalType": "uint256",
              "name": "sharePrice",
              "type": "uint256"
            },
            {
              "internalType": "uint256",
              "name": "amountRepaid",
              "type": "uint256"
            },
            {
              "internalType": "enum Lova.State",
              "name": "currentState",
              "type": "uint8"
            },
            {
              "internalType": "uint256",
              "name": "kivaId",
              "type": "uint256"
            }
          ],
          "internalType": "struct Lova.LoanInfo",
          "name": "",
          "type": "tuple"
        }
      ],
      "stateMutability": "view",
      "type": "function"
    },
    {
      "inputs": [],
      "name": "loanCount",
      "outputs": [
        {
          "internalType": "uint256",
          "name": "",
          "type": "uint256"
        }
      ],
      "stateMutability": "view",
      "type": "function"
    }
  ],
  "bytecode": "0x60806040523480156200001157600080fd5b506040518060600160405280602481526020016200549a602491396200003d816200006460201b60201c565b506200005e620000526200008060201b60201c565b6200008860201b60201c565b62000263565b80600290805190602001906200007c9291906200014e565b5050565b600033905090565b6000600360009054906101000a900473ffffffffffffffffffffffffffffffffffffffff16905081600360006101000a81548173ffffffffffffffffffffffffffffffffffffffff021916908373ffffffffffffffffffffffffffffffffffffffff1602179055508173ffffffffffffffffffffffffffffffffffffffff168173ffffffffffffffffffffffffffffffffffffffff167f8be0079c531659141344cd1fd0a4f28419497f9722a3daafe3b4186f6b6457e060405160405180910390a35050565b8280546200015c906200022d565b90600052602060002090601f016020900481019282620001805760008555620001cc565b82601f106200019b57805160ff1916838001178555620001cc565b82800160010185558215620001cc579182015b82811115620001cb578251825591602001919060010190620001ae565b5b509050620001db9190620001df565b5090565b5b80821115620001fa576000816000905550600101620001e0565b5090565b7f4e487b7100000000000000000000000000000000000000000000000000000000600052602260045260246000fd5b600060028204905060018216806200024657607f821691505b602082108114156200025d576200025c620001fe565b5b50919050565b61522780620002736000396000f3fe6080604052600436106101295760003560e01c8063a22cb465116100ab578063d8aed1451161006f578063d8aed14514610406578063e985e9c514610422578063f23a6e611461045f578063f242432a1461049c578063f2fde38b146104c5578063f5298aca146104ee57610129565b8063a22cb4651461030f578063bc197c8114610338578063c5ebeaec14610375578063c61180931461039e578063ce63094d146103db57610129565b8063715018a6116100f2578063715018a61461024b5780638349d6be146102625780638da5cb5b1461029f5780639110df85146102ca5780639ceeaca7146102e657610129565b8062fdd58e1461012e57806301ffc9a71461016b5780630e89341c146101a85780632eb2c2d6146101e55780634e1273f41461020e575b600080fd5b34801561013a57600080fd5b50610155600480360381019061015091906130c2565b610517565b6040516101629190613111565b60405180910390f35b34801561017757600080fd5b50610192600480360381019061018d9190613184565b6105e0565b60405161019f91906131cc565b60405180910390f35b3480156101b457600080fd5b506101cf60048036038101906101ca91906131e7565b6105f2565b6040516101dc91906132ad565b60405180910390f35b3480156101f157600080fd5b5061020c600480360381019061020791906134cc565b610686565b005b34801561021a57600080fd5b506102356004803603810190610230919061365e565b610727565b6040516102429190613794565b60405180910390f35b34801561025757600080fd5b50610260610840565b005b34801561026e57600080fd5b50610289600480360381019061028491906131e7565b6108c8565b60405161029691906138ca565b60405180910390f35b3480156102ab57600080fd5b506102b4610a04565b6040516102c191906138f4565b60405180910390f35b6102e460048036038101906102df919061390f565b610a2e565b005b3480156102f257600080fd5b5061030d6004803603810190610308919061394f565b610e85565b005b34801561031b57600080fd5b50610336600480360381019061033191906139f6565b611192565b005b34801561034457600080fd5b5061035f600480360381019061035a91906134cc565b611313565b60405161036c9190613a45565b60405180910390f35b34801561038157600080fd5b5061039c600480360381019061039791906131e7565b611328565b005b3480156103aa57600080fd5b506103c560048036038101906103c091906131e7565b6115d2565b6040516103d29190613111565b60405180910390f35b3480156103e757600080fd5b506103f0611665565b6040516103fd9190613111565b60405180910390f35b610420600480360381019061041b919061390f565b611676565b005b34801561042e57600080fd5b5061044960048036038101906104449190613a60565b611a09565b60405161045691906131cc565b60405180910390f35b34801561046b57600080fd5b5061048660048036038101906104819190613aa0565b611a9d565b6040516104939190613a45565b60405180910390f35b3480156104a857600080fd5b506104c360048036038101906104be9190613aa0565b611ab2565b005b3480156104d157600080fd5b506104ec60048036038101906104e79190613b37565b611b53565b005b3480156104fa57600080fd5b5061051560048036038101906105109190613b64565b611c4b565b005b60008073ffffffffffffffffffffffffffffffffffffffff168373ffffffffffffffffffffffffffffffffffffffff161415610588576040517f08c379a000000000000000000000000000000000000000000000000000000000815260040161057f90613c29565b60405180910390fd5b60008083815260200190815260200160002060008473ffffffffffffffffffffffffffffffffffffffff1673ffffffffffffffffffffffffffffffffffffffff16815260200190815260200160002054905092915050565b60006105eb82611f3b565b9050919050565b60606002805461060190613c78565b80601f016020809104026020016040519081016040528092919081815260200182805461062d90613c78565b801561067a5780601f1061064f5761010080835404028352916020019161067a565b820191906000526020600020905b81548152906001019060200180831161065d57829003601f168201915b50505050509050919050565b61068e611fb5565b73ffffffffffffffffffffffffffffffffffffffff168573ffffffffffffffffffffffffffffffffffffffff1614806106d457506106d3856106ce611fb5565b611a09565b5b610713576040517f08c379a000000000000000000000000000000000000000000000000000000000815260040161070a90613d1c565b60405180910390fd5b6107208585858585611fbd565b5050505050565b6060815183511461076d576040517f08c379a000000000000000000000000000000000000000000000000000000000815260040161076490613dae565b60405180910390fd5b6000835167ffffffffffffffff81111561078a576107896132d4565b5b6040519080825280602002602001820160405280156107b85781602001602082028036833780820191505090505b50905060005b8451811015610835576108058582815181106107dd576107dc613dce565b5b60200260200101518583815181106107f8576107f7613dce565b5b6020026020010151610517565b82828151811061081857610817613dce565b5b6020026020010181815250508061082e90613e2c565b90506107be565b508091505092915050565b610848611fb5565b73ffffffffffffffffffffffffffffffffffffffff16610866610a04565b73ffffffffffffffffffffffffffffffffffffffff16146108bc576040517f08c379a00000000000000000000000000000000000000000000000000000000081526004016108b390613ec1565b60405180910390fd5b6108c660006122d1565b565b6108d0612f9f565b600460008381526020019081526020016000206040518060e00160405290816000820160009054906101000a900473ffffffffffffffffffffffffffffffffffffffff1673ffffffffffffffffffffffffffffffffffffffff1673ffffffffffffffffffffffffffffffffffffffff1681526020016001820160009054906101000a900473ffffffffffffffffffffffffffffffffffffffff1673ffffffffffffffffffffffffffffffffffffffff1673ffffffffffffffffffffffffffffffffffffffff1681526020016002820154815260200160038201548152602001600482015481526020016005820160009054906101000a900460ff1660038111156109dd576109dc6137c5565b5b60038111156109ef576109ee6137c5565b5b81526020016006820154815250509050919050565b6000600360009054906101000a900473ffffffffffffffffffffffffffffffffffffffff16905090565b60008111610a71576040517f08c379a0000000000000000000000000000000000000000000000000000000008152600401610a6890613f2d565b60405180910390fd5b6004600083815260200190815260200160002060000160009054906101000a900473ffffffffffffffffffffffffffffffffffffffff1673ffffffffffffffffffffffffffffffffffffffff163373ffffffffffffffffffffffffffffffffffffffff161415610b16576040517f08c379a0000000000000000000000000000000000000000000000000000000008152600401610b0d90613fbf565b60405180910390fd5b3073ffffffffffffffffffffffffffffffffffffffff1663c6118093836040518263ffffffff1660e01b8152600401610b4f9190613111565b60206040518083038186803b158015610b6757600080fd5b505afa158015610b7b573d6000803e3d6000fd5b505050506040513d601f19601f82011682018060405250810190610b9f9190613ff4565b811115610be1576040517f08c379a0000000000000000000000000000000000000000000000000000000008152600401610bd89061406d565b60405180910390fd5b6000600460008481526020019081526020016000206003015482610c05919061408d565b90507f83215a4718f53a9d7de03edb5b9abd9c4b7322f77af07a7fd53a07496ae86283833383604051610c3a939291906140e7565b60405180910390a1813073ffffffffffffffffffffffffffffffffffffffff1663c6118093856040518263ffffffff1660e01b8152600401610c7c9190613111565b60206040518083038186803b158015610c9457600080fd5b505afa158015610ca8573d6000803e3d6000fd5b505050506040513d601f19601f82011682018060405250810190610ccc9190613ff4565b1415610d495760016004600085815260200190815260200160002060050160006101000a81548160ff02191690836003811115610d0c57610d0b6137c5565b5b02179055507f9e71d2fb732e68272b7e74ecfd14638673c1d77e19a5d390a3ffff054d57c44b83604051610d409190613111565b60405180910390a15b6004600084815260200190815260200160002060010160009054906101000a900473ffffffffffffffffffffffffffffffffffffffff1673ffffffffffffffffffffffffffffffffffffffff166323b872dd3330846040518463ffffffff1660e01b8152600401610dbc9392919061411e565b602060405180830381600087803b158015610dd657600080fd5b505af1158015610dea573d6000803e3d6000fd5b505050506040513d601f19601f82011682018060405250810190610e0e919061416a565b503073ffffffffffffffffffffffffffffffffffffffff1663f242432a303386866040518563ffffffff1660e01b8152600401610e4e94939291906141ce565b600060405180830381600087803b158015610e6857600080fd5b505af1158015610e7c573d6000803e3d6000fd5b50505050505050565b60008311610ec8576040517f08c379a0000000000000000000000000000000000000000000000000000000008152600401610ebf90614298565b60405180910390fd5b60008211610f0b576040517f08c379a0000000000000000000000000000000000000000000000000000000008152600401610f029061432a565b60405180910390fd5b81831015610f4e576040517f08c379a0000000000000000000000000000000000000000000000000000000008152600401610f45906143bc565b60405180910390fd5b60008284610f5c919061440b565b14610f9c576040517f08c379a0000000000000000000000000000000000000000000000000000000008152600401610f93906144ae565b60405180910390fd5b6000610fa86005612397565b905060008385610fb891906144ce565b90506040518060e001604052808873ffffffffffffffffffffffffffffffffffffffff1681526020018773ffffffffffffffffffffffffffffffffffffffff1681526020018281526020018581526020016000815260200160006003811115611024576110236137c5565b5b8152602001848152506004600084815260200190815260200160002060008201518160000160006101000a81548173ffffffffffffffffffffffffffffffffffffffff021916908373ffffffffffffffffffffffffffffffffffffffff16021790555060208201518160010160006101000a81548173ffffffffffffffffffffffffffffffffffffffff021916908373ffffffffffffffffffffffffffffffffffffffff16021790555060408201518160020155606082015181600301556080820151816004015560a08201518160050160006101000a81548160ff02191690836003811115611117576111166137c5565b5b021790555060c0820151816006015590505061113360056123a5565b7f97e04be2fd6414727fe9d0400464568f4384aa8b06264119565ca8f6cc2a4b7a828887604051611166939291906140e7565b60405180910390a1611189308383604051806020016040528060008152506123bb565b50505050505050565b8173ffffffffffffffffffffffffffffffffffffffff166111b1611fb5565b73ffffffffffffffffffffffffffffffffffffffff161415611208576040517f08c379a00000000000000000000000000000000000000000000000000000000081526004016111ff90614571565b60405180910390fd5b8060016000611215611fb5565b73ffffffffffffffffffffffffffffffffffffffff1673ffffffffffffffffffffffffffffffffffffffff16815260200190815260200160002060008473ffffffffffffffffffffffffffffffffffffffff1673ffffffffffffffffffffffffffffffffffffffff16815260200190815260200160002060006101000a81548160ff0219169083151502179055508173ffffffffffffffffffffffffffffffffffffffff166112c2611fb5565b73ffffffffffffffffffffffffffffffffffffffff167f17307eab39ab6107e8899845ad3d59bd9653f200f220920489ca2b5937696c318360405161130791906131cc565b60405180910390a35050565b600063bc197c8160e01b905095945050505050565b6004600082815260200190815260200160002060000160009054906101000a900473ffffffffffffffffffffffffffffffffffffffff1673ffffffffffffffffffffffffffffffffffffffff163373ffffffffffffffffffffffffffffffffffffffff16146113cc576040517f08c379a00000000000000000000000000000000000000000000000000000000081526004016113c390614603565b60405180910390fd5b600160038111156113e0576113df6137c5565b5b6004600083815260200190815260200160002060050160009054906101000a900460ff166003811115611416576114156137c5565b5b14611456576040517f08c379a000000000000000000000000000000000000000000000000000000000815260040161144d9061466f565b60405180910390fd5b60026004600083815260200190815260200160002060050160006101000a81548160ff021916908360038111156114905761148f6137c5565b5b02179055506000600460008381526020019081526020016000206003015460046000848152602001908152602001600020600201546114cf919061408d565b90506004600083815260200190815260200160002060010160009054906101000a900473ffffffffffffffffffffffffffffffffffffffff1673ffffffffffffffffffffffffffffffffffffffff1663a9059cbb33836040518363ffffffff1660e01b815260040161154292919061468f565b602060405180830381600087803b15801561155c57600080fd5b505af1158015611570573d6000803e3d6000fd5b505050506040513d601f19601f82011682018060405250810190611594919061416a565b507f585f6e67bd2585f64dfedfcf4ea96a3483968e4e31d48dfe43ff7baecd5592af82826040516115c69291906146b8565b60405180910390a15050565b60003073ffffffffffffffffffffffffffffffffffffffff1662fdd58e30846040518363ffffffff1660e01b815260040161160e92919061468f565b60206040518083038186803b15801561162657600080fd5b505afa15801561163a573d6000803e3d6000fd5b505050506040513d601f19601f8201168201806040525081019061165e9190613ff4565b9050919050565b60006116716005612397565b905090565b6000600460008481526020019081526020016000206003015460046000858152602001908152602001600020600201546116b0919061408d565b90506004600084815260200190815260200160002060000160009054906101000a900473ffffffffffffffffffffffffffffffffffffffff1673ffffffffffffffffffffffffffffffffffffffff163373ffffffffffffffffffffffffffffffffffffffff1614611756576040517f08c379a000000000000000000000000000000000000000000000000000000000815260040161174d9061472d565b60405180910390fd5b6002600381111561176a576117696137c5565b5b6004600085815260200190815260200160002060050160009054906101000a900460ff1660038111156117a05761179f6137c5565b5b146117e0576040517f08c379a00000000000000000000000000000000000000000000000000000000081526004016117d790614799565b60405180910390fd5b8160046000858152602001908152602001600020600401548261180391906147b9565b1015611844576040517f08c379a000000000000000000000000000000000000000000000000000000000815260040161183b9061485f565b60405180910390fd5b8160046000858152602001908152602001600020600401600082825461186a919061487f565b925050819055507f8f9d4ba78b01fd18eb0318f3ffd6c6ff9d47516ad4cf873cc5c34131bfba916e83836040516118a29291906146b8565b60405180910390a18060046000858152602001908152602001600020600401541061193e5760036004600085815260200190815260200160002060050160006101000a81548160ff02191690836003811115611901576119006137c5565b5b02179055507f9a7851747cd7ffb3fe0a32caf3da48b31f27cebe131267051640f8b72fc47186836040516119359190613111565b60405180910390a15b6004600084815260200190815260200160002060010160009054906101000a900473ffffffffffffffffffffffffffffffffffffffff1673ffffffffffffffffffffffffffffffffffffffff166323b872dd3330856040518463ffffffff1660e01b81526004016119b19392919061411e565b602060405180830381600087803b1580156119cb57600080fd5b505af11580156119df573d6000803e3d6000fd5b505050506040513d601f19601f82011682018060405250810190611a03919061416a565b50505050565b6000600160008473ffffffffffffffffffffffffffffffffffffffff1673ffffffffffffffffffffffffffffffffffffffff16815260200190815260200160002060008373ffffffffffffffffffffffffffffffffffffffff1673ffffffffffffffffffffffffffffffffffffffff16815260200190815260200160002060009054906101000a900460ff16905092915050565b600063f23a6e6160e01b905095945050505050565b611aba611fb5565b73ffffffffffffffffffffffffffffffffffffffff168573ffffffffffffffffffffffffffffffffffffffff161480611b005750611aff85611afa611fb5565b611a09565b5b611b3f576040517f08c379a0000000000000000000000000000000000000000000000000000000008152600401611b3690614947565b60405180910390fd5b611b4c8585858585612551565b5050505050565b611b5b611fb5565b73ffffffffffffffffffffffffffffffffffffffff16611b79610a04565b73ffffffffffffffffffffffffffffffffffffffff1614611bcf576040517f08c379a0000000000000000000000000000000000000000000000000000000008152600401611bc690613ec1565b60405180910390fd5b600073ffffffffffffffffffffffffffffffffffffffff168173ffffffffffffffffffffffffffffffffffffffff161415611c3f576040517f08c379a0000000000000000000000000000000000000000000000000000000008152600401611c36906149d9565b60405180910390fd5b611c48816122d1565b50565b8273ffffffffffffffffffffffffffffffffffffffff163373ffffffffffffffffffffffffffffffffffffffff161480611c925750611c9183611c8c611fb5565b611a09565b5b611cd1576040517f08c379a0000000000000000000000000000000000000000000000000000000008152600401611cc890614947565b60405180910390fd5b60026003811115611ce557611ce46137c5565b5b6004600084815260200190815260200160002060050160009054906101000a900460ff166003811115611d1b57611d1a6137c5565b5b1480611d6d5750600380811115611d3557611d346137c5565b5b6004600084815260200190815260200160002060050160009054906101000a900460ff166003811115611d6b57611d6a6137c5565b5b145b611dac576040517f08c379a0000000000000000000000000000000000000000000000000000000008152600401611da390614a6b565b60405180910390fd5b6000816004600085815260200190815260200160002060030154611dd0919061408d565b90506004600084815260200190815260200160002060040154811115611e2b576040517f08c379a0000000000000000000000000000000000000000000000000000000008152600401611e2290614afd565b60405180910390fd5b7f3cb476d405b930f5d4ed0e35fe4bf7542b62eba4df83466c0198e854cd36b093833383604051611e5e939291906140e7565b60405180910390a1611e718484846127d3565b6004600084815260200190815260200160002060010160009054906101000a900473ffffffffffffffffffffffffffffffffffffffff1673ffffffffffffffffffffffffffffffffffffffff1663a9059cbb33836040518363ffffffff1660e01b8152600401611ee292919061468f565b602060405180830381600087803b158015611efc57600080fd5b505af1158015611f10573d6000803e3d6000fd5b505050506040513d601f19601f82011682018060405250810190611f34919061416a565b5050505050565b60007f4e2312e0000000000000000000000000000000000000000000000000000000007bffffffffffffffffffffffffffffffffffffffffffffffffffffffff1916827bffffffffffffffffffffffffffffffffffffffffffffffffffffffff19161480611fae5750611fad826129f0565b5b9050919050565b600033905090565b8151835114612001576040517f08c379a0000000000000000000000000000000000000000000000000000000008152600401611ff890614b8f565b60405180910390fd5b600073ffffffffffffffffffffffffffffffffffffffff168473ffffffffffffffffffffffffffffffffffffffff161415612071576040517f08c379a000000000000000000000000000000000000000000000000000000000815260040161206890614c21565b60405180910390fd5b600061207b611fb5565b905061208b818787878787612ad2565b60005b845181101561223c5760008582815181106120ac576120ab613dce565b5b6020026020010151905060008583815181106120cb576120ca613dce565b5b60200260200101519050600080600084815260200190815260200160002060008b73ffffffffffffffffffffffffffffffffffffffff1673ffffffffffffffffffffffffffffffffffffffff1681526020019081526020016000205490508181101561216c576040517f08c379a000000000000000000000000000000000000000000000000000000000815260040161216390614cb3565b60405180910390fd5b81810360008085815260200190815260200160002060008c73ffffffffffffffffffffffffffffffffffffffff1673ffffffffffffffffffffffffffffffffffffffff168152602001908152602001600020819055508160008085815260200190815260200160002060008b73ffffffffffffffffffffffffffffffffffffffff1673ffffffffffffffffffffffffffffffffffffffff1681526020019081526020016000206000828254612221919061487f565b925050819055505050508061223590613e2c565b905061208e565b508473ffffffffffffffffffffffffffffffffffffffff168673ffffffffffffffffffffffffffffffffffffffff168273ffffffffffffffffffffffffffffffffffffffff167f4a39dc06d4c0dbc64b70af90fd698a233a518aa5d07e595d983b8c0526c8f7fb87876040516122b3929190614cd3565b60405180910390a46122c9818787878787612ada565b505050505050565b6000600360009054906101000a900473ffffffffffffffffffffffffffffffffffffffff16905081600360006101000a81548173ffffffffffffffffffffffffffffffffffffffff021916908373ffffffffffffffffffffffffffffffffffffffff1602179055508173ffffffffffffffffffffffffffffffffffffffff168173ffffffffffffffffffffffffffffffffffffffff167f8be0079c531659141344cd1fd0a4f28419497f9722a3daafe3b4186f6b6457e060405160405180910390a35050565b600081600001549050919050565b6001816000016000828254019250508190555050565b600073ffffffffffffffffffffffffffffffffffffffff168473ffffffffffffffffffffffffffffffffffffffff16141561242b576040517f08c379a000000000000000000000000000000000000000000000000000000000815260040161242290614d7c565b60405180910390fd5b6000612435611fb5565b90506124568160008761244788612cc1565b61245088612cc1565b87612ad2565b8260008086815260200190815260200160002060008773ffffffffffffffffffffffffffffffffffffffff1673ffffffffffffffffffffffffffffffffffffffff16815260200190815260200160002060008282546124b5919061487f565b925050819055508473ffffffffffffffffffffffffffffffffffffffff16600073ffffffffffffffffffffffffffffffffffffffff168273ffffffffffffffffffffffffffffffffffffffff167fc3d58168c5ae7397731d063d5bbf3d657854427343f4c083240f7aacaa2d0f6287876040516125339291906146b8565b60405180910390a461254a81600087878787612d3b565b5050505050565b600073ffffffffffffffffffffffffffffffffffffffff168473ffffffffffffffffffffffffffffffffffffffff1614156125c1576040517f08c379a00000000000000000000000000000000000000000000000000000000081526004016125b890614c21565b60405180910390fd5b60006125cb611fb5565b90506125eb8187876125dc88612cc1565b6125e588612cc1565b87612ad2565b600080600086815260200190815260200160002060008873ffffffffffffffffffffffffffffffffffffffff1673ffffffffffffffffffffffffffffffffffffffff16815260200190815260200160002054905083811015612682576040517f08c379a000000000000000000000000000000000000000000000000000000000815260040161267990614cb3565b60405180910390fd5b83810360008087815260200190815260200160002060008973ffffffffffffffffffffffffffffffffffffffff1673ffffffffffffffffffffffffffffffffffffffff168152602001908152602001600020819055508360008087815260200190815260200160002060008873ffffffffffffffffffffffffffffffffffffffff1673ffffffffffffffffffffffffffffffffffffffff1681526020019081526020016000206000828254612737919061487f565b925050819055508573ffffffffffffffffffffffffffffffffffffffff168773ffffffffffffffffffffffffffffffffffffffff168373ffffffffffffffffffffffffffffffffffffffff167fc3d58168c5ae7397731d063d5bbf3d657854427343f4c083240f7aacaa2d0f6288886040516127b49291906146b8565b60405180910390a46127ca828888888888612d3b565b50505050505050565b600073ffffffffffffffffffffffffffffffffffffffff168373ffffffffffffffffffffffffffffffffffffffff161415612843576040517f08c379a000000000000000000000000000000000000000000000000000000000815260040161283a90614e0e565b60405180910390fd5b600061284d611fb5565b905061287d8185600061285f87612cc1565b61286887612cc1565b60405180602001604052806000815250612ad2565b600080600085815260200190815260200160002060008673ffffffffffffffffffffffffffffffffffffffff1673ffffffffffffffffffffffffffffffffffffffff16815260200190815260200160002054905082811015612914576040517f08c379a000000000000000000000000000000000000000000000000000000000815260040161290b90614ea0565b60405180910390fd5b82810360008086815260200190815260200160002060008773ffffffffffffffffffffffffffffffffffffffff1673ffffffffffffffffffffffffffffffffffffffff16815260200190815260200160002081905550600073ffffffffffffffffffffffffffffffffffffffff168573ffffffffffffffffffffffffffffffffffffffff168373ffffffffffffffffffffffffffffffffffffffff167fc3d58168c5ae7397731d063d5bbf3d657854427343f4c083240f7aacaa2d0f6287876040516129e19291906146b8565b60405180910390a45050505050565b60007fd9b67a26000000000000000000000000000000000000000000000000000000007bffffffffffffffffffffffffffffffffffffffffffffffffffffffff1916827bffffffffffffffffffffffffffffffffffffffffffffffffffffffff19161480612abb57507f0e89341c000000000000000000000000000000000000000000000000000000007bffffffffffffffffffffffffffffffffffffffffffffffffffffffff1916827bffffffffffffffffffffffffffffffffffffffffffffffffffffffff1916145b80612acb5750612aca82612f22565b5b9050919050565b505050505050565b612af98473ffffffffffffffffffffffffffffffffffffffff16612f8c565b15612cb9578373ffffffffffffffffffffffffffffffffffffffff1663bc197c8187878686866040518663ffffffff1660e01b8152600401612b3f959493929190614f04565b602060405180830381600087803b158015612b5957600080fd5b505af1925050508015612b8a57506040513d601f19601f82011682018060405250810190612b879190614f81565b60015b612c3057612b96614fbb565b806308c379a01415612bf35750612bab614fdd565b80612bb65750612bf5565b806040517f08c379a0000000000000000000000000000000000000000000000000000000008152600401612bea91906132ad565b60405180910390fd5b505b6040517f08c379a0000000000000000000000000000000000000000000000000000000008152600401612c27906150e5565b60405180910390fd5b63bc197c8160e01b7bffffffffffffffffffffffffffffffffffffffffffffffffffffffff1916817bffffffffffffffffffffffffffffffffffffffffffffffffffffffff191614612cb7576040517f08c379a0000000000000000000000000000000000000000000000000000000008152600401612cae90615177565b60405180910390fd5b505b505050505050565b60606000600167ffffffffffffffff811115612ce057612cdf6132d4565b5b604051908082528060200260200182016040528015612d0e5781602001602082028036833780820191505090505b5090508281600081518110612d2657612d25613dce565b5b60200260200101818152505080915050919050565b612d5a8473ffffffffffffffffffffffffffffffffffffffff16612f8c565b15612f1a578373ffffffffffffffffffffffffffffffffffffffff1663f23a6e6187878686866040518663ffffffff1660e01b8152600401612da0959493929190615197565b602060405180830381600087803b158015612dba57600080fd5b505af1925050508015612deb57506040513d601f19601f82011682018060405250810190612de89190614f81565b60015b612e9157612df7614fbb565b806308c379a01415612e545750612e0c614fdd565b80612e175750612e56565b806040517f08c379a0000000000000000000000000000000000000000000000000000000008152600401612e4b91906132ad565b60405180910390fd5b505b6040517f08c379a0000000000000000000000000000000000000000000000000000000008152600401612e88906150e5565b60405180910390fd5b63f23a6e6160e01b7bffffffffffffffffffffffffffffffffffffffffffffffffffffffff1916817bffffffffffffffffffffffffffffffffffffffffffffffffffffffff191614612f18576040517f08c379a0000000000000000000000000000000000000000000000000000000008152600401612f0f90615177565b60405180910390fd5b505b505050505050565b60007f01ffc9a7000000000000000000000000000000000000000000000000000000007bffffffffffffffffffffffffffffffffffffffffffffffffffffffff1916827bffffffffffffffffffffffffffffffffffffffffffffffffffffffff1916149050919050565b600080823b905060008111915050919050565b6040518060e00160405280600073ffffffffffffffffffffffffffffffffffffffff168152602001600073ffffffffffffffffffffffffffffffffffffffff1681526020016000815260200160008152602001600081526020016000600381111561300d5761300c6137c5565b5b8152602001600081525090565b6000604051905090565b600080fd5b600080fd5b600073ffffffffffffffffffffffffffffffffffffffff82169050919050565b60006130598261302e565b9050919050565b6130698161304e565b811461307457600080fd5b50565b60008135905061308681613060565b92915050565b6000819050919050565b61309f8161308c565b81146130aa57600080fd5b50565b6000813590506130bc81613096565b92915050565b600080604083850312156130d9576130d8613024565b5b60006130e785828601613077565b92505060206130f8858286016130ad565b9150509250929050565b61310b8161308c565b82525050565b60006020820190506131266000830184613102565b92915050565b60007fffffffff0000000000000000000000000000000000000000000000000000000082169050919050565b6131618161312c565b811461316c57600080fd5b50565b60008135905061317e81613158565b92915050565b60006020828403121561319a57613199613024565b5b60006131a88482850161316f565b91505092915050565b60008115159050919050565b6131c6816131b1565b82525050565b60006020820190506131e160008301846131bd565b92915050565b6000602082840312156131fd576131fc613024565b5b600061320b848285016130ad565b91505092915050565b600081519050919050565b600082825260208201905092915050565b60005b8381101561324e578082015181840152602081019050613233565b8381111561325d576000848401525b50505050565b6000601f19601f8301169050919050565b600061327f82613214565b613289818561321f565b9350613299818560208601613230565b6132a281613263565b840191505092915050565b600060208201905081810360008301526132c78184613274565b905092915050565b600080fd5b7f4e487b7100000000000000000000000000000000000000000000000000000000600052604160045260246000fd5b61330c82613263565b810181811067ffffffffffffffff8211171561332b5761332a6132d4565b5b80604052505050565b600061333e61301a565b905061334a8282613303565b919050565b600067ffffffffffffffff82111561336a576133696132d4565b5b602082029050602081019050919050565b600080fd5b600061339361338e8461334f565b613334565b905080838252602082019050602084028301858111156133b6576133b561337b565b5b835b818110156133df57806133cb88826130ad565b8452602084019350506020810190506133b8565b5050509392505050565b600082601f8301126133fe576133fd6132cf565b5b813561340e848260208601613380565b91505092915050565b600080fd5b600067ffffffffffffffff821115613437576134366132d4565b5b61344082613263565b9050602081019050919050565b82818337600083830152505050565b600061346f61346a8461341c565b613334565b90508281526020810184848401111561348b5761348a613417565b5b61349684828561344d565b509392505050565b600082601f8301126134b3576134b26132cf565b5b81356134c384826020860161345c565b91505092915050565b600080600080600060a086880312156134e8576134e7613024565b5b60006134f688828901613077565b955050602061350788828901613077565b945050604086013567ffffffffffffffff81111561352857613527613029565b5b613534888289016133e9565b935050606086013567ffffffffffffffff81111561355557613554613029565b5b613561888289016133e9565b925050608086013567ffffffffffffffff81111561358257613581613029565b5b61358e8882890161349e565b9150509295509295909350565b600067ffffffffffffffff8211156135b6576135b56132d4565b5b602082029050602081019050919050565b60006135da6135d58461359b565b613334565b905080838252602082019050602084028301858111156135fd576135fc61337b565b5b835b8181101561362657806136128882613077565b8452602084019350506020810190506135ff565b5050509392505050565b600082601f830112613645576136446132cf565b5b81356136558482602086016135c7565b91505092915050565b6000806040838503121561367557613674613024565b5b600083013567ffffffffffffffff81111561369357613692613029565b5b61369f85828601613630565b925050602083013567ffffffffffffffff8111156136c0576136bf613029565b5b6136cc858286016133e9565b9150509250929050565b600081519050919050565b600082825260208201905092915050565b6000819050602082019050919050565b61370b8161308c565b82525050565b600061371d8383613702565b60208301905092915050565b6000602082019050919050565b6000613741826136d6565b61374b81856136e1565b9350613756836136f2565b8060005b8381101561378757815161376e8882613711565b975061377983613729565b92505060018101905061375a565b5085935050505092915050565b600060208201905081810360008301526137ae8184613736565b905092915050565b6137bf8161304e565b82525050565b7f4e487b7100000000000000000000000000000000000000000000000000000000600052602160045260246000fd5b60048110613805576138046137c5565b5b50565b6000819050613816826137f4565b919050565b600061382682613808565b9050919050565b6138368161381b565b82525050565b60e08201600082015161385260008501826137b6565b50602082015161386560208501826137b6565b5060408201516138786040850182613702565b50606082015161388b6060850182613702565b50608082015161389e6080850182613702565b5060a08201516138b160a085018261382d565b5060c08201516138c460c0850182613702565b50505050565b600060e0820190506138df600083018461383c565b92915050565b6138ee8161304e565b82525050565b600060208201905061390960008301846138e5565b92915050565b6000806040838503121561392657613925613024565b5b6000613934858286016130ad565b9250506020613945858286016130ad565b9150509250929050565b600080600080600060a0868803121561396b5761396a613024565b5b600061397988828901613077565b955050602061398a88828901613077565b945050604061399b888289016130ad565b93505060606139ac888289016130ad565b92505060806139bd888289016130ad565b9150509295509295909350565b6139d3816131b1565b81146139de57600080fd5b50565b6000813590506139f0816139ca565b92915050565b60008060408385031215613a0d57613a0c613024565b5b6000613a1b85828601613077565b9250506020613a2c858286016139e1565b9150509250929050565b613a3f8161312c565b82525050565b6000602082019050613a5a6000830184613a36565b92915050565b60008060408385031215613a7757613a76613024565b5b6000613a8585828601613077565b9250506020613a9685828601613077565b9150509250929050565b600080600080600060a08688031215613abc57613abb613024565b5b6000613aca88828901613077565b9550506020613adb88828901613077565b9450506040613aec888289016130ad565b9350506060613afd888289016130ad565b925050608086013567ffffffffffffffff811115613b1e57613b1d613029565b5b613b2a8882890161349e565b9150509295509295909350565b600060208284031215613b4d57613b4c613024565b5b6000613b5b84828501613077565b91505092915050565b600080600060608486031215613b7d57613b7c613024565b5b6000613b8b86828701613077565b9350506020613b9c868287016130ad565b9250506040613bad868287016130ad565b9150509250925092565b7f455243313135353a2062616c616e636520717565727920666f7220746865207a60008201527f65726f2061646472657373000000000000000000000000000000000000000000602082015250565b6000613c13602b8361321f565b9150613c1e82613bb7565b604082019050919050565b60006020820190508181036000830152613c4281613c06565b9050919050565b7f4e487b7100000000000000000000000000000000000000000000000000000000600052602260045260246000fd5b60006002820490506001821680613c9057607f821691505b60208210811415613ca457613ca3613c49565b5b50919050565b7f455243313135353a207472616e736665722063616c6c6572206973206e6f742060008201527f6f776e6572206e6f7220617070726f7665640000000000000000000000000000602082015250565b6000613d0660328361321f565b9150613d1182613caa565b604082019050919050565b60006020820190508181036000830152613d3581613cf9565b9050919050565b7f455243313135353a206163636f756e747320616e6420696473206c656e67746860008201527f206d69736d617463680000000000000000000000000000000000000000000000602082015250565b6000613d9860298361321f565b9150613da382613d3c565b604082019050919050565b60006020820190508181036000830152613dc781613d8b565b9050919050565b7f4e487b7100000000000000000000000000000000000000000000000000000000600052603260045260246000fd5b7f4e487b7100000000000000000000000000000000000000000000000000000000600052601160045260246000fd5b6000613e378261308c565b91507fffffffffffffffffffffffffffffffffffffffffffffffffffffffffffffffff821415613e6a57613e69613dfd565b5b600182019050919050565b7f4f776e61626c653a2063616c6c6572206973206e6f7420746865206f776e6572600082015250565b6000613eab60208361321f565b9150613eb682613e75565b602082019050919050565b60006020820190508181036000830152613eda81613e9e565b9050919050565b7f4d757374206c656e64206d6f7265207468616e20300000000000000000000000600082015250565b6000613f1760158361321f565b9150613f2282613ee1565b602082019050919050565b60006020820190508181036000830152613f4681613f0a565b9050919050565b7f426f72726f7765722063616e2774206c656e6420746f207468656972206f776e60008201527f206c6f616e000000000000000000000000000000000000000000000000000000602082015250565b6000613fa960258361321f565b9150613fb482613f4d565b604082019050919050565b60006020820190508181036000830152613fd881613f9c565b9050919050565b600081519050613fee81613096565b92915050565b60006020828403121561400a57614009613024565b5b600061401884828501613fdf565b91505092915050565b7f4e6f7420656e6f75676820736861726573206c65667400000000000000000000600082015250565b600061405760168361321f565b915061406282614021565b602082019050919050565b600060208201905081810360008301526140868161404a565b9050919050565b60006140988261308c565b91506140a38361308c565b9250817fffffffffffffffffffffffffffffffffffffffffffffffffffffffffffffffff04831182151516156140dc576140db613dfd565b5b828202905092915050565b60006060820190506140fc6000830186613102565b61410960208301856138e5565b6141166040830184613102565b949350505050565b600060608201905061413360008301866138e5565b61414060208301856138e5565b61414d6040830184613102565b949350505050565b600081519050614164816139ca565b92915050565b6000602082840312156141805761417f613024565b5b600061418e84828501614155565b91505092915050565b600082825260208201905092915050565b50565b60006141b8600083614197565b91506141c3826141a8565b600082019050919050565b600060a0820190506141e360008301876138e5565b6141f060208301866138e5565b6141fd6040830185613102565b61420a6060830184613102565b818103608083015261421b816141ab565b905095945050505050565b7f416d6f756e7420726571756573746564206d757374206265206772656174657260008201527f207468616e203000000000000000000000000000000000000000000000000000602082015250565b600061428260278361321f565b915061428d82614226565b604082019050919050565b600060208201905081810360008301526142b181614275565b9050919050565b7f5368617265207072696365206d7573742062652067726561746572207468616e60008201527f2030000000000000000000000000000000000000000000000000000000000000602082015250565b600061431460228361321f565b915061431f826142b8565b604082019050919050565b6000602082019050818103600083015261434381614307565b9050919050565b7f416d6f756e7420726571756573746564206d757374206265206772656174657260008201527f207468616e206f7220657175616c20746f207368617265207072696365000000602082015250565b60006143a6603d8361321f565b91506143b18261434a565b604082019050919050565b600060208201905081810360008301526143d581614399565b9050919050565b7f4e487b7100000000000000000000000000000000000000000000000000000000600052601260045260246000fd5b60006144168261308c565b91506144218361308c565b925082614431576144306143dc565b5b828206905092915050565b7f416d6f756e7420726571756573746564206d757374206265206469766973696260008201527f6c65206279207368617265207072696365000000000000000000000000000000602082015250565b600061449860318361321f565b91506144a38261443c565b604082019050919050565b600060208201905081810360008301526144c78161448b565b9050919050565b60006144d98261308c565b91506144e48361308c565b9250826144f4576144f36143dc565b5b828204905092915050565b7f455243313135353a2073657474696e6720617070726f76616c2073746174757360008201527f20666f722073656c660000000000000000000000000000000000000000000000602082015250565b600061455b60298361321f565b9150614566826144ff565b604082019050919050565b6000602082019050818103600083015261458a8161454e565b9050919050565b7f4f6e6c792074686520626f72726f7765722063616e207769746864726177207460008201527f686569722072657175657374656420616d6f756e740000000000000000000000602082015250565b60006145ed60358361321f565b91506145f882614591565b604082019050919050565b6000602082019050818103600083015261461c816145e0565b9050919050565b7f43616e206f6e6c7920626f72726f7720696e2066756e64656420737461746500600082015250565b6000614659601f8361321f565b915061466482614623565b602082019050919050565b600060208201905081810360008301526146888161464c565b9050919050565b60006040820190506146a460008301856138e5565b6146b16020830184613102565b9392505050565b60006040820190506146cd6000830185613102565b6146da6020830184613102565b9392505050565b7f4f6e6c792074686520626f72726f7765722063616e2072657061790000000000600082015250565b6000614717601b8361321f565b9150614722826146e1565b602082019050919050565b600060208201905081810360008301526147468161470a565b9050919050565b7f43616e206f6e6c7920726570617920696e207265706179696e67207374617465600082015250565b600061478360208361321f565b915061478e8261474d565b602082019050919050565b600060208201905081810360008301526147b281614776565b9050919050565b60006147c48261308c565b91506147cf8361308c565b9250828210156147e2576147e1613dfd565b5b828203905092915050565b7f43616e2774207265706179206d6f7265207468616e206c6f616e20616d6f756e60008201527f7400000000000000000000000000000000000000000000000000000000000000602082015250565b600061484960218361321f565b9150614854826147ed565b604082019050919050565b600060208201905081810360008301526148788161483c565b9050919050565b600061488a8261308c565b91506148958361308c565b9250827fffffffffffffffffffffffffffffffffffffffffffffffffffffffffffffffff038211156148ca576148c9613dfd565b5b828201905092915050565b7f455243313135353a2063616c6c6572206973206e6f74206f776e6572206e6f7260008201527f20617070726f7665640000000000000000000000000000000000000000000000602082015250565b600061493160298361321f565b915061493c826148d5565b604082019050919050565b6000602082019050818103600083015261496081614924565b9050919050565b7f4f776e61626c653a206e6577206f776e657220697320746865207a65726f206160008201527f6464726573730000000000000000000000000000000000000000000000000000602082015250565b60006149c360268361321f565b91506149ce82614967565b604082019050919050565b600060208201905081810360008301526149f2816149b6565b9050919050565b7f43616e206f6e6c79206275726e20696e207265706179696e67206f722072657060008201527f6169642073746174657300000000000000000000000000000000000000000000602082015250565b6000614a55602a8361321f565b9150614a60826149f9565b604082019050919050565b60006020820190508181036000830152614a8481614a48565b9050919050565b7f43616e2774207769746864726177206d6f7265207468616e20616d6f756e742060008201527f7265706169640000000000000000000000000000000000000000000000000000602082015250565b6000614ae760268361321f565b9150614af282614a8b565b604082019050919050565b60006020820190508181036000830152614b1681614ada565b9050919050565b7f455243313135353a2069647320616e6420616d6f756e7473206c656e6774682060008201527f6d69736d61746368000000000000000000000000000000000000000000000000602082015250565b6000614b7960288361321f565b9150614b8482614b1d565b604082019050919050565b60006020820190508181036000830152614ba881614b6c565b9050919050565b7f455243313135353a207472616e7366657220746f20746865207a65726f20616460008201527f6472657373000000000000000000000000000000000000000000000000000000602082015250565b6000614c0b60258361321f565b9150614c1682614baf565b604082019050919050565b60006020820190508181036000830152614c3a81614bfe565b9050919050565b7f455243313135353a20696e73756666696369656e742062616c616e636520666f60008201527f72207472616e7366657200000000000000000000000000000000000000000000602082015250565b6000614c9d602a8361321f565b9150614ca882614c41565b604082019050919050565b60006020820190508181036000830152614ccc81614c90565b9050919050565b60006040820190508181036000830152614ced8185613736565b90508181036020830152614d018184613736565b90509392505050565b7f455243313135353a206d696e7420746f20746865207a65726f2061646472657360008201527f7300000000000000000000000000000000000000000000000000000000000000602082015250565b6000614d6660218361321f565b9150614d7182614d0a565b604082019050919050565b60006020820190508181036000830152614d9581614d59565b9050919050565b7f455243313135353a206275726e2066726f6d20746865207a65726f206164647260008201527f6573730000000000000000000000000000000000000000000000000000000000602082015250565b6000614df860238361321f565b9150614e0382614d9c565b604082019050919050565b60006020820190508181036000830152614e2781614deb565b9050919050565b7f455243313135353a206275726e20616d6f756e7420657863656564732062616c60008201527f616e636500000000000000000000000000000000000000000000000000000000602082015250565b6000614e8a60248361321f565b9150614e9582614e2e565b604082019050919050565b60006020820190508181036000830152614eb981614e7d565b9050919050565b600081519050919050565b6000614ed682614ec0565b614ee08185614197565b9350614ef0818560208601613230565b614ef981613263565b840191505092915050565b600060a082019050614f1960008301886138e5565b614f2660208301876138e5565b8181036040830152614f388186613736565b90508181036060830152614f4c8185613736565b90508181036080830152614f608184614ecb565b90509695505050505050565b600081519050614f7b81613158565b92915050565b600060208284031215614f9757614f96613024565b5b6000614fa584828501614f6c565b91505092915050565b60008160e01c9050919050565b600060033d1115614fda5760046000803e614fd7600051614fae565b90505b90565b600060443d1015614fed57615070565b614ff561301a565b60043d036004823e80513d602482011167ffffffffffffffff8211171561501d575050615070565b808201805167ffffffffffffffff81111561503b5750505050615070565b80602083010160043d038501811115615058575050505050615070565b61506782602001850186613303565b82955050505050505b90565b7f455243313135353a207472616e7366657220746f206e6f6e204552433131353560008201527f526563656976657220696d706c656d656e746572000000000000000000000000602082015250565b60006150cf60348361321f565b91506150da82615073565b604082019050919050565b600060208201905081810360008301526150fe816150c2565b9050919050565b7f455243313135353a204552433131353552656365697665722072656a6563746560008201527f6420746f6b656e73000000000000000000000000000000000000000000000000602082015250565b600061516160288361321f565b915061516c82615105565b604082019050919050565b6000602082019050818103600083015261519081615154565b9050919050565b600060a0820190506151ac60008301886138e5565b6151b960208301876138e5565b6151c66040830186613102565b6151d36060830185613102565b81810360808301526151e58184614ecb565b9050969550505050505056fea2646970667358221220e336f9d9b9c623a271bf474f7b1f618b31a091d50bb6a6e7ea5d6e50cd84062164736f6c6343000809003368747470733a2f2f6170692e6b69766177732e6f72672f76322f6c6f616e732f7b69647d",
  "immutableReferences": {},
  "source": "// SPDX-License-Identifier: Apache-2.0\npragma solidity >=0.7.0 <0.9.0;\n\nimport \"@openzeppelin/contracts/token/ERC1155/ERC1155.sol\";\nimport \"@openzeppelin/contracts/token/ERC1155/utils/ERC1155Receiver.sol\";\nimport \"@openzeppelin/contracts/token/ERC1155/utils/ERC1155Holder.sol\";\nimport \"@openzeppelin/contracts/token/ERC20/ERC20.sol\";\nimport \"@openzeppelin/contracts/access/Ownable.sol\";\nimport \"@openzeppelin/contracts/utils/Counters.sol\";\nimport \"@openzeppelin/contracts/utils/Strings.sol\";\n\n/**\n * Lova is a crowd-funding marketplace for 0% interest microloans inspired by Kiva\n * We use ERC1155 since we have lots of loans which are each unique and are comprised on non-unique shares\n * ERC721 wouldn't work as it only allows one owner of each loan, while we need to support multiple lenders per loan\n * \n * TODO could introduce the EXPIRED state if the loan doesn't fundraise in a set amount of time - this would allow the lenders to withdraw\n * TODO think about meta-transactions where the account sending and paying for execution may not be the actual sender\n * TODO could implement batch versions of all functions\n */\ncontract Lova is ERC1155, ERC1155Receiver, ERC1155Holder, Ownable  {\n    using Counters for Counters.Counter;\n\n    // Variables\n    mapping(uint256 => LoanInfo) _loanInfo;\n    enum State {RAISING, FUNDED, REPAYING, REPAID} // TODO could add expired in raising and/or defaulted\n    struct LoanInfo {\n        address borrower;\n        address token;\n        uint256 numShares;\n        uint256 sharePrice;\n        uint256 amountRepaid;\n        State currentState;\n        uint256 kivaId; // For now we reference an id of a kiva loan to fetch metadata, eventually this would be independant\n    }\n    Counters.Counter _loanIdCounter;\n    \n    // Events\n    event LoanRequested(uint256 loanId, address addr, uint256 amount);\n    event LentToLoan(uint256 loanId, address addr, uint256 amount);\n    event LoanFunded(uint256 loanId);\n    event BorrowerWithdrew(uint256 loanId, uint256 amount);\n    event BorrowerRepaid(uint256 loanId, uint256 amount);\n    event LoanRepaid(uint256 loanId);\n    event LenderWithdrew(uint256 loanId, address addr, uint256 amount);\n    \n    // Functions\n    \n    /**\n     * For simplicity for now we reference a kivaId and use the Kiva API to fetch loan metadata\n     * Eventually this would be independantly stored on IPFS\n     * Clients calling this function must replace the `\\{id\\}` substring with the\n     * actual token type ID as per https://eips.ethereum.org/EIPS/eip-1155#metadata[defined in the EIP].\n     */\n    constructor() ERC1155(\"https://api.kivaws.org/v2/loans/{id}\") {}\n    \n    /**\n     * Bubble supportsInterface down the class hierarchy\n     */\n    function supportsInterface(bytes4 interfaceId) public view virtual override(ERC1155, ERC1155Receiver) returns (bool) {\n        return super.supportsInterface(interfaceId);\n    }\n    \n    /**\n     * Called by the borrower to \"mint\" a new loan for a requested amount. All loan shares are initially owned by the contract.\n     * For now we support a kivaId to reference the Kiva API to fetch metadata\n     * TODO we could hard-code a share price instead of having the borrower supply they're own numShares\n     * TODO ensure token address is a real ERC-20 token, or white-list approved tokens\n     * TODO currently hard-coding the data field to \"\", perhaps there's something more interesting to do\n     */\n    function mint(address borrower, address token, uint256 amountRequested, uint256 sharePrice, uint256 kivaId)\n        public\n    {\n        // Checks \n        require(amountRequested > 0, \"Amount requested must be greater than 0\");\n        require(sharePrice > 0, \"Share price must be greater than 0\");\n        require(amountRequested >= sharePrice, \"Amount requested must be greater than or equal to share price\");\n        require(amountRequested % sharePrice == 0, \"Amount requested must be divisible by share price\");\n        \n        // Effects\n        uint256 curLoanId = _loanIdCounter.current();\n        uint256 numShares = amountRequested / sharePrice;\n        _loanInfo[curLoanId] = LoanInfo({\n            borrower: borrower,\n            token: token,\n            numShares: numShares,\n            sharePrice: sharePrice,\n            currentState: State.RAISING,\n            amountRepaid: 0,\n            kivaId: kivaId\n        });\n        _loanIdCounter.increment();\n        emit LoanRequested(curLoanId, borrower, amountRequested);\n        \n        // Interactions\n        _mint(address(this), curLoanId, numShares, \"\");\n    }\n    \n    /**\n     * Lender transfers ERC20 token to the contract for a specific loan, they recieve loan shares\n     * TODO it may be confusing to specify numShares, since the lender then needs to calculate how much they're lending\n     * TODO may need to add nonReentrant\n     **/\n    function lend(uint256 loanId, uint256 numShares) payable public  {\n        // Checks\n        require(numShares > 0, \"Must lend more than 0\");\n        require(msg.sender != _loanInfo[loanId].borrower, \"Borrower can't lend to their own loan\");\n        require(numShares <= this.sharesLeft(loanId), \"Not enough shares left\");\n        \n        // Effects\n        uint256 lendAmount = numShares * _loanInfo[loanId].sharePrice;\n        emit LentToLoan(loanId, msg.sender, lendAmount);\n        if (this.sharesLeft(loanId) == numShares) {\n            _loanInfo[loanId].currentState = State.FUNDED;\n            emit LoanFunded(loanId);\n        }\n        \n        // Interactions\n        ERC20(_loanInfo[loanId].token).transferFrom(msg.sender, address(this), lendAmount);\n        this.safeTransferFrom(address(this), msg.sender, loanId, numShares, \"\");\n    }\n    \n    /**\n     * After the loan is funded, the borrower withdraws their loan amount\n     * Note: theorectically we could do this tranfer automatically on raise, but its common practice for the sender to withdraw themselves\n     */\n    function borrow(uint256 loanId) public {\n        // Checks\n        require(msg.sender == _loanInfo[loanId].borrower, \"Only the borrower can withdraw their requested amount\");\n        require(_loanInfo[loanId].currentState == State.FUNDED, \"Can only borrow in funded state\");\n        \n        // Effects\n        _loanInfo[loanId].currentState = State.REPAYING;\n        uint256 loanAmount = _loanInfo[loanId].numShares * _loanInfo[loanId].sharePrice;\n        \n        // Interactions\n        ERC20(_loanInfo[loanId].token).transfer(msg.sender, loanAmount);\n        emit BorrowerWithdrew(loanId, loanAmount);\n    }\n    \n    /**\n     * The borrwer repays the loan, they can call this multiple times until the loan is fully repaid\n     */\n    function repay(uint256 loanId, uint256 amount) payable public {\n        // Checks\n        uint256 loanAmount = _loanInfo[loanId].numShares * _loanInfo[loanId].sharePrice;\n        require(msg.sender == _loanInfo[loanId].borrower, \"Only the borrower can repay\");\n        require(_loanInfo[loanId].currentState == State.REPAYING, \"Can only repay in repaying state\");\n        require(loanAmount - _loanInfo[loanId].amountRepaid >= amount, \"Can't repay more than loan amount\");\n        \n        // Effects\n        _loanInfo[loanId].amountRepaid += amount;\n        emit BorrowerRepaid(loanId, amount);\n        if (_loanInfo[loanId].amountRepaid >= loanAmount) {\n            _loanInfo[loanId].currentState = State.REPAID;\n            emit LoanRepaid(loanId);\n        }\n        \n        // Interactions\n        ERC20(_loanInfo[loanId].token).transferFrom(msg.sender, address(this), amount);\n    }\n    \n    /**\n     * Lenders can burn their shares to redeem the underlying loan repayments\n     * Note: this isn't ideal as it allows the first lenders to burn to retrieve all their lent amount,\n     * ideally each repayment would be distributed evenly across all loan shares, but this would invovle keeping\n     * track of a repaid amount and withrawn amount for each loan share, which is a lot of storage\n     */\n    function burn(address account, uint256 loanId, uint256 numShares) public virtual {\n        // Checks\n        require(msg.sender == account || isApprovedForAll(account, _msgSender()), \"ERC1155: caller is not owner nor approved\");\n        require(\n            _loanInfo[loanId].currentState == State.REPAYING || _loanInfo[loanId].currentState == State.REPAID, \n            \"Can only burn in repaying or repaid states\"\n        );\n        uint256 withdrawAmount = _loanInfo[loanId].sharePrice * numShares;\n        require(withdrawAmount <= _loanInfo[loanId].amountRepaid, \"Can't withdraw more than amount repaid\");\n        \n        // Effects\n        \n        emit LenderWithdrew(loanId, msg.sender, withdrawAmount);\n\n        // Interactions\n        _burn(account, loanId, numShares);\n        ERC20(_loanInfo[loanId].token).transfer(msg.sender, withdrawAmount);\n    }\n    \n    /**\n     * Convinence function to get the number of shares left to fund for a loan (ie still owned by the contract)\n     */\n    function sharesLeft(uint256 loanId) public view returns (uint256) {\n        return this.balanceOf(address(this), loanId);\n    }\n    \n    /**\n     * Get loan info for an individual loan id\n     */\n    function loanInfo(uint256 loanId) public view returns (LoanInfo memory) {\n        return _loanInfo[loanId];\n    }\n    \n    /**\n     * Loans increment sequentially from 0\n     */\n    function loanCount() public view returns (uint256) {\n        return _loanIdCounter.current();\n    }\n}",
  "sourcePath": "/Users/jsaur/projects/tmp/lova/truffle/contracts/Lova.sol",
  "compiler": {
    "name": "solc",
    "version": "0.8.9+commit.e5eed63a.Emscripten.clang"
  },
  "schemaVersion": "3.4.3",
  "updatedAt": "2021-11-01T14:41:21.003Z",
  "devdoc": {
    "kind": "dev",
    "methods": {
      "balanceOf(address,uint256)": {
        "details": "See {IERC1155-balanceOf}. Requirements: - `account` cannot be the zero address."
      },
      "balanceOfBatch(address[],uint256[])": {
        "details": "See {IERC1155-balanceOfBatch}. Requirements: - `accounts` and `ids` must have the same length."
      },
      "isApprovedForAll(address,address)": {
        "details": "See {IERC1155-isApprovedForAll}."
      },
      "owner()": {
        "details": "Returns the address of the current owner."
      },
      "renounceOwnership()": {
        "details": "Leaves the contract without owner. It will not be possible to call `onlyOwner` functions anymore. Can only be called by the current owner. NOTE: Renouncing ownership will leave the contract without an owner, thereby removing any functionality that is only available to the owner."
      },
      "safeBatchTransferFrom(address,address,uint256[],uint256[],bytes)": {
        "details": "See {IERC1155-safeBatchTransferFrom}."
      },
      "safeTransferFrom(address,address,uint256,uint256,bytes)": {
        "details": "See {IERC1155-safeTransferFrom}."
      },
      "setApprovalForAll(address,bool)": {
        "details": "See {IERC1155-setApprovalForAll}."
      },
      "transferOwnership(address)": {
        "details": "Transfers ownership of the contract to a new account (`newOwner`). Can only be called by the current owner."
      },
      "uri(uint256)": {
        "details": "See {IERC1155MetadataURI-uri}. This implementation returns the same URI for *all* token types. It relies on the token type ID substitution mechanism https://eips.ethereum.org/EIPS/eip-1155#metadata[defined in the EIP]. Clients calling this function must replace the `\\{id\\}` substring with the actual token type ID."
      }
    },
    "version": 1
  },
  "userdoc": {
    "kind": "user",
    "methods": {
      "borrow(uint256)": {
        "notice": "After the loan is funded, the borrower withdraws their loan amount Note: theorectically we could do this tranfer automatically on raise, but its common practice for the sender to withdraw themselves"
      },
      "burn(address,uint256,uint256)": {
        "notice": "Lenders can burn their shares to redeem the underlying loan repayments Note: this isn't ideal as it allows the first lenders to burn to retrieve all their lent amount, ideally each repayment would be distributed evenly across all loan shares, but this would invovle keeping track of a repaid amount and withrawn amount for each loan share, which is a lot of storage"
      },
      "constructor": {
        "notice": "For simplicity for now we reference a kivaId and use the Kiva API to fetch loan metadata Eventually this would be independantly stored on IPFS Clients calling this function must replace the `\\{id\\}` substring with the actual token type ID as per https://eips.ethereum.org/EIPS/eip-1155#metadata[defined in the EIP]."
      },
      "lend(uint256,uint256)": {
        "notice": "Lender transfers ERC20 token to the contract for a specific loan, they recieve loan shares TODO it may be confusing to specify numShares, since the lender then needs to calculate how much they're lending TODO may need to add nonReentrant*"
      },
      "loanCount()": {
        "notice": "Loans increment sequentially from 0"
      },
      "loanInfo(uint256)": {
        "notice": "Get loan info for an individual loan id"
      },
      "mint(address,address,uint256,uint256,uint256)": {
        "notice": "Called by the borrower to \"mint\" a new loan for a requested amount. All loan shares are initially owned by the contract. For now we support a kivaId to reference the Kiva API to fetch metadata TODO we could hard-code a share price instead of having the borrower supply they're own numShares TODO ensure token address is a real ERC-20 token, or white-list approved tokens TODO currently hard-coding the data field to \"\", perhaps there's something more interesting to do"
      },
      "repay(uint256,uint256)": {
        "notice": "The borrwer repays the loan, they can call this multiple times until the loan is fully repaid"
      },
      "sharesLeft(uint256)": {
        "notice": "Convinence function to get the number of shares left to fund for a loan (ie still owned by the contract)"
      },
      "supportsInterface(bytes4)": {
        "notice": "Bubble supportsInterface down the class hierarchy"
      }
    },
    "notice": "Lova is a crowd-funding marketplace for 0% interest microloans inspired by Kiva We use ERC1155 since we have lots of loans which are each unique and are comprised on non-unique shares ERC721 wouldn't work as it only allows one owner of each loan, while we need to support multiple lenders per loan  TODO could introduce the EXPIRED state if the loan doesn't fundraise in a set amount of time - this would allow the lenders to withdraw TODO think about meta-transactions where the account sending and paying for execution may not be the actual sender TODO could implement batch versions of all functions",
    "version": 1
  }
}